:020000040000FA
:0400000A9900C0DEBB
:20000000C0070000D1060000D1000000B106000000000000000000000000000000000000BA
:20002000000000000000000000000000510700000000000000000000DB000000E5000000A8
:20004000EF000000F9000000030100000D01000017010000210100002B010000350100000A
:200060003F01000049010000530100005D01000067010000710100007B0100008501000068
:200080008F01000099010000A3010000AD010000B7010000C1010000CB010000D5010000C8
:2000A000DF010000E9010000F3010000FD01000007020000110200001B0200002502000024
:2000C0001FB5C046C04600F0EFFA04B00FB41FBD08205A49096809580847382057490968BF
:2000E000095808473C2055490968095808474020524909680958084744205049096809584A
:20010000084748204D490968095808474C204B49096809580847502048490968095808472E
:2001200054204649096809580847582043490968095808475C2041490968095808476020CF
:200140003E4909680958084764203C49096809580847682039490968095808476C20374996
:20016000096809580847702034490968095808477420324909680958084778202F4909687F
:20018000095808477C202D4909680958084780202A49096809580847842028490968095861
:2001A0000847882025490968095808478C2023490968095808479020204909680958084746
:2001C00094201E4909680958084798201B490968095808479C201949096809580847A020A7
:2001E0001649096809580847A4201449096809580847A8201149096809580847AC200F49D6
:20020000096809580847B0200C49096809580847B4200A49096809580847B8200749096896
:2002200009580847BC200549096809580847000003480449024A034B7047000000000020BA
:20024000C0070000C00700000122D84B5A6000BFD74A1268002AFBD0016000BFD44A126809
:20026000002AFBD00022D14B5A6000BFD04A1268002AFBD07047F0B505460E4617460024CD
:2002800006E0A200B158A2005019FFF7DDFF641CBC42F6D30020F0BD0120C043C549086042
:2002A0004010486070470146012292040868904201D9102070470020FCE7F0B505460C4647
:2002C0001646002706E028462168FFF7BDFF2D1D241D7F1CB742F6D3F0BD70B505460C46B5
:2002E0002E460BE0304600F075F9FF2C01D8002401E0FF3C013C012080023618002CF1D16B
:2003000070BD0146012292044868904201D909207047A9484069401C01D10F20F8E700207E
:20032000F6E7FEB504462068030000F037FA05042B4249598B00201DFFF7E3FF0546002D07
:2003400001D02846FEBDFFF7A7FF0120C00200F041F9042221469948FFF78DFF002801D011
:200360000320EFE708222146944800F06DF9002806D1002192480068FFF766FF00F00CF90F
:200380000320DFE7A768E6686068019031463846FFF7A3FF324638460199FFF78EFFB2006C
:2003A0003846019900F050F9002800D1CAE70320C8E700F0E3F9834800688349086041E01C
:2003C00060680190E668A0680090B2000099019800F03AF90746002F00D1B3E70E20B1E72A
:2003E000201DFFF760FF0546002D01D02846A9E76068002807D1FFF74FFF0320800200F083
:20040000E9F800F0C9F8FFF747FF0120C00200F0E1F8042221466948FFF72DFF002801D009
:2004200003208FE708222146644800F00DF9002806D1002162480068FFF706FF00F0ACF82F
:2004400003207FE700BF00207CE770B505460C46182D04D12068FFF764FF206002E0012091
:20046000206000BF00BF70BDF0B589B05248406903905248806881000398081802900398B2
:20048000000B01900121090302984018401E000B00900124002520462946019A00F0C4F841
:2004A0000022401E9141079106900126002730463946009A00F0B8F80022401E9141059157
:2004C0000490049BDB43059AD243069818430799114307910690374906980860079848602F
:2004E00009B0F0BD70B534484469344885684668AA003146204600F0A7F8002801D0002002
:2005000070BD0120FCE72D484068002801D0012000E000200546FFF7E5FF002807D0FFF759
:20052000BBFE0320800200F055F800F035F8FFF79BFF002D0ED0204846692048846847684E
:2005400021463046FFF7C9FE224639463046FFF7B4FE00BF00F020F810B5184844681A4802
:200560000460204600F0DCF810BD154800680068401C01D100BFFEE710480068002802D067
:20058000042806D101E0FFF7BEFFFFF7E5FF00BFFEE700BF00BFFEE7BFF34F8F0B480C49AB
:2005A000C860BFF34F8F00BFFEE7000000E5014000E4014000060040001000100008000026
:2005C000B8070000BC070000000000200400FA0500ED00E010B50146104B1A68084602234D
:2005E0000F4C636000BF0F4B1B68002BFBD0531C04D0904202D20A4B186101E0084B986068
:2006000000BF084B1B68002BFBD00023044C636000BF044B1B68002BFBD010BD00100010A5
:2006200000E5014000E4014010B5202A04DB0146203A9140002010BD914020239C1A03460F
:20064000E3401943904010BD034610B50B439B070FD1042A0DD308C810C9121FA342F8D00B
:2006600018BA21BA884201D9012010BD0020C04310BD002A03D0D30703D0521C07E000202C
:2006800010BD03780C78401C491C1B1B07D103780C78401C491C1B1B01D1921EF1D1184627
:2006A00010BD70477047704710B500F007F810BD014B1B68DB6818470000002019481A4972
:2006C0007047FFF7FBFFFFF7FBFC00BD20BFFDE71649174C24688C420BD1164B1B6899424F
:2006E0000CD1154B154A1360186810498842EDD00AE0134880F30888124B18470F4A1360BB
:2007000018680A498842E1D080F308880E49884204DD0E48026802210A4302605B681847D2
:200720000346DFE7C0070000C0070000FFFFFFFF000C0000141000100010000000000020B0
:20074000000400206B05000000200020240500400D48704502D1EFF3098101E0EFF30881C7
:20076000886902380078182802D1C046074A1047074A12682C3212681047000000B5054B16
:20078000054A9B58984700BDFDFFFFFF4B04000000000020001000000400000030B4744660
:2007A000641E2578641CAB4204D3635D5B00E31830BC18471D46F8E7000C00000010000017
:2010000000150020CD6401002522000033640100000000000000000000000000000000008A
:201020000000000000000000000000003D650100000000000000000025220000252200007F
:20104000A9650100AF650100252200002522000025220000252200002522000025220000C2
:20106000B56501002522000025220000BB65010025220000C1650100C7650100CD650100D8
:20108000252200002522000025220000252200002522000025220000252200002522000018
:2010A000D3650100D96501002522000025220000252200002522000025220000252200000E
:2010C00000F002F815F0E3F90CA030C8083824182D18A246671EAB4654465D46AC4201D185
:2010E00015F0D5F97E460F3E0FCCB6460126334200D0FB1AA246AB4633431847B4560100FB
:20110000E4560100103A02D378C878C1FAD8520701D330C830C101D504680C6070470000AF
:201120000023002400250026103A01D378C1FBD8520700D330C100D50B6070471FB5C04605
:20114000C04615F063F904B00FB41FBDF0B44046494652465B460FB402A0013001B5064849
:20116000004700BF01BC86460FBC8046894692469B46F0BC70470000C1100000826902495D
:201180008161024810447047911100000100000001B41EB400B50BF0E6FF01B4019886463F
:2011A00001BC01B01EBD0000401E00BF00BF00BF00BF00BF00BF00BF00BF00BF00BF00BF53
:2011C00000BFF1D17047000070B505460C46164602E00FCC0FC5103E102EFAD2082E02D3C5
:2011E00003CC03C5083E042E07D301CC01C5361F03E021782970641C6D1C761EF9D270BD74
:201200008307FF22DB0E9A408907090E994000280BDA0007000F0838830828489B001818B7
:20122000C36993430B43C3617047830824489B001B181868904308431860704710B50446E2
:2012400000210120FFF7DCFF00211820FFF7D8FF00210B20FFF7D4FF02211920FFF7D0FF1F
:2012600002210D20FFF7CCFF02210E20FFF7C8FF02210F20FFF7C4FF0221C81FFFF7C0FF85
:2012800003211620FFF7BCFF03211520FFF7B8FF204600F019F8002010BD6421018070472C
:2012A00010B500F020F810BD0648704710B500F022F810BD704770477047000000ED00E001
:2012C00000E400E003F9004370B505462D4C07202070A01CFFF7E1FF5920A080294620466B
:2012E00000F099FB70BD10B500F09EFB25490020891E087010BDF8B5224E0446B61E307892
:2013000001270D46002807D0204660380B2808D8204600F03DFF2BE0602CF9D01A48086086
:20132000F8BD20466C38032803D8204600F071FF1EE0204670381F2803D8204600F045F960
:2013400016E0204690380F2803D8204600F0E8F80EE02046A0380F2803D8204600F074F821
:2013600006E02046B0380F2804D8204600F0CAF9286000E02F60602CD2D128680028CFD18F
:201380003770F8BD1A0000200130000001202449C003086023490020087007202249C00572
:2013A0008860704770B51F4D04462878A04207D0002C05D0002803D01CA14D2015F033F804
:2013C0002878A0420ED000211D4A17482C70002C19D01C4B012C06D0022C0BD013A1682066
:2013E00015F021F870BD11600221116053610321090605E011600321116053610121C90527
:201400008160416070BD116011600721C905816070BD10B505A1712015F005F810BD00006C
:2014200080E100E02000002000F501407372635C68616C5F63636D5F6161722E6300000066
:2014400000F500404001002010B5A038030015F0DBF80B070E172028313A414B525C6500F5
:201460004B6808788A68194603F0E6F910BD88888A6883B20888194680B203F0ECF910BD4C
:2014800008884C68CB688A6880B2214603F0E7F910BD08884B688A6880B2194603F0FBF9FD
:2014A00010BD88888A6883B20888194680B203F007FA10BD88888A6883B20888194680B2EE
:2014C00003F041FA10BD08884A6880B2114603F080FA10BD088982B2888883B20888194613
:2014E00080B203F081FA10BD08884A6880B2114603F09EFA10BD08894C6882B20888CB6820
:2015000080B2214603F018FB10BD08884C68CB688A6880B2214603F02AFC10BD012010BD89
:2015200010B59038030015F06FF809060F161D242C363F464E0088888A6883B208881946DF
:2015400080B204F031F910BD08884A6880B2114604F065F910BD08884A6880B2114604F0C5
:201560006AF910BD08884A6880B2114604F070F910BD08884B688A6880B2194604F07BF918
:2015800010BD088982B2888883B20888194680B204F07AF910BD08894B6882B208881946B8
:2015A00080B204F090F910BD08884A6880B2114604F09BF910BD888882B20888114680B232
:2015C00004F0EFF910BD012010BD10B57038030015F01AF81B0F15192125282F363B404403
:2015E000484C53585F688D707980888D8D8D8D8F96004A680878114608F0FDFD10BD086856
:2016000008F04AFE10BD0C790B7B8A680868214608F053FE10BD086808F011FF10BD08F096
:2016200065FB10BD08884A6880B2114609F043F810BD0A790888114680B209F0D3F810BD84
:20164000087840B209F0DCF810BD088880B209F0F0F810BD086809F0FEF810BD086801F081
:20166000D2FB10BD086801F0FCFB10BD088982B209C9194609F007F910BD05C9114609F0D1
:2016800051F910BD08884A6880B211460AF0A6F910BD0C790888CB688A6880B221460AF035
:2016A000C5FA10BD0B7908888A6880B219460AF06DFC10BD08884C68CB688A6880B22146D5
:2016C0000AF0D5FC10BD08884A6880B211460AF018FD10BD0B7908880A7A80B2194609F0A9
:2016E00044F910BD088880B209F044F910BD062010BD08884A6880B2114609F042F910BD5C
:20170000012010BD10B5B02805D0B12808D0B2280BD0012010BD088880B20BF0FBF810BD98
:20172000088880B20BF015F910BD08884B688A6880B219460BF01EF910BD000010B50300A4
:2017400014F062FF0A0609060C0C0F0F0606061208F0F4FA10BD0AF0C5FE10BD01F03EFA45
:2017600010BD06F09FFA10BDFAA1FE4814F05BFE10BD3EB5FC49054603C900900191FF20A5
:20178000C33069460881F94A092310460A2128380BF0BFFD0024F6480BF0D9FD641CE4B2CE
:2017A0000A2CF8D3F14801231A4602A990300BF0A0F9002804D0FF20E6A13D3014F033FE28
:2017C000686800F024FC00211E22084604F06CF908F0C3FC02222421E64801F07DFBE5483D
:2017E00001222C214C3001F077FBE2490B20B03901F0FEF9002804D0FF20D6A1513014F05C
:2018000012FE0AF03EFE02F097F96B4600220821D9A008F07DFB002804D0FF20CDA157300B
:2018200014F001FE284602F0E7FC002804D0FF20C8A1593014F0F7FDF3218900D14814F0A3
:20184000D3FCD04801214171022181710721C1713EBD10B5CB4CA0780A2804D3FF20BDA1E9
:20186000903014F0E0FD207860214843001900210173417BF722C908C900C91C1140EF22BF
:20188000114041730121E1700C3010BD70B50E4600211C4619801546030014F0B5FE0723F3
:2018A000050B1711231D23002246294630460AF037FE70BD22462946304608F095F870BDE5
:2018C00022462946304601F0E2FF70BD22462946304603F0EAFD70BD22462946304600F02B
:2018E00010FC70BDFF209BA1EF3014F09CFD032070BD70B5A34CE078002818D020786021B3
:2019000048430019407B00254007400F01190879401E08712078401CC0B220700A2800D142
:201920002570A078401CA0700BF097FEE57070BD9448C079002800D08BE7704770B5914D43
:20194000A86800280CD0FFF7F3FF002862D06022A968FFF739FCFFF7CCFF0020A860EFE7B4
:201960006879002856D0FFF774FF044681484C3001F0C2FA6060002804D17A4875A14A3084
:2019800014F051FD606801F01AFB00280DD0204607F00BFF6078010703D5C008C000401C1F
:2019A0002BE0744861684C302DE0724861684C3001F0ABFA00F05AFB00282BD1FFF749FFD2
:2019C00004466C4801F098FA6060002804D1332060A1000114F027FD606801F0F4FA00287D
:2019E00014D060680088608020460AF0CCFD6078010706D5C008C000801C6070FFF779FF8D
:201A00009EE75C48616801F080FA99E75948616801F07BFA70BD10B55B4CE160A0605B489C
:201A200000F032FC607010BD574900200870704770B5574E0546706A94B00C46401C04D146
:201A4000B06AC0430004000C0BD0306AC007C00F2870706A14F0DBFBB06A2071000A60717C
:201A600014E02B206946087009A9684601F07BFA002804D03B4837A17E3814F0D4FC012038
:201A8000287006220AA9204614F04FFB2878002803D06079C0210843607114B070BDF0B518
:201AA0003B4C0646206895B00D4637460837401C08D16068401C05D1A068401C02D1E068C9
:201AC000401C11D02068314614F0A1FB6068311D14F09DFBA068394614F099FBE06831469A
:201AE0000C3114F094FB25E02B206946087009A9684601F038FA002804D01A4815A155387B
:201B000014F091FC08220AA9304614F00EFB2B206946087009A9684601F025FA002804D0F6
:201B200010480CA14E3814F07EFC08220AA9384614F0FBFA20692E460836401C08D160690F
:201B4000401C05D1A069401C02D1E069401C33D020691FE07372635C686F73745F636F72E6
:201B6000652E6300C3020000F8660100940100203D170000640800206E52463531383232AE
:201B800000000000E8030020240000203D19000080000010294614F03AFB6069291D14F055
:201BA00036FBA069314614F032FBE06929460C3114F02DFB15B0F0BD2B246846047009A98D
:201BC00001F0D1F9002803D0F649F74814F02BFC082209AF28460AA914F0A7FA68460470DC
:201BE00009A901F0C0F9002804D0EF48ED49C01D14F019FC0822391D304614F096FAD9E7E0
:201C000070B5EA4C0546A068002804D0E648E549563014F008FCA56070BD10B50146E448C6
:201C200001F073F9E1498879401CC0B28871012803D1E048407800F04BFB10BD70B5044606
:201C4000DD4816460D46814204D1D748D549CB3014F0E9FB012E05D0D348D249DA3014F0B0
:201C6000E2FB70BD6620207000202072A5810120A07370BD70B515460C460646FFF758FEA1
:201C800000280CD06621017046800121017221680161A18881820573FFF72BFE70BD1321DE
:201CA000304608F09FFD70BDC2494968884201D210207047072101700020704770B5BD4C0F
:201CC00005462078002694B0002801D00820E4E6BA4A6260954201D21020DEE66868002870
:201CE00009D00921D82804D3C31C9B089B00834205D00846D1E60720000268600EE001214D
:201D000009074B6B896B4B43AD49511A0122591AD202891A814201D20421EAE700F050FF42
:201D20006178A06806F052F8E068401E07280BD8302269460A708870684607F007F900288A
:201D400002D009A806F07CFA2846FFF712FD012020703046A1E6F8B5044696480F464068A1
:201D6000814208D3002C01D0844204D3E01C80088000A04201D01020F8BD8C488178002999
:201D800011D0398800914178602251430D18287B0C350007000F3B4600222946FFF776FDA7
:201DA000060004D015E0002038800520F8BD002C13D039880098814201D90C260DE02878DE
:201DC0003B460007000F22462946FFF75FFD060005D00C2E01D0002038803046F8BD734C9B
:201DE0006078401CC0B260700A2801D100206070A078401EA07068784107490F01290ED06B
:201E0000022906D003291AD066496E4814F00BFBE3E7C006E1D46868FFF7FFFEDDE76448C4
:201E200069684C3001F071F86079401CC0B260710128D2D15F48407800F04AFACDE7E07917
:201E4000401CE071C9E7604A10B5904209D3594A0124A4045268A04201D3904201D39142AF
:201E600001D2102010BD00F0FCFE10BD564B10B5994209D34F4B0124A4045B68A14201D3DD
:201E8000994201D39A4201D2102010BD022803D0102801D0092010BD00F009FF0028FAD001
:201EA000052010BD484B10B598420DD3414B0124A4045B68A04201D3984205D3994203D3E9
:201EC000002A03D09A4201D2102010BD00F015FF0028FAD0072010BD10B50446354894B09F
:201EE0004068844202D2102014B010BD0F2008A9087369460BA801F036F80028F4D1684668
:201F0000007A207068464089608068468089A0800020E9E710B500290BD0264A52689142D3
:201F200002D30B68934201D2102010BD8A88002A02D001F05AFE10BD092010BD10B5224A69
:201F400094B091420ED31B4A01239B045268994201D3914206D3441E1E2C41D8994203D3D6
:201F6000914201D21020BFE7012837D108780024C007C00F002803D003206946887001E0D4
:201F80006846847038206946087009A9684600F0EAFF002804D041200CA1C00014F043FADC
:201FA0002046A1E7541B000093020000E80300206408002024000020FFFF0000001900201D
:201FC000000000200A040000008001007372635C686F73745F636F72652E6300072083E7C6
:201FE0000246203A1F2AF9D807F0F9FF7CE710B55F4A5268914201D2102010BD0246203A66
:202000001F2A02D808F065F810BD072010BD70B50546584C002020702046461954484660BC
:20202000E01C80088000A04204D0FF205249133014F0F9F901200007C06AC0430006000E8A
:2020400003D14E480068401C03D04D484D49301AC862A8B20122214604F039F9002804D0DA
:20206000FF204549233014F0DEF970BDF0B595B03B2008A9087369460BA800F074FF0028FA
:2020800004D0FF203C496B3014F0CDF93E4E00246D4630E02F19B87DC10706D0400704D4B6
:2020A00060004019C0880AF08DFB3848807900281FD0B87D80071CD560004019C08800223D
:2020C00006210AF09CFB002813D03C2108A8017360004019C1886846C18569460BA800F074
:2020E00042FF06000BD0FF2023497F3014F09BF905E0641CE4B268460079A042CAD83046D0
:2021000058E5F7B505460078002700090C463E46062804D0FF201849A83014F084F9287A90
:2021200000280ED0012814D0FF201349C93014F07AF90298002C068001D0278066800020D7
:20214000FEBD02270926002C0ED0A889A080A87B08E003271426002C06D02869E060A88A9D
:202160002082287B2072E4E702980680E7E700002400002000190020CC1F00000010001047
:20218000000000200005004004300000E803002010B56038030014F037FA0A060A0F1318B2
:2021A0001F252930353A0868FFF788FD10BD05C91146FFF7D0FD10BD0868FFF775FD10BD01
:2021C00005C91146FFF73FFE10BD4B6808788A681946FFF74BFE10BD8A6809C91946FFF731
:2021E00061FE10BD0868FFF777FE10BD08884A6880B21146FFF78EFE10BD05C91146FFF7D6
:202200009DFE10BD05C91146FFF7F1FE10BD012010BD0120704700000E4A12680C498A42C6
:202220000AD118470B4A1268094B9A4204D101B50AF090FF03BC8E4607490968095808474D
:2022400006480749054A064B7047000000000000BEBAFECA78000020040000200015002058
:202260000015002001203F49400608603E4908603E490A68FF231B029A4383121A430A6072
:20228000384980390860704710B502460420384904E0C3005B181B79002B0AD00346401ED9
:2022A000C0B2002BF5D133A1432014F0BCF8FF2010BDC300CA50002259184A718A71012297
:2022C0000A7110BD2A4A0021C00080180171704710B50446042803D326A1522014F0A3F8B7
:2022E0002348E1000C182079012803D021A1532014F099F86079A179401CC0B2814200D0BB
:2023000060710120174940068031086010BD70B5164804250068164E0004800F1B4C0228A3
:202320001AD014A1692014F07EF815E02078C10088190279012A07D1427983799A4203D028
:2023400042798271705880472078401CC0B22070042801D30020207028466D1EEDB20028DA
:20236000E4D170BD80E100E080E200E018E400E0E00800207372635C736F635F7369676E1B
:20238000616C6C696E672E63000000003400002010B5EFF31080C407E40F72B6D2484178F1
:2023A000491C41704078012801D10BF07BF9002C00D162B610BD70B5CB4CE07800280AD16C
:2023C0000125E570FFF7E4FF0BF074F9002804D000200BF047F9002070BDC4486571456016
:2023E000F9E770B5EFF31080C507ED0F72B6BE4C6078002803D1BEA18F2014F014F86078A2
:20240000401E60706078002801D10BF04FF9002D00D162B670BD10B5B348C178002904D040
:2024200000214171C170FFF7DCFF002010BD10B504460BF03FF9AC49C978084000D0012029
:202440002060002010BDF8B50246A74C0026A6710820042101251027130014F0D5F80D0847
:202460000A0C0E101214161E262123252800257122E0022001E021711EE020711CE02771C7
:202480001AE02020F9E7012616E0FFF781FF0BF011F90028FBD002260EE02171A5710BE0EE
:2024A0002771FBE7202000E040202071F6E7FF208FA1763013F0B7FF0BF008F9002809D009
:2024C0000BF00AF9B04205D130460BF008F90028FAD02CE001208007C560894900224A605B
:2024E000884A9661814B02225A60856086480269D243D206D517026910231A4302610F46BF
:202500006D1C00E020BF78680028FBD030460BF0E6F80028FAD0002D04D17B4802691021FE
:202520008A43026171490220886000207860A07900280CD00BF0BEF805460BF01BF8734ACB
:20254000002D02D0A260E06001E0E260A060002E01D100F0A5F8F8BD10B504460BF0B0F823
:20256000002805D060490120C8704A78521C4A702046FFF768FF10BDF8B5614DA868002651
:20258000012802D1AE600BF06DF86868012800D16E6028680127544C012812D12E6060796E
:2025A000002803D000200BF05DF866712078002807D00BF07FF8002803D0012080070761C5
:2025C000A770286901282AD12E6100F05FF8012080074761A079002815D00BF06BF80090F5
:2025E0000AF0C8FF0099002901D0E16800E0A168411A022901DA8A1C11DC0099002901D0CE
:20260000E06000E0A060FFF7C3FE0BF053F8002804D0012080070761A77000E02770E868B3
:20262000012812D100F032F800F030F800F02EF8A078002804D1FF202DA1033013F0F3FE1D
:20264000EE60A6702670FFF7CCFEF8BD10B5264CE078002801D10BF029F8012081078861D4
:2026600000F014F8A07800280BD0254CE068002803D10BF034F80028F8D10020E06000F026
:2026800005F800201949C043886010BD08B55020694608806A461088411E1180FAD208BDD6
:2026A000F8B5124819278760154900200860C8600BF000F8BE0701240B4D002802D034611A
:2026C000AC7000E02C70FFF763FE084847600D4928798863FFF7DAFFB461FFF7D7FF084931
:2026E000002008617461F8BD38000020000300407372635C736F635F636C6F636B2E630047
:20270000000100400005004000ED00E0FFFFFF7F8107C90E002808DA0007000F08388008A3
:202720002E4A80008018C06904E080082C4A800080180068C8400006800F704710B50D2038
:20274000FFF7E6FFC4B20420C043FFF7E1FFC0B2844203D023A11A2013F065FE264901202C
:20276000486010BD0121254A48031060244B00221A60244A5160244A1060244A11601F4949
:2027800080390860704701211C4A480310601F4A51601B4A002111601B490860704710B5C5
:2027A00017490868012804D00EA1572013F03BFE10BD114880680022C0B20A600AF020FCC8
:2027C00010BD10B50E4801680029FCD0FFF7E7FF01200D494003086010BD000000ED00E01B
:2027E00000E400E07372635C736F635F68616C5F726E672E6300000000D5004080E100E00B
:2028000000D1004000D3004080E200E000D0004030B40121BC48C9020160CD1005604A037D
:202820000260BA4803681B021B0A036004680023240A24020460B6480468240A24020460BB
:20284000B448012444608460B34C23606360A360B24B19601D601A60B14B19601A60012109
:20286000016030BC704710B40121A748CA0202600B0203600C060460A64841608160A9480A
:2028800041680029FCD1A4490020086048608860A24802600360046010BC704701219F48F5
:2028A000C9020160C91001607047002805D0012805D0022805D19C4870479C4870479C48E6
:2028C000704710B59BA18B2013F0ADFD002010BD70B500219E4C9F4D9F4A8F4B002808D01C
:2028E00001281DD0022822D092A1B32013F09BFD70BD01200004A060A86011601960974BDF
:20290000C2039A60964A90607F4A001210609548016086480160944801609448017070BDB9
:2029200001204004A060A8605160596070BD01208004A060A8609160996070BDF8B5944648
:20294000834A8B4F834D00240126002808D0012832D0022840D077A1E82013F064FDF8BD17
:20296000891E0902090A0120000490603C6468606C4A1164012B1DD000217C4A7D4B517061
:202980006146DC63DE637C4B5C6002249C6004241C61744B3D31196073490E605F4B8915AE
:2029A00019606F4B58605E4801606C49C00548601670F8BD0121E0E70120704E4004704FFD
:2029C000012B04D13464506068603964F8BD9060346468603964F8BD01206A4E80046A4FDC
:2029E000012BF4D1EEE74F484068704770B54A4D28680026564C012806D1A068C00303D564
:202A000001200004A0602E606868012809D1A068800306D501204004A0606E6001200BF07B
:202A200041FEA868012809D1A068400306D501208004A060AE6002200BF034FE70BD10B52A
:202A40004A490878002818D00120444AC0079060434AC00B90602C4A00121060414A002002
:202A60001060324A1060404A106008704A78002A02D048700BF016FE10BD0320FAE7012011
:202A800042490006086070470120244900060860704701203D4940050860704701201F493F
:202AA00040050860704733490020C86388151B4908607047410A364AC005C00D5043801C3F
:202AC0005143400A0818704710B4324C430B63431B0C5C020C602E4C6343C31A2E485C0249
:202AE00058432B4B400D4343E31A0124DB0324041B191B1613700A681018086010BC70475D
:202B000010B50BF0A2FE10BD80E100E008E400E018E400E000B0004040B1004080E200E03C
:202B200000E100E000B5004048B100404081004044B100407372635C72656D5F68616C5F95
:202B40006576656E745F74696D65722E6300000000B3004040B3004040B5004000F50140B1
:202B60000083004040850040008200404800002000B10040C08F00400085004004B1004029
:202B800004B5004008B1004008B5004000E200E0093D0000378600006F0C010010B50BF045
:202BA00040FE10BD00200449C863012001218140024A116000BF7047C01F004080E200E0DA
:202BC00010B50CF097FA0AF059F9FEF7DFFB12F063FA0CF0F5FF0CF081FF10BD70B50C4679
:202BE000054603F0D5FA214628460EF026F870BD70B50D46040012D0002D10D021012846AF
:202C000013F0F0FA10225449284613F08EFA524801210838018044804560002070BD0120AB
:202C200070BD70B54C4E00240546083E11E0716820014018817BAA7B914209D1C17BEA7B41
:202C4000914205D10C22294613F042FA002806D0641C30888442EADB0020C04370BD204678
:202C600070BD70B50D4606000AD0002D08D03A4C083C20886188401C884203D9042070BD1C
:202C8000102070BD3046FFF7CCFF002801DB401C0AE020886168000140181022314613F0E0
:202CA00044FA2088401C20802870002070BD70B514460D001FD0002C1DD00021A17002285D
:202CC00002D0102817D108E0687829780002084311D00121A17010800BE02846FFF7A1FFB9
:202CE000002808DB401CA070687B297B000208432080002070BD012070BD70B50546144684
:202D00000E000AD000203070A878012807D004D9114908390A8890420BD9012070BD002CB1
:202D200004D0287820702888000A50700220087010E0002C0CD049680001411810222046E0
:202D4000103913F0F2F9287820732888000A607310203070002070BD540000205A4910B583
:202D6000884207D301218904884205D357490968884201D2102010BD0146012006F0E4FA77
:202D800010BD30B5044693B000200D46079014210BA813F029FA1C21684613F025FA6A461F
:202DA0001120107700205077107802210843107007A80C90012008AA907245486A4610850C
:202DC0000AA80B902088108460885084A0889084E088D084907FF9210840801C4008400021
:202DE000907708209086108708A80F9010AA0BA9684600F083FF002803D110A80088288036
:202E0000002013B030BD3EB504460820694608802D48844207D301208004844205D32B487B
:202E20000068844201D210203EBD2146012006F08BFA0028F8D12088694688806088C880E3
:202E4000A0880881E088488107F05FF801AB6A46002101F0E1FB694609880829E4D00320B0
:202E60003EBD1FB504460020029008206946088115480391844207D301208004844206D352
:202E800012480068844202D2102004B010BD07F03CF8014602AA0F4801F055FD0028F4D180
:202EA00069460989082901D00320EEE769460988218069464988618069468988A180694605
:202EC000C988E180E1E700000080010028000020042A0000FFFF000010B5031D036000201B
:202EE000521E04E05C181C60401C2346C0B29042F8DB0020186010BD01460A680020002A4A
:202F000002D0104612680A60704702680A6001607047000000B51E2823D00BDC0C281CD00D
:202F20001FDC030013F070FB090F1D111D1D171713151D00302814DD3A38030013F064FB12
:202F4000030F11091100002000BD214800BD042000BD0D2000BD0F2000BD082000BD112064
:202F600000BD032000BD10B50C4605F0EFFF00281ED0204605F064F9002816D022780E2A0C
:202F80000DD00F2A0BD0022A09D0032A07D0102A09D010A17C2013F046FA002010BDA0788F
:202FA000FFF7B8FF10BD112010BD0AA18220F2E708A18820EFE710B504F083FF10BD10B57F
:202FC00005F03EF910BD10B504F0D9FF10BD0000023000007372635C686F73745F68636973
:202FE0002E63000070477047704770477047704770477047704770477047704770470000F5
:2030000010FFFFFFDBE5B151008001006400FFFF03B40148019001BD09000020002803D08B
:203020008178012939D101E0102070470188FE4A881A914233D01BDCFC4A881A91422ED0A2
:203040000BDC00292BD00320C002081A27D0012825D001210903401A07E001281FD0022898
:203060001DD0FF281BD0FF380138002815D116E0FF220132811A904211D008DC01280ED050
:2030800002280CD0FE280AD0FF2806D107E0012905D0022903D0032901D0002070470F2045
:2030A000704700B50B2826D009DC030013F0ACFA0B1D2125251B25292325271F1B0011280C
:2030C0001BD008DC0C2816D00D281CD00F2814D0102808D10FE0822809D084280FD0852810
:2030E0000FD0872811D0032000BD002000BD052000BDCF4800BD072000BD0F2000BD0420FA
:2031000000BD062000BD0C2000BD0D20800200BD70B500290BD0CB1FFA3B81241E46CDB2EA
:20312000112B1BD2012805D0022806D009E0002010701DE0FF20043001E0FF200330814299
:2031400018D0330013F060FA11161313161316161316161613131313161316000846FF38F0
:2031600081381F2803D9FF39FE39022902D81570002070BD1470072070BD00B5030013F09A
:2031800043FA060406040C080A0C002000BD112000BD072000BD082000BD032000BD0078C8
:2031A0000207120F04D0012A05D0022A0AD10EE0000907D108E00009012805D0022803D04F
:2031C000032801D00720704708700020704706207047002807D0012807D0022807D00328BE
:2031E00007D007207047002004E0112002E0212000E0312008700020704738B50C460500FE
:203200004FD06946FFF7CBFF002822D12088032189028843694609788907090D0843208022
:203220006946681CFFF7BBFF002812D12188032000038143684600788007800C01432180EF
:20324000A8784007820F2020012A03D0022A03D0072038BD814300E00143218088B2010554
:20326000890F08D0012189038843A9780907C90F89030843208080B28104890F0AD0A9789B
:203280004004C906C90F400CC903084320808004800F02D12088400403D520884021084342
:2032A0002080002038BD70B504460020088015466068FFF7A2FF002815D12189A0898142E4
:2032C00010D861688978C90708D001214902884208D8491C12F0A3FF298009E0FF21FF3192
:2032E000884201D90C2070BDFF30FF3003302880002070BD10B5137804785B08E4075B00D6
:20330000E40F23431370FD2423400478A407E40F640023431370FB24234004786407E40F8A
:20332000A40023431370F724234004782407E40FE40023431370EF2423400478E406E40F4C
:20334000240123431370DF2423400478A406E40F6401234313700078BF244006C00F2340BF
:20336000800103431370002906D00878C10701D1800701D5012000E00020C0015906490EF5
:203380000843107010BD30B50A8803239B0204889A4323059D0F02D1A3049C0F01D09B0F7E
:2033A00000E001239B021A4303230A801B039A4303889804840F02D11805830F01D0800FC8
:2033C00000E00120000302430A8030BDF3B593B00D000FD0139800280FD01221284612F001
:2033E00001FF03AAFF21012003F0E7F80024264637467AE0102015B0F0BD0720FBE768464D
:20340000807D01280BD16846818A0520C002081A10D0012810D0022812D0032812D0042CB6
:2034200014D0052C15D113E0022900000128000003300000012400E002246846468A08E086
:20344000032406E068460424478A02E0052400E006246846418A1398814246D12C74002ED7
:2034600041D00DAA0EA9052002920191009010230022FF21304603F041F9002823D1684610
:20348000808E2A46C0B20EA9FFF711FC00281AD1AE81002F27D00DA9052008AE0291009066
:2034A000132300220196FF21384603F027F9002809D16846808EF11CC01EC0B22A1DFFF714
:2034C000F6FB002801D0032095E708A88178427808021043E881062C05D16846807DA8726D
:2034E0006846808A2881002085E703A803F06EF8002884D0FFF7D5FD7DE7002805D0F94AF3
:20350000012903D0022903D003207047518800E09188814201D1002070470720704770B595
:203520000C4605461C21204612F05CFE00202080002D08D0012D04D0EBA1F04812F073FFF0
:2035400070BD062000E00520A07070BD70B592B01546064601206A461071107453740846DD
:2035600008300395029048889082FEF7E1F9040019D06580172069468883203600940AABD6
:203580007178023307AA01A80DF05FF906466078000701D5FEF7ADF9002E0AD03046FFF74E
:2035A000ECFD12B070BD1321284607F01BF90320F7E708A800906846838B042201212846D3
:2035C00008F035FEEDE770B506468AB000200D4607900590069003A90490052402460291C8
:2035E0000190102300942946304603F087F800280DD108A804A90091029001946846838947
:2036000000222946304602F095FE002801D0FFF748FD0AB070BD10B50DF01DFB10BDF0B5B7
:2036200089B000260546059600780C460827030012F0EAFF0CFD070C3A0B77779EC2FCD8DB
:20364000E8FD68680A38FEF7E8FA0DE1A888002380B201220321009009F08CFA0290002C15
:2036600004D0A648A0A16E3012F0DDFE0298002804D1A2489CA16F3012F0D5FE0298009967
:2036800008300CF017FDFEF753F9040007D060783843607000986080FEF72BF9E6E0132118
:2036A000009807F09FF8EFE0002C04D1BD208EA1800012F0B8FE608800230122032109F085
:2036C00059FA0090002804D18C4887A1883012F0AAFE0099002008802A7994461EE0C3002D
:2036E0005B199B6807936B469B8B1A0708D5DA0606D56046C20050194038C08F088006E023
:203700005B0409D50871C2005019C08848806078384360700226A7E0401CC0B28445DED899
:20372000A2E0E888694608800090002C04D173486DA1983012F077FE2878062814D100987C
:20374000C00B11D0608800230122032109F012FA060004D1694864A1A23012F064FE00207F
:203760003071A88870803BE06078384360707BE0002C04D161485CA1B43012F054FE608828
:2037800000230122032109F0F5F90090002804D15A4855A1B73012F046FE009808300DF0B9
:2037A000ACFA0121484002D1E888C00B5CD0009861880226C180D7E7002C04D14F484AA154
:2037C000D03012F030FE608800230122032109F0D1F9002804D1494843A1D33012F023FE0C
:2037E0000226C1E7002C04D144483FA1DC3012F01AFE0226618801222046FEF71FFA01209D
:203800000590B1E7A889002380B201220321009009F0B0F90746002C04D0384832A1EE30BE
:2038200012F001FE002F07D12FA101E00FE016E03248EF3012F0F7FD686802902889694699
:203840008881012202A90098FEF714FA0CE0002C8AD16D2024A1C00012F0E5FD84E72748B3
:2038600021A1FE3012F0DFFD002C0DD0607800070AD50598002807D1842020702046582202
:2038800029460830FDF7A0FC304609B0F0BDF7B50C460546007A224688B00A320292921C34
:2038A00004920027811E16323E4601920B0012F0ABFE08F605F548488DD1F4F568880023B5
:2038C0000122032109F056F90190002803D106A10B4812F0A8FD01980088002812D0522787
:2038E000072601E1000900207372635C67617474735F636F72652E63000000006F020000BF
:203900008603000051271E26002C7DD06888A0800120A071019802990079C0004019C08998
:20392000FFF754FD002870D101980079C0004019C089208101980079C0004019408AA083AA
:20394000F2E0698A0091062820D1E889C00B1DD008462230512786B2002CD6D0A8890499D9
:20396000FFF734FD002873D16888A0800220A071A88920810120A072288AE083009820841B
:203980006969009A019812F0D0FBCDE008462030502786B2002CB8D0A8890299FFF716FDD2
:2039A000002855D16888A080A889E080287A06280AD002202072288AA0830098E083204684
:2039C00069692030009ADEE70120F3E7688800230122032109F0CEF80690688A009006989C
:2039E000002803D1FD49FE4812F01DFD069808300DF083F90121484002D1E889C00B26D025
:203A00000098223086B201E073E021E05127002C79D06888A080A8890499FFF7D7FC002893
:203A200016D10220A071A88920810420A072288AE083009820846969009A019812F075FB9C
:203A40000699002008710698A98941806CE003200BB0F0BD688805F0D2FB01906888002370
:203A60000122032109F086F800900198002804D1DB48DA492C3012F0D6FC0098002804D157
:203A8000D748D6492D3012F0CEFC0098D549C088884205D05127222604E01EE03FE035E04C
:203AA00050272026002C2ED06888A080502F07D00220A0712146287B0831FFF730FD33E00D
:203AC000287BA11DFFF72BFD6A88002300990198FFF73CFD0028BBD126E0C349A889C988A9
:203AE000814207D154270626002C0CD06888A0801AE008E053270826002C04D06888A080D2
:203B0000A889E08010E00A98068013E055270726002CF8D0A889A0800020A07104E08D2059
:203B2000AE49C00012F07FFC0A98002C068001D02780668000208BE7AB49002008707047CA
:203B400030B585B00C4601F0E0F90546FF2804D1A348A249953012F066FC00202080207198
:203B60006080401EE0802046294608300CF096FA6A462946012002F020FD102412E06846EB
:203B8000808800070ED56846C0882946FFF71BFD68468188FF2321438180C0882946019A30
:203BA00002F036FE684602F011FD0028E7D005B030BD0A46014610B5104608300CF082FA4E
:203BC00010BD70B5002305461A46032108F0D2FF040004D182488149B73012F024FC20465C
:203BE000294608300CF066FA70BDF0B591B00C46074605F004FB050005D02878222804D282
:203C0000082011B0F0BD7948FBE700231A460321384608F0AFFF0646002C02D0A088002806
:203C20000CD00120694608710220087400204874002C05D0A0880883206802E00920E0E7D7
:203C4000088305903046083003970290FDF770FE040018D06780172069468883203500945B
:203C60000AAB6978023307AA01A80CF0EEFD05466078000701D5FDF73CFE002D09D0284696
:203C8000FFF77BFABDE71321384606F0ABFD0320B7E708A800906846838B04220121384642
:203CA00008F0C5FA0021C943F180AAE7FFB585B00E9E7788384605F0A2FA054600231A46AD
:203CC0000321384608F056FF0446002D03D14349474812F0A8FB002C04D145483F49401C78
:203CE00012F0A1FB0834089869460394C1C105A80DC8203569780CF017FAC6E5F0B5044623
:203D0000002099B00D4601460D9010A88181164601818180344A68469180018510A801806E
:203D200068460187818581841078012808D0022806D0032804D0042802D0082019B0F0BD1E
:203D40002C4A944273D32C4F0121890438688C4201D3844278D3274A954275D30121890415
:203D60008D4201D385426FD36168002913D0214A914269D301229204914201D3814263D3EF
:203D800060892189884203D801225202914201D90C20D3E70D9016AA0EA92846FFF783FAEC
:203DA0000028CBD1686880784007800F02280AD16846008F8004800F05D02869002802D0EC
:203DC0003968884240D30AA92069FFF716FA0028B4D1206900281CD060780FE0E8380000F2
:203DE000EE030000FFFF000000090020023000000C0500000080010028000020800768466A
:203E0000008D03D58004800F68D002E08004800F64D16846008D810618D58004800F60683E
:203E200006D0002812D0396888420DD302E00BE000280BD0FE49884206D301218904884224
:203E400004D33968884201D2102077E709A96069FFF7D3F900289CD16069002808D0684676
:203E6000808C0105890F012938D18004800F35D00BA9A069FFF7C1F900288AD16846808CA3
:203E800080062BD46846808D810627D4A169002906D00105890F012920D18004800F1DD09E
:203EA000E068002804D00078002817D01C2815D204AA611C2046FFF71DFA0121890210A809
:203EC0000180012768468773DA49818104AA033217A92868FEF711FF002801D007202DE700
:203EE00010A8007F15A9C01CC2B200200C920190FF32009003460291FF3203A803321099D7
:203F000002F0B3FA002826D110A9888A0F902A892969C94801910092029010A90A8B6B892B
:203F200028680E9902F0A1FA01007DD1C2480025001F818868464174090A8174052104A8DA
:203F40006A4623C210A82A46FF21808A0C9B02F0F1F9002802D0FFF7A4F8EFE66846007C6C
:203F60000322C1090020920290430122920280181490002928D0014610A80180684629213F
:203F8000877309028181058608A8007C0023410860784900C007C00F014308A80174FD20BA
:203FA00001406078A54A8007C00F4000014308A801740CA9022001910090029503A8109916
:203FC00002F053FA01002FD16068002828D0206900280DD10AA90EA8FFF7D5F9607880079E
:203FE00006D46946088D03210903884369460885904968468773FE31818190492089891E91
:2040000012F00DF962680D9811AB0192009002930A46002303A80A9902F027FA010003D10C
:204020002078C10603D400E086E080062AD568460586606900280DD109A90EA8FFF7A3F97D
:204040006846818C032080028143012080020918684681846946888CC82108436946888413
:2040600074488F73FF30888112AA0CA902200292019100900023714A03A8099902F0F5F9F6
:20408000010059D12078C00729D068460586A06900280DD10BA90EA8FFF775F96846818DCB
:2040A000032080028143012080020918684681856846818D40200143684681858773604968
:2040C000818113AA0CA9022002920191009000235A4A03A80B9902F0C8F901002CD1E06885
:2040E00000282DD010A814990180554968468773491C8181E16808A80A78027449784174A1
:20410000E0684122418868464186E0680023017908A80175E068D200C18808A84175090ACF
:2041200081750CA8072101900091029503A8109902F09BF9010003D00F9800F0EAFEFDE5E5
:204140003D480321001F0170002E0AD08088308010A88088708010A80089B08010A8808984
:20416000F0800020EAE530B501248BB015460B46012802D002281CD104E06846052184732E
:20418000C90203E02B4968468473891E8181002B12D0032100208902884301218902401803
:2041A0006946888405AA04A91846FEF7A6FD002804D007200BB030BD1020FBE76A46127CD7
:2041C0001D480092801E05A9FF3201910290FF32002303A80332099902F047F9002802D045
:2041E000FEF75FFFE6E71448001F002D01D04188298004700020DDE770B592B00446012684
:2042000008A886700F496846018410AA08A93046FFF7A9FF00284DD12078074DC0070024D1
:204220002D1F002848D01C21684611F0DDFF0BE00080010003280000040900200302000061
:20424000032900000118000068460178202001436846017008A88670F9496846018411948F
:204260000794817FF92001406846891C81770020014668460177002001466846417704217F
:204280008185C485018607A80A9011A80D9008A809900EAA09A96846FFF730FD002809D123
:2042A0006846008FE8806846808F2881401C68812C70002012B070BDEC802C8110A80088AA
:2042C000F4E7F7B5DF4900260A789EB0012A04D0022A02D0082021B0F0BD4A88824201D02F
:2042E0000620F8E71F98824201D10720F3E7012210A98A75D4488882002003239B02014640
:2043000099439302CB1810A90B8669468A81CF4ACA8118A9887110A9888419A9049169465C
:20432000CA820690FF20087503A802F072F900242546274608AA052103A802F06DF90028F8
:2043400010D082286FD1002C6FD0002D6DD010A88480C5800021017418A8807B11AC012886
:2043600065D06DE008A88079002F21D0012857D16846818CB44881421CD113AA0DA90520A2
:204380006B4607C36846408C10230022FF2102F0B5F9002868D110A88089042801D00628C6
:2043A0004CD16846818E1F98814239D10F2092E7012835D16846808C0521C902884202D081
:2043C000491C88422CD19F4841886846408C814201D1012700E00027002C01D0002D10D0B9
:2043E0001F9988421CD113AB0DAA05216E460EC6044610230022FF2102F080F9002833D1D5
:2044000001E035460CE010A88089022801D0102814D1C0B21BAA0DA9FEF749FC00280DD14E
:204420006846468C86E71FE0FFE7052053E714A91BA8221DFEF761FC002801D003204AE7ED
:2044400010A8007C0023001DC2B210A80274209802900194009215A81C9902F006F800284B
:2044600002D1784902220A70FEF71BFE33E710B50B46401E86B084B203AA00211846FEF7E1
:2044800039FF04AA052103A802920191009001230022FF21204601F04DFF04466846008A24
:2044A000012804D06D206A49000111F0BCFF2046FEF7F7FD06B010BDF0B5624F04463878E0
:2044C00087B00E46032804D0042802D0082007B0F0BD04AA03A92046FEF7E5FE0500F6D164
:2044E000606880784007800F02280DD1684680898004800F08D02069002805D055490968E7
:20450000884201D21020E2E7208905AA6B46216907C369460A8A63892068039901F0A5FFC0
:20452000002802D0FEF7BDFDD1E7002E02D06846808A3080042038702846C8E738B50C00D0
:20454000054609D000236A46FF2102F039F9002804D0FEF7A6FD38BD102038BD694620465D
:20456000FEF74BFE0028F8D1A078FF21C307DB0F2846009A02F04CF9EBE73EB50C0009D037
:2045800002AB6A46FF2102F01BF9002804D0FEF788FD3EBD10203EBD0321204611F022FE51
:2045A0006846008801A90005800FFEF712FE00280BD16846007920706846008801A9800463
:2045C000800FFEF706FE002801D003203EBD684600796070A278EF20024068460088C10BD8
:2045E00009010A43F7210A404104C90FC9000A43A270F9210A40800601D5022000E00120DA
:20460000400069460243097A50084000C907C90F0843A07000203EBD7FB5144605220192E5
:2046200003AD029500930A462388FF2101F082FE694689892180FEF734FD04B070BD0000AB
:20464000052A00000009002002280000FFFF0000E838000028000020F3B5002799B06846AC
:204660000C4607873D4600291ED0E068002806D0A068002818D001886A4611870780199859
:2046800004F0BDFD002812D0007822287ED3199800F03BFC002300901A460321199808F097
:2046A00069FA060009D104E010201BB0F0BDFD48FBE7FD49FD4811F0B6FEA078012803D0B0
:2046C000022801D00720F0E72088002808D0401E80B203AA009901F070FF002859D11DE0B4
:2046E000F048401CE1E76946498A228891420BD26846807D0025012810D16846808AEC49BB
:2047000088420BD1012509E0914203D1002D2AD06D1C01E0022D0BD0032D04D203A801F000
:2047200055FF0028DFD082281BD0002831D11DE06946897D0129F1D16946DD4B8A8A5B1E8D
:20474000D11A9A420FD005DCDA48101A0BD00128E4D108E0012906D0FF390129DED10325AC
:20476000E1E7022D15D10D2080029EE7E068002816D00EA9052202910192009069460B8FF5
:20478000A2882088FF2101F0D5FD00E01EE0002802D0FEF786FC88E76846A168008F0880D8
:2047A0006846008AC00601D5C3487EE70798002803D06846008B022801D0032075E70798C9
:2047C000A1780078012903D0800710D408206CE7C007FBD000220721199808F010F80028B0
:2047E00002D00725022004E0AE48801C5DE70225032008A908702188684681851998083620
:204800000A90099617216846818712AB02330FAA052108A800970CF018F8002802D0FEF75E
:20482000ACFC42E710A800906846838F04222946199807F0FCFC38E770B5064615460C462D
:204840000846FEF7EBFB002804D12A4621463046FFF789FCF2E610B5FFF733FD10BD70B5B5
:204860001E4614460D0014D0002C12D0616800290FD00121FEF741FE002809D12068FEF7D5
:20488000CDFB002804D1324621462846FFF736FAD4E61020D2E670B515460C000ED00221B1
:2048A000FEF72BFE002808D12068FEF7B7FB002803D129462046FFF7FFFDBFE61020BDE66F
:2048C000F8B506467D480D46016814468A4231D36068002808D07A4A90422BD3012292041F
:2048E000904201D3884225D37648864204D0304604F085FC00280CD0304600F006FB064654
:20490000284600F0BFFA002804D16068002802D012E06448F8BD00236A463146284601F0C5
:204920004FFF002802D0FEF7BCFBF8BD68460088800601D41020F8BD6188224628466368CE
:20494000FFF76AFEF8BDF7B55C4E0746306886B01446824202D2102009B0F0BD384600F0DD
:20496000D4FA05465748874201D0FF2D08D0002304AA2946079801F023FF002826D101E0EF
:204980004848E9E76846008AC00601D54A48E3E703A9002002910527019000976288494B56
:2049A0002946079801F0AAFE00280FD161683268914208D301910290009723886288294678
:2049C000079801F09BFE694689892180FEF769FBC2E7002907D03C4B0A881B899A4202D8D7
:2049E0003048401C704737E610B586B004236C46A382354BDC88002C07D01B898B4201D2EB
:204A0000914204D92748401C54E5062052E56B4619825A820021009101911C800221997051
:204A200005A9029104A903916946FFF715FE41E5F3B50C4685B0812069460873002C1BD005
:204A4000059804F0DCFB070018D03878222869D3059800F05AFA049000220121059807F07C
:204A6000CEFE00280CD000231A460321059808F081F805000AD105E0102028E5094826E553
:204A8000112024E50849114811F0CDFC284608300BF032FB06462078012819D0022838D072
:204AA000072014E502300000E8380000E108000003280000002800000134000028000020CB
:204AC00000800100FFFF000000090020840A0000A18803AAFEF71CFB0028CED1B00721D54A
:204AE0006846007B00281FD1A079C0071CD0E068002205216B4607C363892289688804997A
:204B000001F018FC6946087300280DD0FEF7C9FADDE4A18803AAFEF7FBFA0028ADD134202E
:204B2000064201D10820D2E46846037B29463846059AFEF70BFDCAE4FFB597B0002001906E
:204B40001F4615460C460E46179804F058FB002804D00078222803D20820A6E5F448A4E5EE
:204B6000B80801D00720A0E5032F00D10027179800F0CBF90890002C1BD0022D77D3ED480E
:204B8000006884427CD361190091012902D0491E814275D3AD1EAAB22146E74810F036F834
:204BA00000991E394A7F0B7F11021943884267D1ADB2E248B90702D50189491C00E0012130
:204BC00089B20091F90701D0078900E0DA4F03AA0899009801F0F1FC0DE0F078B17800025B
:204BE000084310284CD80199091D401880B20190A84245D82618002E60D0707831780002FD
:204C0000084300998842E8D358E06946098A0A0754D5002C3FD0019AA618121D92B20992D5
:204C2000F278B37812021A439446102A28D8099A6244AA4224D87278337812021A43904251
:204C40001ED1C8061ED509980AAA052120186B4607C370783178000208436346002208992C
:204C600001F068FB002803D0FEF71BFA1DE507E0F078B178000208436946098D884201D034
:204C80000B2012E5F078B178000208430999401880B2019006E0C90604D50899FEF793FCA4
:204CA0000028E3D16946088A1021884369460882488AFF23049A089901F0AAFD03A801F03B
:204CC00085FC002803D16846408AB8429DD900231A460321179807F04DFF040003D198491D
:204CE000984811F0A0FB20880028BFD0012108A801700173002646732188684601862046FF
:204D00000830099017980A90FCF712FE05001BD01798688017206946888010AB023301AA66
:204D2000052108A800950BF090FD07466878000704D584488249223011F075FB002F09D011
:204D40003846FEF71AFAB0E41321179805F04AFD0320AAE40EA80090684683880422012121
:204D6000179807F064FA00288BD126809DE4F0B500248DB01F4615460E46002A04D0B908AB
:204D800004D007200DB0F0BD1020FBE7032F00D1002700F0BAF80390FF2804D06749B807D3
:204DA00003D5488902E06248ECE70120FA0702D04989491E00E0604906AA8FB2039901F0B7
:204DC000FCFB38E06946898B090734D504AB05210022029300910192574B039901F08EFC7F
:204DE000002821D1002E21D06A46128A2988A2183019121D914234D36946CA8B0270120ADF
:204E000042700A8A8270120AC27004A90522001D0092029101906946C88B0B8A0022039910
:204E200001F06CFC002801D00320ABE76846008A2018001D84B206A801F0C8FB002804D04A
:204E4000822806D0FEF72DF99CE76846C08BB842B8D9002C07D0002E10D02988A01C81426F
:204E600003D20C208EE705208CE72246314632480FF0CCFE31190870000A4870A41C2C8012
:204E800000207FE700B585B06946FEF79FFA00280AD16846007C030011F0B6FB08052F2F18
:204EA0002F2F08080531032005B000BD68468078012807D1684600880321C902401A1CD0A7
:204EC00001281AD068468079012806D16846808815214902401A05280FD96846807A0128A1
:204EE00011D16846018929200002081A05D0022803D0032801D0042805D10F20D4E712A1BE
:204F0000164811F090FA0020CEE710B507F028FE10BD10B50C4601F023FB002803D00AA158
:204F20000F4811F080FA2046FEF7BBF810BD00000230000028000020FFFF00000009002023
:204F4000E83800003F0B00007372635C67617474735F636F72652E63000000002202000063
:204F6000BB060000F8B500780C46164610340E36069F022809D0032836D005287ED0FF20A2
:204F8000F6A1E53011F04FFAF8BDCD890A2068430E30188031203880002AF5D0087B9581D4
:204FA000801FC7B21AE020886168308048780A7800021043F080C8788A780002104330816F
:204FC000B21C3846091DFDF772FE002F01D0002802D000203071708008340A3628466D1EDB
:204FE000ADB20028DFD1F8BDCD890A2068430E30188032203880002AF5D0087B9581401FD3
:20500000C7B243E0616822880878F2803279C30752085200DB0F1A43FD231A408307DB0F39
:205020005B001A43FB231A404307DB0F9B001A43F7231A400307DB0FDB001A43EF231A4008
:20504000C306DB0F1B011A43DF231A408306DB0F5B011A43BF231A404306DB0F9B011A4334
:205060003271C00970718A784B7810021843308132463846C91CFDF71AFE00E00CE0002825
:2050800002D00020B070308008340A3628466D1EADB20028B6D1F8BD087BCD89801E86B267
:2050A0003046083068431030188034203880002AF1D0174695811037E800D681C019009066
:2050C0000DE0208838800098786032466168009811F02BF80098083480190837009028466C
:2050E0006D1EADB20028ECD1F8BDFFB581B00A9D1E460C46002A05D0607AFF300130D08061
:20510000E089108101980E270078030011F07CFA0B7E0719293541536C7878787E00009256
:20512000087B082805D0032803D091A1954811F07AF9378030200FE000990020888105B0F9
:20514000F0BD0092087B042804D08E4888A1143011F069F937803120288000980028EBD1BB
:20516000EDE70092087B042804D0932080A1800011F059F937803220EEE70092087B022882
:2051800004D080487AA13A3011F04DF937803320E2E7087B1746042804D07A4874A14C30A1
:2051A00011F041F91020308034202880002FC6D00020B88116E0207B1746052806D006289B
:2051C00004D070486AA1603011F02DF91220308035202880002FB2D0E089B8810020388275
:2051E00001984088F881AAE70092087B072804D064485FA1713011F016F937803620ABE730
:2052000033460095019800F00EFC98E72F2053A1000111F008F992E770B50C46054603F0FA
:20522000EEFF002804D00078222803D2082070BD554870BD00231A460421284607F09AFC2C
:205240002060002801D0002070BD032070BDFFB58BB00D4607461720694608850E98032667
:205260001446002805D10EA93846FFF7D5FF002834D1002D0BD000220321384607F0BFFA2E
:20528000002834D00E980078002830D108E02078092819D00F2823D030A13C4811F0C3F8C6
:2052A0000E98A760801D03AA606002320AA9204600F00FFC002827D0030011F0A5F9071A0D
:2052C000182323211C1E2300072600223146384607F095FA0028E3D12B48801C0FB0F0BDD1
:2052E00000220321384607F08AFA0028D8D11120F4E70020F2E70820F0E72348401CEDE7FF
:205300000720EBE70320E9E701A800906846038D04223146384606F08AFF0028DED1002D8C
:20532000DCD00E990D70D9E730B587B01D460C46002A11D0042369460B7013888B8152882F
:20534000CA81A2788A7422880A8200236A462946FFF77DFF07B030BD1020FBE77372635CA6
:2053600067617474635F636F72652E63000000007372635C67617474635F636F72652E6331
:205380000000000025020000023000004F030000F3B581B001980C4600780826030011F0F4
:2053A00033F9125F47471B134B0A0A0A0A0A0A0A0A0A0A0A0A5F002C02D1F849F84808E00A
:2053C0006078304360703CE0002CF9D1F448F349083011F028F8F3E701980023808801220E
:2053E00087B20421384607F0C5FB0546002C04D07520EA49C00011F016F8002D04D1E84806
:20540000E649143011F00FF83946A81D00F058FBFCF78EFA040006D0607830436070678033
:20542000FCF767FA0FE01321384605F0DBF915E0DB48DA49283002E0D948D8492D3010F09A
:20544000F2FF002C0AD06078000707D5932020702046582208300199FBF7B6FE0020FEBD24
:20546000CF48CE493130EAE710B500210170801D00F023FB10BD0A4610B50146901D00F004
:2054800027FB10BD70B5002305461A46042107F071FB040004D1F920C049800010F0C3FF65
:2054A0002946A01D00F00CFB70BDF7B5054684B00C4600206946088188806F88034601225C
:2054C0000421384607F056FB060004D1FD20B349800010F0A8FF002C03D0A7800020E08020
:2054E0002081297A20461230C91E142700900B0011F08AF80FFEFDFC3809A95E657A2FB272
:20550000C9E99191FC003078012804D0A3497020143110F088FFA9896A46C8000E309080D6
:2055200030201081002C13D0A18100200DE0C100327909190A747288CA8182005319DA89AA
:205540004A821A8A401C8A8280B2A1898142EED8F1E002A8009001AB22462946304600F09A
:205560002BFAE8E03078042804D08C49BD20143110F059FFA8890622014650436A460E3026
:20558000908033201081002CE2D0A18100200BE0062141434F190919FA89CA81BA7C8A74D5
:2055A0003A8A401C0A8280B2A1898142F0D8C2E0307806280BD079491431D72005E030787A
:2055C000062804D07549EB20143110F02CFFE88969461230888035200881002CB8D0A98962
:2055E000A1817188E18126E03078072804D06B49FF20143110F017FFA8896A4601460E30E9
:20560000908036201081002CA2D0A1812046AA890E30296954E0E8896946123080B2382248
:2056200088800A81002C7ED0A989A181287A102807D00221A173E9892182EA89296900986F
:205640003EE00121F6E702A8009001AB224629463046FFF787FC6EE03078082805D04F49EE
:20566000FF201431EE3010F0DEFE6846372187800181002C5FD0A989A181002060822082EA
:205680000120A07357E03078092805D04349FF201431FF3010F0C7FE288A69461430888060
:2056A00037200881002C46D00421A173A989A181E9892182298A618220462A8A1430696960
:2056C00010F033FD37E030780A2804D033493548143110F0A8FE6846372187800181002C36
:2056E00029D00521A1730020A08102E01EE003E00CE0208260821EE002A8009001AB2246B7
:2057000029463046FFF7F1FC15E00CE00D206946392288800A81002C05D00120E080002074
:205720002081207307E00699088019E01C481B49A43010F078FE6846069980880880002C13
:205740000ED0684600892080684680886080287A032805D0102803D0112801D00020307087
:20576000002007B0F0BDF7B5568815460F46002382B01A460421304607F0FCF9040004D156
:2057800007480649C43010F04EFEA41D33462A4639460094029800F022FBD0E45C53000064
:2057A0009503000013020000F7B58CB00D46144607A90C98FFF730FD002812D1B64E0127F9
:2057C000002C0FD00321684601701021818208A802460690204605A9FDF78FFA00280BD025
:2057E00007207BE50821684601708581C68105218774C90201820BE00798A1780171218860
:205800004180684605218774C90201828581C68102460121079B0C98FFF719FD5EE508B5A1
:2058200001236A4693709D4B13800A4602236946FFF77AFD08BD08B501236A469370974B4A
:205840005B1C13800A4603236946FFF76DFD08BD00B587B000290CD002236A4613700B8818
:2058600093814988D18100230421FFF7F0FC07B000BD1020FBE710B5002903D00523FFF762
:2058800053FD10BD072010BD70B588B00D461446064607A9FFF7C0FC00280DD1002C0DD030
:2058A0000621684601708581C481079B02465C8006213046FFF7CBFC08B070BD052168467E
:2058C00001708581F1E710B588B000290BD007246B461C709A81049100236A462146FFF730
:2058E000B6FC08B010BD1020FBE770B50024172288B0002914D00D782B0010F085FE06233C
:20590000050519041B231522D21E93B2CA88002A02D08E68002E03D09A4203D90C20CBE7DB
:205920001020C9E7042D05D08A88002A0AD101E00620C1E7012D11D0022D05D0042D18D08F
:20594000052D23D00720B7E709236A4613704B889381CB88D381896804911DE00C236A460E
:2059600013704B889381CB88D38189680824049112E00D236A4613704B8893818B88D381C1
:20598000CB88138289680924059105E00E236A461370497811730A2400232146FFF757FCDC
:2059A0008AE700B587B00F236A461370918100231946FFF74CFC5AE7FEB50078089D1C46E0
:2059C00016460F46012803D03549912010F02BFDF889C0000E30208030202880387B001FDA
:2059E000C0B20190002E1DD0F889B081002516E0E8008419C0190090224641690E320198E3
:205A0000FDF755F9002802D000202074E08100986D1C008A60820098ADB2408AA082B0898C
:205A2000A842E5D8FEBD70B514461425049A1D8037231380002C0ED0CA89A281002262829E
:205A40000078082808D0092810D00A2819D01449144810F0E8FC70BD087B0C2804D01148EC
:205A60000F490C3810F0DFFC012008E0087B0D2804D00C480A49083810F0D5FC0420A0732B
:205A800070BD087B0E2804D006480549001F10F0CAFC0520F3E70000FFFF000002280000A4
:205AA00070530000BB02000010B5FE4B586019721A80C90010F098FB10BD002101807047F9
:205AC00010B50022D2430280032007F0F8FC10BD7047F0B50E460446017801208840F249D6
:205AE00099B008400090616815460888EF4A904206D0009A002A06D0EB4A521E104202D08D
:205B0000012019B0F0BD009A10430880002D12D0002028702178EA1C0027681C01920B00CA
:205B200010F072FD10F30E16233A59616F3CB4B08AB8F2F1F0F320780B28EBD00420E0E730
:205B400002212970A1890170090A4170032097E004212970A1890170090A41700198E18970
:205B60000170090A417005208AE006212970A1890170090A41700199E2890A70120A4A70ED
:205B8000218A0171090A4171A28AE81DA16910F0CCFAA08AC01D73E008212970217808293C
:205BA00001D110212970A1890170090A41700198E1890170090A41700520308020466A1DF0
:205BC00002A91030FDF799F800287DD169463088097A401854E00A212970A1890170090AF7
:205BE000417003200BE00C212970A1890170090A41700198E1890170090A417005203080B4
:205C00009CE0A08984464000401C81B2308888425AD3052958D30E202870002008E02369E4
:205C200042009B5A521953701B0A401C937080B26045F4D33180B9E09A48417A002973D08A
:205C4000491E4172217B4068C9004518A9882868082240180838216910F067FA0221684681
:205C600001710021417128680390A98868460181002101A8FFF78CFB0020A880002E00D0CE
:205C8000308093E02978802211432970297840221143297029788909890112312970A189FE
:205CA0000170090A4170E289E81C216910F03DFAE089C01C3080287841063FD5C00975D081
:205CC00001216846017200E02CE0002141723188091D81810495E189019808180590001D72
:205CE00006907048017A68460177002102A8FFF74FFB074630880C303080022F06D0002F83
:205D000054D065E03DE033E01CE05EE065486946097F4268CB00D218037A994202D2918828
:205D2000002902D0042753E02FE0417A491C41721560308890800020308049E06168A08900
:205D4000888033E029788909890116312970A1890170090A41700198E1890170090A4170F4
:205D6000228A681D616910F0E0F9208A401D46E728788009800118302870207B68700220FC
:205D80007EE760680188090401D4052720E0C088A189884201D006271AE01E202870012014
:205DA0003080606801884904490C0180009800280ED03C4800220088A1688300032007F04D
:205DC000D9FA61682078887007E00020308003276068009902888A430280384691E6FFB5D3
:205DE0009FB0289D0E46002805D0172803D82A882E4B9A4202D1072023B0F0BD32785306A0
:205E000001D4D20901D00820F6E700226B461A715A7114463278431E1D939BB2189303AB18
:205E20001A939706CB1CBF0E1B93821E711C3B0010F0EAFB209011EE66EE74EEB0EED4EEA4
:205E4000EDEEECEEEBEEEAEEE9EEEEEEE8EEE7EEE6EEE5EE90EE05287CD10421684601719A
:205E6000A9780172F078B27801021143684641813179417170788006800E0C282ED009DCC6
:205E8000801E030010F0C0FB0919661C662166246627660012282AD00ADC0E2821D0102885
:205EA000DAD121E00C090020FF710000FFFF000016281FD01828CFD11FE02878800701E07F
:205EC00028784007002845DA45E128780007F9E72878C006F6E728788006F3E728784006BE
:205EE000F0E728780006EDE72888C005EAE72888C004E7E728888004E4E728884004E1E70E
:205F00002A78920726D50328A6D105206A461071487809780002084310811CE12978490746
:205F2000F0D5062816D3717890B2012902D0022992D101E0022100E01021189106216A463B
:205F400011710021118102AF189AB11C0237921C1B921AE0B3E04A780B7812021A433A804B
:205F6000801E891C1790BA1C1A911898FCF79FFE1A991898189A091817986B46801A1A89A3
:205F800080B2521C1A811B9ABF1D8242E3D9002886D1E0E028780007B4D51D98694682B2AE
:205FA0000720087100200881701C0A3111E0437807781B023B430B80C37887781B023B43AB
:205FC0004B806F463B89121F5B1C001D92B23B81091D042AEBD2002A71D1BCE02978C9062F
:205FE0006DD502286BD30820694608710020488170780872844692B2B01C1A9919E089E06D
:2060000090E07EE067E05BE030E025E019E013E0BCE0437807781B023B430B80831C4B60E9
:206020006346D21A6F467B8960445B1C92B27B8108319445EDD9CEE7287880063FD50922C5
:2060400003E0287840063AD50A2268460271AA880281189A428107E0287800062FD50B2035
:206060006A46107118981081039174E02988C90525D5022823D30C206946087100204881F0
:2060800070780872844692B2B01C1A9914E0437807781B023B430B80C37887781B023B43E8
:2060A0004B80031D4B606346D21A6F467B8960445B1C92B27B8108319445E8D98BE763E019
:2060C0002988C90460D501285ED10D2168460171A98801813FE02988890455D5052853D3DA
:2060E0000E2269460A71AA880A811B99401F4A78097812020A4369464A818881701D04902E
:2061000029E0298849043FD501283DD10F206946087120E02A88120436D44A780B781202AB
:206120001A43EA8003282FD332789206920E1B2A26D011226B461A712A880123DB031A43CE
:206140002A804A78097812020A4369460A81C01E48811B98039030788006800E1B2809D0F2
:206160001D2807D00320229907F0A9F92888C00BC003288001A82199FFF70AF920463BE6C3
:2061800010226B461A71DCE70724F7E70824F5E700B597B0032806D16A46107001910021DC
:2061A0006846FFF7F5F817B000BD000010B58B78002B11D082789A4207D10B88002B0BD0AF
:2061C00003E08B79091D002B08D08B789A42F8D103880C88A342F4D1002010BD812010BDE3
:2061E000052826D0002A02D0012A0DD102E00988090501E009888904890F07D0012918D076
:20620000022909D003290ED081207047002A01D0032070470220704703280AD0042808D061
:20622000002804D007E0042803D0022803D005207047002070470F20704770B513880546DB
:2062400014460B8018061DD5FE481022807AA84203D813430B80002070BDA068934300788E
:20626000E840C007C00E03430B802078A1788007800D0843F4490FF0D2FFA068694308189F
:20628000401C70BD906870BD37B569468B88138019061BD5EB4C0125A47A9168844209D8E5
:2062A000FE280FD1D80602D5A5406D1E00E000250D7007E085400C78DB06DB0FAC43834084
:2062C0001C430C7010881021884310803EBDF8B50746C81C80080E468000B04201D0862021
:2062E000F8BD082A01D90E20F8BDD64D00202E60AF802881AA723446E88016E0E988491C87
:20630000E980810610D48007A178800D0843CE490FF085FF206800F0BAFA2989401880B22F
:206320002881381A8019A0600C3420884107E5D40020F8BDFFB589B09F041646139DBF0CA4
:206340000193099800F095FA04000AD02078000609D5BC48817A0A98814204D887200DB08B
:20636000F0BD0120FBE7224669460A98FFF765FF0690002069460872052D14D001222146DB
:206380002846FFF72DFF0028E9D1207840060AD5022168460172099981810188C181068293
:2063A0004782129805900198000404D500273E460125079709E02078A1788007800D0843F7
:2063C000A14907900FF02BFF0D46019840040AD50798A84207D12088E1788005800F00028C
:2063E0000843B04201D3AE4201D90720B7E7B81980B20190A84201D90D20B0E76846007AB9
:20640000002804D002A8FDF706F90028A7D10798A8420BD120880321090288430199890514
:20642000890F0902084320800198E0701498002800D007801298002815D006983A4680194C
:2064400012990FF072FE224669460A98FFF7F5FE694608881021884369460880224600990D
:206460000A98FFF711FF002079E7FFB5754D0C22E8882968504383B00C180D9F7249059861
:206480000FF0CDFE0091049800F001FA29682A898E46611A0C310918944651188AB2A98879
:2064A000914202D8842007B0F0BD6A46168A320603D5B20601D58520F5E7EA88521C92B294
:2064C000EA800E9B002B00D01A80B20601D5A76006E0604480B22881091A70460818A06021
:2064E0002246FE200499FFF7CFFE0598A0700098E07020880599800889058000890F084362
:2065000003210902884300998905890F0902084304210843208003988078A0710398008895
:20652000A08000202073310601D5AC7A00E00124B10600D5002700260EE0052100200191B1
:2065400002900097E88831460C9B069AFFF7F2FE0028A8D1761CF6B2A642EED30020A2E7D1
:20656000F1B5009800F085F9060002D00025009C14E00120F8BD204600F07BF9074600787D
:2065800031498007820DB87810430FF048FE386800F07DF94019641C85B2A4B22948C1887D
:2065A000601E8142E7DC00992648491EC1800189491B018100203070F8BD002804D0401EE9
:2065C00010809170002070470120704710B5044601881C48C288914201D3822010BD0068B7
:2065E0000C22514342189079A072908820811088D1788005800F00020843A081A078211DF2
:20660000FFF71BFE20612088401C2080E080002010BD012101827047F7B50546002084B052
:20662000C043108068681746817868468170686801886846018000218171288A2C88A0421F
:2066400005D303E0180900200102000004462C8235E0288A401C2882301D6968FFF7A6FDBF
:2066600000282AD139889248814201D1601E38806888A04228D33088F1788005800F00028D
:20668000084302906946301DFFF790FD002814D16989874881421BD0002231460598FFF7F6
:2066A0009FFD002809D16A890298824205D1E968B0680FF00DFD00280AD0641CA4B2204665
:2066C00000F0D7F80600C4D1641E2C828220EAE67C80B079B871B088B8803078B1788007A8
:2066E000800D084378810298B8813946287A32460831FFF7A2FD38610020D4E6FFB585B033
:206700001C460F46059800F0B4F8050009D02878000608D56748807AB84204D8872009B049
:20672000F0BD0120FBE707982A468605B60D69463846FFF782FD07460E98052816D0002282
:206740002946FFF74DFD0028E9D1287840060DD5012168460171059901810188418186812C
:20676000C48101A8FCF757FF0028D8D12888AA788107890D11438005800FEA780002104302
:20678000079A964207D04C4A914204D3611E814201DD0B20C3E7864201D90720BFE7801B6A
:2067A00082B2A24200D922461098002800D002800F98002802D0B9190FF0B7FC0020AEE784
:2067C000F8B51D4617460E4600F053F8040008D02078000607D53748807AB04203D887207A
:2067E000F8BD0120F8BD224639463046FFF725FD002D0BD02078A1788007800D08432E490A
:20680000884201D2012000E0002028700020F8BDF8B51E4617460D4600F02BF8040008D09D
:206820002078000607D52348807AA84203D88720F8BD0120F8BD224639462846FFF724FD16
:20684000FF2E14D02588A178A807800D08431A490FF0E5FC002E03D1FF31FF31033189B2C6
:20686000A170A80880008905890F084320800020F8BD1049CA88824207D3002805D00C227D
:20688000096850430C38081870470020704703B50846694609888A0607D4090604D505491B
:2068A000897A4143491C88B20CBD00200CBD0000FFFF00001809002001020000F8B5077892
:2068C0000D460446012F19D0072F02D00C2F19D114E0A068216906780B2E0BD0052006F0A2
:2068E000EEFD052E0ED0782300220520216906F041FD07E0782300220620F8E705202169A4
:2069000006F0DDFD002D0ED0002028702946204604F0AEF9FE482978C05D884201D10320B1
:20692000F8BD0220F8BD0021204604F0A1F90020F8BD70B50E460C462036317901208AB0BB
:206940001546002909D0012905D12978042902D10520107000200AB070BD6068019005A887
:2069600002900D21C01C0FF03DFC032205A8A1680FF0DBFB01203071062069460870206AFA
:20698000049029466846FFF799FFE4E770B50C46154620310A790120062686B0002A2CD09E
:2069A000012A28D12978042925D169681022A06801F0B4F96868C07B000606D5D44AA06834
:2069C0001023103A014601F09EF91022A168E06801F0A4F9A068C07B000606D5CC4AE068D8
:2069E0001023103A014601F08EF92E70A0686860E068A860002006B070BD60680190C44835
:206A0000203802900120087168460670206A049029466846FFF752FFEDE7027B032A06D0F8
:206A2000002224235A540B78092B02D003E0042070470A76CA61027B9300521C0273C15049
:206A400003207047F0B50E4615460C462036024631790120072393B000290CD0012924D0BD
:206A600002292ED0032904D12978042901D12B70002013B0F0BD01203071606800280DD092
:206A8000A1690B7060684860206988606069C860206A08621046FFF7C0FFEAE70620287011
:206AA000206968606069A86009E029780629E0D102203071042028709548203868600320AB
:206AC000D7E729780429D4D1A08910280AD9103880B2A081A1681023091805A86A6801F0D9
:206AE00012F923E010282FD0C2B21020801AA1680DAF1190C0190FF018FB11980006000E05
:206B000006D0401EC1B28020785438460FF06AFB626910230DA909A801F0F5F8102309A958
:206B200005A86A6801F0EFF8032030716068019005A80290062069460870206A04902946C8
:206B40006846FFF7BBFE94E710232269A168E2E7F0B50E460C4620363179012006278FB0F5
:206B6000154600290BD0012932D0022905D12978042902D10820107000200FB0F0BD217D16
:206B800008A8CA07D20F02718807C10F08A801716846027041700722801CE1680FF0C5FA02
:206BA00002A80722013021690FF0BFFA606805900AA8069010236A46A16801F0A4F8012050
:206BC000307168460774206A0890294604A820E029780429D1D1062205A8E1690FF0A5FA81
:206BE00006A806220230A1690FF09FFA002008906068019009A80290102305AA696801F0F3
:206C000082F80220307168460770206A049029466846FFF753FEB0E770B50D460C462035DA
:206C2000297901208CB01646002909D0012905D13178042902D10920107000200CB070BD9C
:206C40006068019006A802900822E1680FF06DFA082208A8A1680FF068FA0120287106209E
:206C600069460870206A049031466846FFF726FEE4E770B50D460C462035297901208CB0A7
:206C80001646002908D00129D8D131780429D5D10A2010700020D1E76068019006A802902D
:206CA0000822A1680FF041FA00200890099001202871062069460870206A049031466846CC
:206CC000FFF7FCFDBAE730B50B4620331C7901208BB0002C09D0012C05D11178042902D119
:206CE0000B20107000200BB030BD4868019005A802908C6868462578057564784475CC681F
:206D0000257885756478C47500200690079001E0286701000890012018710623684603707D
:206D2000086A049011466846FFF7C8FDDBE770B50C462034034625790120002D0AD0012DC3
:206D400014D0022D05D111780A2902D10C201070002070BD01202071C868052202704A6895
:206D60004260F84A8260921CC2600BE015780B2DEFD102202071C868042404705268426032
:206D80008A688260096A016201461846FFF745FE70BD30B5011D0246313294780325837960
:206DA000ED432C4323408371DB070DD04B79547923404B710B79127913400B718278C97855
:206DC0008A4200D9817030BD00224A710A71F5E7F7B50C4686B000206946264608702036BF
:206DE000317901271E2015461F2977D24B007B449B885B009F441E0017023E0256026902F2
:206E000088029A02D102F5022E03590371037F03AE03C303CC03F7031A0464049A04AB04EC
:206E2000DF04FE0410052A0565059B05C605830587058B056069002802D0007813287DD0ED
:206E4000A0680590002849D0012168460170206A04900321684601710A214171E0690290F9
:206E600020790028EFD0059909780029E7D00C2964D20B000FF0C8FB0CFD1A4B90B5E8FCC4
:206E8000FBFAF9F807FD022828D16069002802D00078082852D1022168460170206A0490F7
:206EA00005984178684601710021B9E20620216A06F005FB20790728E6D1606900F050FF72
:206EC00002280CD0606900F04BFF042807D060690028B8D000780128D6D103E01BE261693B
:206EE0000120087005980079C11F0A2901D30A2050E06169072288706069059930300FF0F1
:206F000014F90120307161690320087034E00728BAD16069002896D001780929B4D105994A
:206F2000C978890707D1059949790029DFD1059989790029DBD105994A7900E04EE2014642
:206F400020314B7D9A43D2D1059A8B7D92799A43CDD1059A1279D31F0A2BC8D2097991422B
:206F600036D80722C01C05990FF0DFF80120307161690A200870032069460870206A0490F4
:206F80006069313001906069001D029060691C300390A1E22076F2E311288DD1606900F0D8
:206FA000DFFE042804D0606900F0DAFE0B2893D16069059910223730491C0FF0B6F86069F1
:206FC000017804297CD12421095C8278914201D90620DFE705210170032030716846017007
:206FE000E2E3112894D1606900F0BAFE062804D0606900F0B5FE0C288AD1E068002813D06D
:207000002069002810D060690178062910D00D2101706069059910225730491C0FF085F8EE
:207020006069573009218CE100206946087072E1072101706069059910224730491C0FF0C2
:2070400074F860694730EDE70228F0D1606900F087FE0028EBD0606900F082FE0128E6D08C
:20706000606900F07DFE05E0B1E08DE06CE02AE00AE0D6E00828DAD0052168460171059846
:2070800041786846417146E11128D0D160690028CDD001780E29CAD1C16A4078022810D010
:2070A0000020142250431430085805991022491C0FF03BF80520216A00F040FE0F205EE091
:2070C000F1E10120EDE70B28B1D160690028AED001780F29ABD1C16A4078022826D0002075
:2070E000142250430C300958059842780A70807848706069C16A4078022819D00020142294
:2071000050431030085805990822C91C0FF00DF80520216A00F012FE60694178022909D055
:2071200000220832825C5208520073E00120D7E70120E4E70122F4E7012100E000210831F1
:207140004254BCE30267010011289CD16069002899D00178102996D1C16A4078022811D089
:207160000020142250431830085805991022491C0EF0DBFF0520216A00F0E0FD11206169F9
:207180000870B4E30120ECE7082884D1606900289DD00178112997D10599C06A49780170F4
:2071A00060690599C06A0622401C891C0EF0BDFF0520216A00F0C2FD60694178022904D07B
:2071C00000220832825CFD2323E00122F9E71128BBD160690028BBD001781229B5D1C16AA9
:2071E0004078022819D00020142250431C30085805991022491C0EF098FF0520216A00F0C5
:207200009DFD60694178022909D000220832825CFB231A40022991D18EE70120E4E701228B
:20722000F4E70720B6E6287801288ED16069696814221C30F9F7C8FF6069017F002901D072
:207240002176ACE30178032901D0032037E00227C77081794907490F8171017A4907490F41
:207260000172417A4907490F41726069FFF791FD377196E228780F28E3D10720694608703F
:20728000216A0491916802916946087161690722C91C02980EF049FF6169042008700020DC
:2072A0003071BBE028780328CBD1606901780529696807D0082247300EF037FF0420307179
:2072C00005206FE208225730F6E728780328B8D1606901780529696811D008224F300EF08D
:2072E00024FF052030716069006A00280AD002202870002028716069006AA860F9E00822BF
:207300005F30ECE704204DE22878022899D12879002801D0207642E36069A9680162606929
:20732000002901D1F949016206200BE228780F2887D1A868E0616069017805292BD0473038
:2073400007213171E16802220A706269126A4A60886060693030C8606069C01C0861626979
:20736000087D926A400812784000D207D20F104308756269926A521C8A61FD221040626996
:20738000D26A1278D207920F104308756069C06A401CC86153E25730D2E728780828BAD195
:2073A0006069017805291AD00B210170072069460870206A0490E06902901120087102984B
:2073C0000321017051681022401C0EF0AEFE00216846FFF773FA00203071E06187E2062163
:2073E000E3E728780F2896D1072069460870206A0490A8680290112008710298042101709D
:2074000061690A78072A0ED0002232710C220A7061691022401C47310EF087FE0021684682
:20742000FFF74CFA63E21022401C57310EF07DFE00216846FFF742FA0A203071E168032004
:2074400008706069006A486060695730886060694730F3E128780828A1D16069696810227F
:2074600037300EF035FE002801D0042092E560690078072817D00A203071E16803200870DA
:207480006069006A486060695730886060694730C860206A08620698FFF7BFFA074660691A
:2074A000FFF777FC6BE208207AE1287809289AD10B20307161696868897810224018511AFB
:2074C0000EF090FE082069460870206A04906868019060698078087268E129780D29BBD16B
:2074E00061698979C90703D00C20307109203EE03071032770E228780E28ADD16069142299
:20750000291D1C30F9F760FE6069018DC06A4172090A817260698178C06AC1716169CA6A35
:20752000081D117AC909C90111724379626919438378D26A9B079B0F012B00D0002300797E
:207540009B01C00003431943117260694078012876D0B4E160694178022901D0012100E0A5
:2075600000210831405CC00707D00E20EAE069460870206A1146049019E11320B8E7287877
:207580000F2894D1A868E0610F2030710520EEE7287803288BD16069C16A4078022801D066
:2075A000012000E000201422504310300858082269680EF0BAFD10203071E16806202269C6
:2075C00008706069406A48606069C36A4078022801D0012000E000201427784310301858A8
:2075E000CA6088602BE128780C2886D16069C26A4078022801D0012000E0002014214843B9
:207600000C30105802230932696800F07CFB11203071E168052008706069006A48606069D2
:20762000C06A093088603948001F07E128780B28A7D161694878CA6A022802D0012001E070
:2076400059E1002014235843143010588A7869680EF06BFD60694178C26A022901D001214D
:2076600000E000211423594314315258817850181022511A0EF0B6FD072069460870206AC0
:207680000490E0690290112008710298062101706169CA6A4978022901D0012100E00021C1
:2076A00014235943143151581022401C0EF03DFD00216846FFF702F90020E06112206FE0A1
:2076C00028780F2891D1072168460170206A0490906802900B22684602710298017061695F
:2076E000CA6A4978022901D0012100E00021142359430C3151580A7842704978817061690D
:20770000CA6A4978022903D0012102E008670100002114235943103151580822C01C0EF020
:2077200004FD00216846FFF7C9F826E760694178022901D0012100E000210831405C8007B8
:2077400003D5142030710A2011E71620D0E628780F287AD1A868E061072069460870206A23
:207760000490E0690290112008710298082101706169CA6A4978022902D0012101E011E10B
:20778000002114235943183151581022401C0EF0CCFC00216846FFF791F80020E0611520CB
:2077A00030710A2069460870206A049029466846FFF784F82BE028780F2846D1072069465B
:2077C0000870206A0490906802900820087102980921017061690622C96909784170616993
:2077E000801CC969491C0EF0A0FC00216846FFF765F8AAE760694178022901D0012200E088
:2078000000220832805C400703D51720C8E70746B5E0012953D070E028780F2815D1A868DF
:20782000E06118203071E168052008706069006A48606069C06A09308860F848C860206A67
:2078400008620698FFF7E9F8E1E76FE028780B286CD16069C16A4078022801D0012000E07A
:207860000020142250431C300858102269680EF05CFC072069460870206A0490E0690290D3
:207880001120087102980A2101706169CA6A4978022901D0012100E00021142359431C310A
:2078A00051581022401C0EF040FC00216846FFF705F80020E0616069407801281DD1192063
:2078C00016E660694278022A09D0002108314118097800290DD0CA0703D00E2106E001210F
:2078E000F4E7890701D5102100E012210170002772E0012A01D00D20FAE51C20F8E51D20BB
:2079000030710B2033E62978102948D1F0E560690178012943D0082941D00021317100F046
:2079200019FA0C2069460870206A049037E028780F2805D01020107003271B2030714BE01F
:20794000072168460170206A0490A8680290022168460171029805210170217E417000213B
:207960006846FEF7ABFF0B2168460170206A049029466846FEF7A2FF07461B203071012F45
:207980000DD029E0012168460170206A0490042168460171217E41710020207612E0207EC6
:2079A00000280FD06169132008701A2030710A2069460870206A049029466846FEF77EFF72
:2079C000074609E06069002801D01421017068460078002800D021E5384609B0F0BDF7B555
:2079E0000F4620373879012686B00C46002804D0012828D002281CD197E02079012804D03A
:207A0000022811D0032814D10AE0A068407801280ED10620216A05F02CFD00287FD10CE066
:207A2000A1681320087008E0A0684178022901D0052674E00078082871D1012038710A2090
:207A40006946087033E0089800780F2867D1072168460170206A0490089885680295227941
:207A60000220012A04D0022A29D0032A57D10FE00646684606710B202870207B0021400745
:207A8000400F68706846FEF719FFA068067045E006466846067105202870207B687000219F
:207AA0006846FEF70BFF3E710B2168460170206A049068460899FEF701FF06462FE06846B4
:207AC000017101202870207C6870607CC007C00FA870A07C4007400FE870E17C2971C007B5
:207AE0001FD0207D4007400F6871607D4007400FA87100216846FEF7E1FEA06807222946BC
:207B000030300EF012FBE068017AA06820300171A16828798870A168092008700026304685
:207B20005BE70020A8716871E3E7A16814200870012168460170206A0490042168460171CE
:207B4000217B41710021FEF7B9FEE7E7F0B585B00F4605460124287B800040198038C66F34
:207B60003078411E0A290AD22C498000323140188038C36F3A463146284698470446002C9B
:207B800001D0012C11D1287B401E0006000E287301D00324DFE70D2069460870306A049015
:207BA000002101966846FEF789FE032CD3D0204605B0F0BD70B515460A460446294610466A
:207BC000FFF7C4FF0646002C0FD0207814280CD1207E002806D000202870204629460C307F
:207BE000FFF7B4FF204600F0B5F8304670BD704710B5012903D0022901D0052010BD41701E
:207C000000F0A8F8002010BD002809D0027E002A06D00A4601460C31CCE700000667010071
:207C20000120704730B5044687B00D46062005F046FC2946052005F042FC2078142805D0E6
:207C40000020694608702046FFF7DEFF07B030BD7FB50E4600216A4611730178092903D0A5
:207C60000A2903D0002407E0446900E08468002C02D0217E002912D0154601462846FEF7CD
:207C8000CCFE032809D1324629462046FFF792FF6946097B002900D0042004B070BD2546A5
:207CA0000C35EAE700B50023012285B005280CD0062808D168460270049102210171437174
:207CC0000021FEF7FBFD05B000BD6846027004910271F4E710B590B00C4605216A46117073
:207CE000019022480290001D03900AA96846FFF7AFFF002805D1102220460B990EF015FAFB
:207D0000002010B010BD30B505E05B1EDBB2CC5CD55C6C40C454002BF7D130BD10B5002400
:207D200009E00B78521E5B00234303700B78401CDC09D2B2491C002AF3D110BD70B50C4654
:207D4000054605F0BCFB782300222146284605F011FB70BD4178012900D008210170704768
:207D6000002801D000787047082070470067010038B50446002069460870204609F053FD67
:207D8000002803D1FBA1A3200EF04DFB204609F099FC002803D1F7A1A8200EF044FB684607
:207DA000007838BD70B5F84D002428462C7720308471C47101F09AF928464038047020300F
:207DC0008473847484772C75AC7170BD10B50C46EE4982888A8042884A800078087008469A
:207DE0000E38847009F050FC08F0FDFFFFF7DAFF20460BF013F8E449A8310846813809F0CF
:207E0000ADFEE2480CF021FBE0480A3808F0FEFF002803D0D7A1C5200EF005FB01F066F970
:207E200010BD7CB50E461D46144601A909F008F8002807D10AF091FB022803D1D248007D75
:207E4000002801D001207CBD01988030807C09F04DFC00280CD0684609F052FC0028F2D065
:207E6000002C03D009F011FCA04206D200207CBDC0A1C7480EF0D7FAF8E7009809F0D8F86B
:207E80003146009809F0DBF8E2B22946009809F0F0F909F045FC002804D1BD48B5A11E30AA
:207EA0000EF0C1FAB94C00250E3C6068A0304179002902D045710BF0D8F860688030458387
:207EC000C0E730B40179002904D0012907D030BC00207047831D42880488022103E0428816
:207EE0000488831D0121204630BC9AE7F8B51D4614460E4607460AF030FB022803D0A2484A
:207F0000007D002823D0A1480E3841684988398040688030807C09F069FD002804D1532044
:207F200094A1C0000EF07FFA684609F069FD00280DD0009809F0BAF83070022808D00128B5
:207F400006D093488BA167300EF06DFA0020F8BD2946009809F0A4F92080002804D15520C4
:207F600084A1C0000EF05FFA09F05DFD002804D1874880A160300EF056FA0120F8BD38B5E4
:207F80000446831D821C6946FFF7B0FF00280DD00020607168460078012808D0022806D0E8
:207FA000FF2074A101300EF03EFA012038BD2071FBE7F8B50AF0D1FA744D734C0E3D022836
:207FC00002D0207D00287DD0207F0026102818D1A079002803D067A16E480EF024FA686819
:207FE00001464030827F92070BD5267249886181C17F2173018CE181408C20820120A071A2
:208000002677614F203FB87C00285ED1686869468030807C09F007FC002805D06946687876
:2080200009784018687004E05A4852A119300EF0FAF9207D00283AD0686841885248403862
:20804000806D4088814204D00F204AA1C0010EF0EAF968688030807C09F0C8FC002804D1E2
:208060004C4844A124300EF0DEF909F0EEFC00281DD068688030807CFFF77AFE6978401843
:20808000687041484038806D4030417A01290DD12670696849886180807A20710120B877F3
:2080A000207F102801D0282800D126772675697800290AD06868428833484038C28601877E
:2080C000012000E001E0B8746E700AF029FA002805D1207D002802D0A878FAF7F9F8F8BD4B
:2080E000F8B50446FFF765FF274D0026203DA87E002808D0667010202070E87EA070287F5F
:20810000E070AE769AE0204F403F3878002808D02C22B91C20460EF008F80E2020703E70E0
:208120008CE0A87B184F002815D0387F102808D0282806D0002804D0FF200EA1C2300EF095
:2081400072F90120E070E87BA070287C60700F202070AE7372E00121204609F099FC0028EC
:208160001AD0387D002857D10021204609F090FCF8BD00007372635C6C6C5F6374726C2E91
:2081800073302E630000000094090020720000204F02000062070000A97CF8480090F8486D
:2081A000002910D0017805290DD2491C017066700D202070012028750622A01C00990DF08F
:2081C000B4FFAE743AE0EE480670B879002812D0387F002804D00120EA4940020EF023F966
:2081E00066700120E54920700A221431A01C0DF09CFFBE7122E020460CF083F800281DD1E1
:20820000A87C002802D0DE480178CEE7A87F002802D0387D002801D00020A9E7387F00288E
:2082200003D0D849D8480EF0FEF866700A20207006223946A01C0DF078FFAE77012097E70B
:208240004EE710B5CD4C343C2178002904D013210E2000F052FF10BDC9490088091D08F0DD
:20826000EFFD002801D0022007E0C5484068014620318A79012A02D00C20207105E00022FF
:208280002271097E21724088E080012060711321E1700E21A170207010BDB84810B53438C4
:2082A0000178002904D024210E2000F026FF10BD012101702422C2700C220271417110BDC8
:2082C00070B5AE4C0546343C2078002804D03E210E2000F012FF70BD0AF03FF9002808D142
:2082E0000AF03EF9002804D1A4480C30007F002801D00C2003E0287809F033FD0020207127
:20830000012060713E21E170207070BD9B4810B534380178002904D03C210E2000F0EDFE0E
:2083200010BD00210171012141713C22C270017010BDF8B5914C343C2078002804D03B2151
:208340000E2000F0DAFE13E70020A0710AF005F98A4E01250C36022802D0307D002840D0E3
:20836000874F694678688030807C09F073FA002803D1844985480EF056F8307D002806D0F9
:20838000A06D4030407A002801D0012600E0002678688030807C09F029FB002804D17B4817
:2083A000784908300EF03FF809F04FFB68403146014316D07968FD2249882181217E4000B1
:2083C00049084900314311400143217668460078002802D00420014301E0FB200140217607
:2083E000A5710020207165713B20E0702570BFE610B5624C343C2078002804D00E21084607
:2084000000F07BFE10BD5E4906220831A01D0DF08CFE00202071012060710E21E170207027
:2084200010BD70B5554C0546343C2078002804D038210E2000F061FE70BD50480C30007F04
:20844000002807D00C202071012060713821E170207070BD287809F072FC28780CF05BF910
:208460000020F0E770B5454D0446343D2878002804D037210E2000F040FE70BD3F480C3053
:20848000007F002801D00C200AE03D4E218870684088884203D10AF060F8022807D0022067
:2084A0002871012068713721E970287070BD71687F2020310876487600208876A2788A717B
:2084C000E278CA7122790A72EAE710B52B4C343C2078002804D039210E2000F00EFE10BD8E
:2084E0000AF03BF8032808D00AF03AF8032804D022480C30007F002801D00C2003E01F498C
:2085000000202C31C8712071012060713921E170207010BD70B5194C0646343C2078002814
:2085200004D03A210E2000F0E8FD70BD0AF015F8032808D00AF014F8032804D00F480C303A
:20854000007F002801D00C2011E00C4D2C35E87908280BD20001001910223146683000F013
:20856000D6FDE879401CE871002000E007202071012060713A21E170207070BD880900204E
:2085800064000020748100002102000017080000F8B5FA4E04463078002804D03D210E20B1
:2085A00000F0ABFDE4E5F5484030007F002801D00C2034E0F24D218868684088884203D1D7
:2085C00009F0CBFF022801D0022028E06F686488FD883A896800B988401C844218D3E948C1
:2085E00041431046E84A50430DF019FE401EFF2180B2F531884200D90846844200D2204603
:20860000691C401C0DF00BFE6D1C6843401E85B2E620C05D002800D1BD84F5800020307117
:20862000012070713D21F1703070A1E5F8B5D34C05462078002804D035210E2000F05DFDDA
:2086400096E5CE484030007F002801D00C2016E0A878002801D0012804D1A888FF21F531F2
:20866000884201D912200AE0C54F298878684088884203D109F071FF022807D00220207112
:20868000012060713521E170207071E5796800260846C0310E70AA884A800122A030027135
:2086A000AA78012A00D000220A704079002801D00AF0DBFC2671E3E770B5B04C0546207819
:2086C000002804D030210E2000F017FD55E709F044FF002804D1A9484030007F002801D0CD
:2086E0000C2003E028780AF0E0FB00202071012060713021E17020703FE770B59F4C0546A0
:208700002078002804D033210E2000F0F6FC34E709F023FF002804D198484030007F002837
:2087200001D00C2018E02978002911D00A290FD014290DD01E290BD0282909D0322907D0EF
:208740004B2905D0642903D0FF2901D0122003E028460AF023FC00202071012060713321E4
:20876000E170207009E770B5844C06462078251D002804D032210E2000F0BFFCFDE631468B
:20878000002009F0AEFA2870002805D17C480622314608300DF0C9FC012060713221E1708F
:2087A0002070EAE670B5754C2178002904D031210E2000F0A2FCE0E60021415601250429FE
:2087C00012D0002910D0081D0ED0001D0CD0001D0AD0001D08D0001D06D00A3004D00A308B
:2087E00002D01220207103E0084606F079FD65713120E0702570C0E6FEB5604C0746207851
:20880000002804D025210E2000F077FCFEBD3888694608F015FB594D0146002008350029E0
:2088200004D002212171286028710FE00098009E0A30019060360020B07105222846019998
:208840000DF073FCB0790028F5D13888E0800E20A0702520E070012060712070FEBD10B5A0
:20886000464C2078002804D005210E2000F045FC10BD0020207108F008FFE08008F0D1FFA8
:208880002072012060710521E170207010BDF1B53A4C2034A07B002804D010210F2000F099
:2088A0002CFC65E4354D4035A8790C261027002816D1287F002813D109F04FFE022824D19F
:2088C0002F4800994068098842888A421DD10146C0310A7A002A05D04030807F80070DD439
:2088E000E6730EE05E22125C920707D406220A72A0304079002801D00AF0B7FB2F77002037
:20890000E07327740120A07332E40220F8E710B51A480178002904D00F210E2000F0EDFB4B
:2089200010BD00210171FF2181710021C943018113490E310A7882728A8882814988C181DD
:20894000012141710E2282700F22C270017010BD10B50A4C2078002804D02B210E2000F067
:20896000CCFB10BD0821A01D04F024FB00202071012060712B21E170207010BD5409002050
:2089800064000020C40900001027000070B5FA4D04462878002804D02A210E2000F0ADFBEC
:2089A000EBE5F54810222146303800F0B0FBF2481022A118203800F0AAFBEF4830380CF061
:2089C000BCFBED49102210392C46A81D00F09FFB002020710E20A0702A20E07001206071F3
:2089E0002070CAE5F8B50546E348E34C40300090007F0C2628272034002801D0E6733EE022
:208A0000A07B002804D028210F2000F076FB04E4A87805280DD013280BD0142809D01528EC
:208A200007D01A2805D0292803D03D2801D03B2803D12888D149884201D912201EE009F020
:208A40008CFD0228DAD1CE482A8840684188914213D10146C0310A79002ACFD1AA784A7166
:208A600001220A710099A0300F770021E1734079002804D00AF0F9FA01E00220E073277461
:208A80000120A0735FE4F8B5BB4F064638783D1D002804D017210E2000F02FFB53E4314628
:208AA000012009F01EF901242870002807D1B24806226030314605460DF037FBAC717C711B
:208AC0001720F8703C703EE470B5AB4C06462078002804D00B210E2000F00FFB4DE509F0AE
:208AE0003CFD032808D009F03BFD032804D0A2484030007F002801D00C2016E03378002B40
:208B000003D0012B01D012200FE09B4DE035297A082909D22846721C0C3006F097FB287A56
:208B2000401C2872002000E007202071012060710B21E170207020E510B58F4C2078002823
:208B400004D00A210E2000F0D8FA16E709F005FD032808D009F004FD032804D086484030F4
:208B6000007F002801D00C2002E000F0BFFA00202071012060710A21E1702070FDE610B56F
:208B80000AF032F9002803D07E497F480DF04BFC08F04BFD0BF051FC002804D01720794966
:208BA00040010DF040FC08F0ACFF002804D0B920744980000DF037FC00F098FAFFF7F2F8F4
:208BC0006D4800210171012141710222C2700170D3E610B5684C2178002904D020210E207B
:208BE00000F08BFAC9E601781F290ED8411C0CD0002121710278411C104609F08FF80120F0
:208C000060712021E1702070B7E612202071F6E7F8B5594C2178002904D01B210E2000F0E2
:208C20006CFABFE401216171534E0C2121714036317F00296FD10078514F0025012804D00E
:208C400000284AD01220207165E009F086FC002803D109F085FC002804D009F07EFC022840
:208C600022D058E008F08FFF002854D0307D002851D1786801224580032108F0B4FB78688E
:208C800009F05AF97868923008F001FD002803D13C493E480DF0C7FB0AF00BF9002839D0FB
:208CA00085203849C00015E009F05AFC002832D1707F00282FD001282DD004282BD008F004
:208CC00062FF002827D00AF0F4F8002822D02F482C4918300DF0A7FB1CE009F03EFC0328E7
:208CE00004D009F03DFC03280FD014E000200AF005F800280FD12571307D00280BD178682A
:208D00008030807CFFF734F805E0002009F0F6FF002800D125711B20E0700120207041E4A2
:208D200010B5154C2178002904D01A210E2000F0E4F922E601781F290ED8411C0CD0002138
:208D400021710278411C104608F0FDFF012060711A21E170207010E612202071F6E770B597
:208D6000054E044630780C25002811D018210E2000F0C3F9AAE4000054090020FF0E000049
:208D80006400002074810000D30200002404000009F0E3FB03285AD009F0E2FB032856D00A
:208DA000E14A107F002852D16079002801D001282DD1A079002801D0012828D1A07B00283E
:208DC00005D0012803D0022801D003281FD1607B00281CD0C0081AD16188012080038142BA
:208DE00002D82388834203D9207901280FD119E02079002806D0012814D0022805D00328E4
:208E000005D102E020290BD30CE0A02B0AD22079042805D12088202802D36188884201D9F3
:208E2000122514E0207950776079002802D0012803D00CE0BD4A002105E0BB4A203290797F
:208E4000002804D00121204608F0CEFE05460120357170711821F170307037E470B5B24C5F
:208E60000546403C2078002804D02E210E2000F044F92BE409F071FB0C22022815D1AA4849
:208E8000007F002811D1A9482B8808384168488883421AD10846C030037A002B05D120312F
:208EA000C97E0F2903D0102901D0227103E005210172002020710E20A0702E20E07028880A
:208EC000E08001206071207016E40220F2E770B5954C0546403C2078002804D02D210E20DE
:208EE00000F00BF908E409F038FB0C21022814D18D48007F002810D18C4E2A88083E706823
:208F000043889A4220D1C822125C002A05D13B22125C0F2A03D0102A01D021710AE01022D1
:208F2000A91CD6300DF001F970680421C0300172002020710E20A0702D20E0702888E08073
:208F40000120607120700DE40220F2E710B501780B000DF059FB3F9E9E399E9E599E9E9EE6
:208F60009E3C3F9E9E8752559E9E999E9E9E43299E2D319E9E9E9E359E9E9E955C9E9E475C
:208F80009E4B4F9E21259E6C6064689E709E7F837C788A8D74919E00801CFFF798FF76E0A4
:208FA000801CFFF75BFF72E0801CFFF7D8FE6EE0801CFFF7B5FE6AE0801CFFF729FE66E02F
:208FC000801CFFF706FE62E0FFF7D9FD5FE0FFF7B3FD5CE0801CFFF777FD58E0801CFFF7FC
:208FE00052FD54E0801CFFF7FDFC50E0801CFFF7CDFC4CE0FFF7ACFC49E0FFF788FC46E045
:20900000801CFFF744FC42E0FFF729FC3FE0801CFFF7F2FB3BE0801CFFF7C4FB37E0801C84
:20902000FFF7A1FB33E0801CFFF767FB2FE0801CFFF742FB2BE0801CFFF7F8FA27E0801C87
:20904000FFF7A6FA23E0801CFFF764FA1FE0FFF73CFA1CE0801CFFF705FA18E0801CFFF745
:20906000E0F914E0FFF7C4F911E0FFF762F90EE0801CFFF74BF90AE0801CFFF721F906E0EE
:20908000801CFFF70AF902E0801CFFF7DAF8012073E4002071E470B52349244C0546403943
:2090A000083C0A460126403260682B000DF0ACFA05171A1A04171A000122002108F093F9A0
:2090C000616800220846C0310A724A7209F067FF002803D016A11B480DF0A5F960E4167550
:2090E00088655DE4174812A13330F5E70E490020C031C8612039087270470B4A203A937E16
:20910000002B03D1D076117701209076704730B5134606E0CC18203CE47FD51A44555B1EDC
:20912000DBB2002BF6D130BD940900206C0000207372635C6C6C5F6374726C2E73302E6388
:20914000000000005108000070B5FD4D040008D0012C10D0022C07D0032C05D0F9A170202B
:2091600007E0F8A1672004E02878012803D0F5A16D200DF058F92C7070BD70B5F04D044682
:2091800010280AD0112C16D028468178122C07D0132C0AD0EBA19F200BE0EAA1942008E0A8
:2091A000112908D0E7A1992003E0112903D0E5A19C200DF038F9AC7070BD10B5E04894B082
:2091C000007B002819D0172069460870DC4900A806220D3102300CF0A8FF09A96846F9F74D
:2091E000C2FE0446112805D0002C03D0D5A1BB200DF019F9204614B010BD3220E4E710B51F
:2092000001220023114603F0B5FC10BDFFB595B01D460E460746FFF7F2FF04000AD02078E6
:20922000222804D3A07F8006C00FA84204D1082019B0F0BDC748FBE737216846017047800D
:20924000002D05D00121017146711799817102E000206946087109A96846F9F784FEA07F04
:20926000DF21084069010843A0770020E0E770B50446084620380D4603000DF0C5F90A06BD
:209280000A11232C334249505761FF20ADA1083052E02078202851D1FF20AAA10B304BE0F5
:2092A000A7480178032949D08078132846D02078242843D0252841D023283FD0FF20A1A1A8
:2092C0000E3039E02078222838D0232836D8FF209CA1153030E0207822282FD0FF2099A109
:2092E000193029E02078222828D0242826D0262824D0272822D0292820D0FF2091A11C309F
:209300001AE02078252819D0FF208EA1233013E02078252812D0FF208AA126300CE0207806
:2093200025280BD0FF2087A1293005E02078282804D0FF2083A12C300DF075F8257070BDF9
:20934000FF2080A12F30F7E730B5834C0B88834A022801D0934204D09D1FA54225D2022814
:2093600002D04D88954203D04D88AD1FA5421CD24C88A34219D88B88FF25F435AB4214D843
:20938000022802D0C888904205D0C888724D0A382D1FA84209D2C888904208D0944206D0D2
:2093A0005B1C63438000834201DB072030BD002030BDF0B56A49884245D36A4A0125AD0489
:2093C0001368A84201D398423DD30279002A06D0082A02D8067B082E05D90720F0BD047BFB
:2093E000002CFAD0F6E7002A06D004688C422AD3AC4201D39C4226D3002E06D084688C420C
:2094000021D3AC4201D39C421DD300240CE00568A700ED598D4216D30127BF04BD4201D3E8
:209420009D4210D3641CE4B2A242F0D800220125AD040CE084689700E4598C4203D3AC4271
:2094400003D39C4201D21020F0BD521CD2B29642F0D80020F0BDFFB50022099B002802D0D5
:20946000994205DC58E0002902D1002004B0F0BD0920FBE7845C002C12D087187D78112DB0
:2094800043D010DC2B000DF0BFF80A401726262C2C2E2E363640835C002B30D1521CD2B2E4
:2094A0008A42F8DBE1E71C2D2FDA123D2B000DF0ABF8042C2C121A2C022CD9D1BB78039C7B
:2094C000072B237001D25B0701D40A20CEE7029B01241B7816E0E343DB0708E0012C08D09E
:2094E00013E00620C2E70F2523072D075B19002BF4D03046BAE7029B1B789C0701D50B20CA
:20950000B4E702242343029C2370835C521C9A18D2B28A4202DDABE7192676028A42A9DB2C
:20952000A3E710B504780B46002C1FD001210E4A012C1ED0022C22D0032C2AD125E0000010
:20954000740A00207372635C6761705F636F72652E630000023000007B0C0000FFFF000041
:209560000080010028000020023200000021197011E019708179890903290AD10BE01970C3
:2095800081798909012904D105E019708179890901D0104610BD411C0622581C0CF0C5FD9B
:2095A000002010BD08B51346002806D0FEA00068009048796A468009105C18700622581C8A
:2095C0000CF0B3FD08BD30B50C46097895B0222902D2082015B030BD282369460B704880E7
:2095E000132A03D03B2A01D00720F3E708460A7109A9F9F7B8FC050003D121212046FFF78E
:2096000036FE2846E6E700B595B0232369460B704880108888805088C880D08848819088B0
:20962000088100208881C88109A96846F9F79BFC15B000BD70B50C00064610D0FFF7DFFD97
:20964000050003D1D949DA480CF0EDFEA6802889E0802889208168896081A889A08170BD2C
:2096600070B50E46050003D00021092003F027FF0120D04C022E207324D0032E04D0CC4829
:20968000CA491E300CF0CFFECA4806210D3003F091FCA07C8006800EA074FFF78EFDA08BBA
:2096A00000280ED0002D0CD0830001220021092003F060FE092804D0BD48BC4928300CF0F7
:2096C000B2FE70BDBB480321103003F073FCA07C40218006800E0843A074B6480C3002F0C8
:2096E00015F9DAE77FB501A9012003F0C3FA002804D0AF48AD4967300CF095FEAE4E01A838
:2097000003F0C6FA050002D0052D4CD048E0029CA07F01072CD52046223000906846234624
:20972000628E80882146343301F07BFA0546A07FF7210840A077002D05D0B5422FD09C4840
:209740009A49783029E0E17F480889074000C90F08432021095D4007400FC9000843E0772A
:20976000207828281CD129212046FFF780FD17E04007C4D568462246808821460E32FFF75F
:2097800042FF0546A07FFB210840A077002D07D0B54204D08648854992300CF044FE002513
:2097A000284604B070BD0020FBE7F8B5040004D1ED207E4980000CF036FE72202070606864
:2097C00008250178091F0B000CF01EFF11F90A3D5FF83D0EF8F83E3D3D3D3DF986F93D00CD
:2097E00073487249AA3074E087883846FFF707FD060004D16E486D49B2300CF014FE60782F
:209800000421284360706B4CA07F0843A07721213046FFF72CFDB07F8007800F012801D199
:20982000801EA080384602F057FE3846FBF72AFE3846FAF7C6F93946022003F040FEB07FDE
:20984000EF210840B077F8BD86883046FFF7D7FC002804D156485549D0300CF0E4FD6068A9
:209860008078012804D052485049D2300CF0DBFD60688179304602F04EFF0028E3D06178BF
:20988000294361706168C880F8BD87883846FFF7B6FC060004D146484449E3300CF0C3FDCB
:2098A00060783946284360706068C088308160680089708160684089B081022003F0FFFD40
:2098C0000020B075FFF70EFF0028DDD00120374980020CF0A8FDF8BD80783C2815D000278A
:2098E000022815D00026002804D031482F49F8300CF099FD0021084603F0E1FD0021072004
:2099000003F0DDFD002E05D046E001270026F1E70126EAE76078284360702648817F294346
:209920008177002F38D160688688304601F055F80546807F6168800889798000012900D056
:2099400002210843A87760680622C08A28816068008B68816068408BA8816068C079E87541
:2099600061682846183008310CF0DFFB60680622807B68706168A81C0F310CF0D6FBA87FD5
:209980008107890F304602F090FDA87F8007800F012801D10748868006480178032913D04F
:2099A0008078132814D00BE00302FF014495000013030000740A0020023000000CE00FE006
:2099C000FF20FCA1453084E70120FFF7BDFBF8BD1120FFF7D2FBF8BD204601F02AFCF8BD8C
:2099E000607828436070F8BDF7B505460078002700090C463E4601287ED00022F14902282D
:209A00007BD0072804D00A2878D0EAA1EE482DE1686803780D2B31D006DC042B6FD0072BA9
:209A200036D00A2B6AD106E0122B38D0132B40D0142BF7D1B2E011270726002C72D08088C3
:209A4000A0806968FB238979A171E04905468A7F1A408A77032103F0C5F80421284603F0B1
:209A6000C1F80021284603F0BDF80221284603F0B9F80121284603F0B5F8F9E00127092661
:209A8000002CDBD08088A080686880792072EFE012270E2680882146FFF7CCFDE8E01A27F9
:209AA0000726002CCAD04088A08068680079A071DEE081783C2936D010271E26002CBDD01B
:209AC0008088A0806868C08A20836868C08AE0826868008B60836868408BA0836968207DBB
:209AE000497F4008C9074000C90F084320756968C007C00F497F03E05FE08AE0ADE01CE04A
:209B000049084900084320756968A21DC8790831FFF748FD69682246887B0D320F31FFF7D5
:209B200041FD05E074E019270726002C70D0A271A648F722817F11407DE01B272E26002C4B
:209B400066D0A1806968A21D0879491DFFF72AFD68682030C07A60736868C0780428A07B9E
:209B600019D040084000A073F921084069681F22C9788907490F0843A07369684007C97A0B
:209B8000400FC9000843A073696820460F300C310CF0CBFA6CE001210843E4E71E270E26DE
:209BA000002C6DD0A1806868E21D407AA07169688878C91CFFF7F6FC5AE0287A012805D009
:209BC000022815D080487BA132384FE01D270E26002C55D06888A080A889E080E88920817D
:209BE000288A6081688AA0817848DF22817FA2E712270E266888FFF71DFD002C40D06878EC
:209C00004007400F032833D17048FD22817F92E736E0287A03000CF0F7FC0604101020201B
:209C2000202619270726002C2AD0A1806748A271817F4908490081771AE019270726002C43
:209C40001ED0A180287A012805D00320A0715F48EF22817F6FE70220F8E721462846029AA1
:209C600001F04BFCFEBD532052A100010CF0DBFB0298002C068001D0278066800020FEBD33
:209C800002980680FAE710B5504894B08078132802D0082014B010BD22206946087009A949
:209CA0006846F9F760F904460021072003F007FC2046EFE700B5454895B08078122801D05F
:209CC0000820B5E41E216846017000218170C17009A9F9F748F90028F3D10021072003F018
:209CE000EEFB1120FFF749FA0020A1E400B5374895B00078022801D0032818D11B2108A880
:209D000001730021817369460BA8F9F72CF9002804D1684640781B2801D0032088E400211C
:209D2000084603F0CCFB68468078002801D008207EE40120FFF708FA002079E4F8B5234C40
:209D400003000CF061FC0A068017808080804B356E80FFF7CBFF00282AD1F7F7E9FD0028B3
:209D600026D02221017000210172F7F7C2FDA07F012152E08EB23046FFF741FA050004D1C4
:209D800011480CA12E300CF04EFB287821280FD0F7F7CEFD00281BD0122101700227077240
:209DA00046800020A875F7F7A4FDA07F3843A077F8BD00007372635C6761705F636F7265C7
:209DC0002E630000FFFF000036050000740A0020132229463046FFF7F6FBE9E7A578122DEE
:209DE00006D0132D07D0FA49FA480CF01CFBDFE7FFF760FF01E0FFF746FF0028D8D1F7F7E8
:209E000097FD0028D4D022210170122D07D002210172F7F76EFDA07F10210843C7E70121BE
:209E2000F6E7A07C810901290BD0800904D0E948E74922300CF0F7FA03210020FFF710FC57
:209E4000B6E70221F9E7E348E1492930CDE7F7B514460D0004D1DF48DD4931300CF0E3FA91
:209E600028780827012807D002281FD0D948D84962300CF0D8FAFEBD0098FFF7C0F9060050
:209E800004D1D448D24938300CF0CDFA0220B0751030207060783843607007CD083407C476
:209EA000CD482022817F11438177FEBD0098FFF7A6F9060004D1C748C54946300CF0B3FA00
:209EC000A988C648814208D1EA88824205D1132231460098FFF777FBFEBD814202D1E8882E
:209EE000002809D01220207060783843607007CD083407C4002006E0782300220220009923
:209F000003F038FA0120B075FEBDB34840897047FFB591B01498F8F721FF00285DD1012475
:209F2000684603218471C9028180002201A92046FAF719F9002850D16846152184714902EC
:209F4000818000261C2102A800960CF04DF90120014668461031017000200146684641708D
:209F60008178F9273940891C21438170017A02252943017212998186C6861F2101870C9072
:209F800011980F9001A80B9009AA0BA902A8F9F7B5FE002821D168468F4E808CF0806846B2
:209FA00084718F498180807809AA3840801C41084900684681708586058713A80F900BA93E
:209FC00002A8F9F79BFE002807D16846808C308131460A311498F8F7D4FE15B0F0BD30B56D
:209FE0000C46804995B08C4241D37F49012292040968944201D38C4239D320380022012509
:20A0000003000CF001FB06042F494D535C640021082003F02EFA002802D0112015B030BD22
:20A0200024206946087000A80522A11C02300CF07CF809A96846F8F796FF050002D0082D97
:20A040000ED031E0082300221146184603F092F9082829D05F485E49D6300CF0E4F923E038
:20A060000620DBE76068002803D0884201D21020D4E73D21684601702188418061888180DC
:20A0800009A9F8F770FF05000ED1606800280BD06946098D018007E0206801F079FC02E084
:20A0A000204600F0D8FC05462846B7E73E2007E0857000E0827009A9F8F755FFF3E73420F0
:20A0C000694608702078C0076846F3D0F0E70720A4E730B50C46444995B009688C4201D2E5
:20A0E00010209BE7203803000CF08EFA05042121232132002088FFF782F8002804D0007882
:20A10000222803D2082089E7384887E72521684601702188418009A9F8F725FF050015D11B
:20A120000AA905220231A01C0BF0FFFF0EE006250CE02068002805D0884201D2102505E01C
:20A1400001F01BFC24480025808BA080284665E7072063E720481330704710B520211E4842
:20A160000CF040F80120FEF7EFFF1120FFF705F800211948C943818000218176E121890051
:20A18000818301460C300D310446F7F751FC12480722214613300BF0C8FFFFF70EF8002862
:20A1A00003D00B4912480CF03EF900F0D5FF10BD10B504463C210CF015F8A07F80088000BE
:20A1C000A077202020700020A0752034607010BDB49D00008C050000740A0020FFFF0000F4
:20A1E000012A0000008001002800002002300000FB0600007047FEB50546FF480C46814227
:20A2000007D301208004844205D3FC480068844201D21020FEBD002D02D0012D32D126E0BB
:20A22000F74908220F4668460BF07FFF39462046FFF777F90028EDD1FEF7BFFF060006D078
:20A240000722694638460BF070FF3046FEBD2078002801D0012805D1E94807223946C01DC7
:20A260000BF063FF0021092003F029F90FE00978002907D0012905D0022905D0032903D0B4
:20A28000E048FEBD0720FEBD0120FFF7E9F9DC480C3885760020FEBD10B5D84909688842A1
:20A2A00001D2102093E7D64902460C390B7B0D311846FFF777F9002089E7FFB599B0054615
:20A2C000002069460871087208A9087408751446CA480122C849920400681E46002D05D00E
:20A2E0008D420BD3954201D3854207D3002C08D08C4203D3944204D3844202D210201DB079
:20A30000F0BD2846204318D01F270CAB01AA009728461A99FFF79FF80028F0D10DAB02AA9D
:20A32000314620460097FFF796F80028E7D16846007AC10703D00A20E1E70720DFE780071C
:20A3400005D568460079800701D50B20D7E703AF002D0FD01A20694608731A988873294678
:20A36000F81C1A9A0BF0E1FE0EA903A8F8F7FBFD0028C4D1002C0ED02021684601738673CF
:20A3800032462146F81C0BF0D0FE0EA903A8F8F7EAFD0028B3D19A4908A8007C0C39487011
:20A3A0000020ACE770B504460A2020700D462046F8F7D9FD002805D1392020702946204687
:20A3C000F8F7D1FD70BDF7B500260C4605460B271AE02968B00009580978002903D00129AF
:20A3E00001D00720FEBDA170296806220958E01C491C0BF09AFE277020460299F8F7B3FD54
:20A400000028EFD1761CF6B22879B042E1D800263A270FE0A868B10041581022A01C0BF015
:20A4200084FE277020460299F8F79DFD0028D9D1761CF6B2287BB042ECD80020FEBDF0B594
:20A44000044671A003C897B06B4B0027159114909C4211D369480125AD040268AC4201D3F2
:20A46000944209D32078012809D16168994203D3A94204D3914202D2102017B0F0BD60495F
:20A480000C390A78012A0CD18A88614B9A4203D0002806D0012804D08A7F13079B0F06D1E1
:20A4A00001E00820E9E7D30701D1910701D51120E3E7218A574B0A46203A9A4207D30128D8
:20A4C00075D1002973D1628A002A70D111E0022801D0032801D1A02969D3012809D0484AF0
:20A4E0000C3A5278D20704D0628A002A5FD0B42A5DD8002806D0012808D0022804D003281F
:20A5000055D117E0002518E0022516E0002902D1608A00280CD004256068007800280CD08D
:20A52000012809D0022807D0032805D03548A4E70125F1E7032500E00127207A002806D04A
:20A54000012806D0022806D003287CD105E0002604E0012602E0022600E00326002D01D05D
:20A56000022D14D1002E12D0E068FEF722FF002883D123480C384078800702D02148401E56
:20A580007BE7022D03D1022E5DD0032E5BD0182168460170218A4180218A818085711848D7
:20A5A0000C38007B002803D001286FD104E04AE000216846C17102E001206946C8716846D0
:20A5C000077221780930012937D006210BF00AFE69460E74207D8207C107D20F4007C90FB6
:20A5E0005200C00F11438000014314A8405C6946C873002827D00FE0008001002800002009
:20A60000800A0020023200000706050403020100FFFF0000E13F000009A96846F8F7A3FC34
:20A62000002884D109A96846FFF7BCFE0028A7D1002D0AD0022D08D010E061680622491C99
:20A640000BF073FDC4E7072017E7002E06D009AA6946E068FFF7B7FE002891D11B206946F2
:20A6600008700120887009A96846F8F77CFC002886D108A840791B2819D12B000BF0C4FF84
:20A680000504040707040A00032001E00FE00220FEF75AFD012D0CD0608A002809D0002219
:20A6A00083001146104602F065FE002801D00320E3E60020E1E6F3B5032687B00D460029C5
:20A6C0000AD0FA4885426FD301208004854203D3F7480068854267D30798FEF790FD040046
:20A6E00005D02078222804D2082009B0F0BDF148FBE7A07F8707BF0F002D05D029463846BA
:20A70000FEF722FE0600F0D139460027EA48012907D0022931D0E949E9480BF084FE304602
:20A72000E3E7A27D2946012A02D0827F920701D51120DAE700291BD108216A460497118246
:20A740000592418904AADF48FAF7FDF80028CCD16846008A082801D00320C6E768460188D8
:20A7600001814188418181888181C188C18102A9079801F061FF0646D1E7A17D022916D167
:20A78000807F800613D4002D04D0A07F40070CD4002100E00121079801F08FFF0600BED130
:20A7A000A775002DBBD004E01AE01126B7E7002D16D02A4621460798FEF725FF06461128EB
:20A7C000ADD1A07F4007AAD42046082229460E300BF0ABFCA07F04210843A07700269EE7E7
:20A7E000102082E770B50C460546FEF708FD010004D022462846FEF7E6FE70BDAD4870BD31
:20A8000000B50146143195B0192901D2810707D001461E3104D00A3102D0072015B000BD1E
:20A82000312269460A70887009A96846F8F79BFBF4E701B582B00220694608809E4802AB10
:20A8400000896A460021F9F7E7FE69460988022900D003200EBD1CB50021009102216A464A
:20A860001180934901900968884201D210201CBD914801899348FAF766F8694609880229CB
:20A88000F5D003201CBDF0B50E46884985B0174605468E4207D386480122920400689642DF
:20A8A00004D3864202D2102005B0F0BD1F2F01D90C20F9E7804C8D4226D3954201D3854259
:20A8C00022D3E08803A9F9F758FE0028ECD1287869464873E08803A9F9F730FE0028E3D12C
:20A8E0006946009008780221084369460870497B090703D00821084369460870E0886946AB
:20A90000F9F7B5FD0028CFD169468F80E088334601AA0021F9F780FE69468988B942C3D0A6
:20A920000320C1E71CB50C46002100910191228869460A805E4901900968002801D0884296
:20A9400001D38C4201D210201CBD002801D0002A09D059486A46C1885A48F9F7F4FF6946AF
:20A96000098821801CBD0C201CBD10B50123FEF74DFC2CE4002310B51A461946FEF746FCB2
:20A9800025E430B505464A4895B000680C46814202D2102015B030BD2846FEF730FC0028BD
:20A9A00007D00178222902D3807F800603D40820F0E74048EEE7132168460170458009A9A5
:20A9C000F8F7D1FA0028E5D108AA0A2151567F2901D02170DEE70520DCE7F8B50123044689
:20A9E0001A46194602F0C6F8074601231A460221204602F0BFF8064601231A46042120468A
:20AA000002F0B8F8054601231A460321204602F0B1F80446002F03D128492B480BF003FD74
:20AA2000002E04D1AD20254980000BF0FCFC002D04D125482149801C0BF0F5FC002C04D103
:20AA400021481E49C01C0BF0EEFC22213846FEF70EFC3846F8BD10B50446006800280CD0F7
:20AA60001249884207D301218904884205D310490968884201D2102014E400F071FFA0886F
:20AA80000D4CA083A07E01280DD10021092002F0F0FC002800D00120A17C8909012915D016
:20AAA0000321FEF7DDFD002006E40000008001002800002002300000740A0020B49D0000AF
:20AAC000C6090000FFFF0000B30200000221E8E730B5F74B9A4207D301239B049A4205D3AE
:20AAE000F44B1B689A4201D2102030BD1578EB065B0F042B07D85478072C04D39378102BB6
:20AB000001D8A34201D2072030BDD3785B0702D413795B0701D5062030BDC37FAC075B08DE
:20AB20005B00E40F2343C3770878EF23184013789B06DB0F1B0118430870F1231840137841
:20AB4000DB065B0F5B001843087050780873002030BD30B500240C70C378DB07DB0F0B7025
:20AB6000C578AD07ED0F6D002B430B70C5786D07ED0FAD002B430B7014700179C907C90FA9
:20AB8000117003799B07DB0F5B001943117000794007C00F80000143117030BD70B51446B4
:20ABA0000D460646F6F7C4FE002809D0A2210170142221460830F6F707FBF6F79AFE70BD9C
:20ABC000132229463046FEF7FEFC70BD70B514460E460546F6F7ACFE002809D022210170D5
:20ABE00045802178017261784172F6F782FE70BD132231462846FEF7E6FC70BD10B5AE4C81
:20AC0000207C00280CD1204621461038FDF762F8002803D0A9A1F2200BF005FC0120207428
:20AC200010BD70B594B015460C462C226946189E0A704880002B17D00822194601A80BF0FD
:20AC400074FA68468581102231460E300BF06DFA09A96846F8F787F9002803D1A17F10226C
:20AC60001143A17714B070BD002001900290E8E7F0B50646008A97B080B20D460190FEF798
:20AC8000BEFA04468C48317848380746E83709900B000BF0B9FC0EFCFB48085F8798B8D991
:20ACA000FAF9F8F7F6FC002301221946019801F061FF050004D1FF2080A130300BF0B3FB0E
:20ACC000002C04D1FF207DA131300BF0ACFB387EC00904D078486030C06DA86112E02B201D
:20ACE000694608720BA902A8F8F73DF9002804D0FF2072A13C300BF096FB74490C980BF026
:20AD00008EFAA9617068A862B068E862A07F8007800F012820780DD0252804D0FF2067A142
:20AD20004D300BF080FB324621460198FFF736FF17B0F0BD2528F6D0222806D0242804D0B6
:20AD4000FF205EA146300BF06EFB25212046FEF78EFAE8E7002301221946019801F00AFFCB
:20AD6000060004D1FF2055A158300BF05CFB002C04D1FF2051A159300BF055FB207825283E
:20AD800004D03078012108433070D1E702202870B068A860B068002802D000202871C7E71F
:20ADA0000120FBE72B2069460870434968464C39F8F7D9F8002804D0FF2040A178300BF000
:20ADC00032FB03201BE02A206946087000A81022023071680BF0A9F904A810220230B1680C
:20ADE0000BF0A3F9344968464C39F8F7BCF8002804D0FF2031A189300BF015FB04202870FC
:20AE00000998686094E7B068002804D1FF202BA195300BF008FBE07F400704D5FF2027A125
:20AE200096300BF000FBB06806220A38009033790421019801F0FBF90028A6D0FF201FA178
:20AE40009B300BF0F0FA73E7002C04D1FF201BA1A3300BF0E8FA204622301022054671684E
:20AE60000BF063F928212046FEF701FAA07F8007800F022814D100231A4621460095019880
:20AE800006E04BE1BAE0B0E095E03FE071E05FE1FFF7C7FE11281BD029212046FEF7E7F9ED
:20AEA000E07F317A4007400FC9000843E0773FE70080010028000020400B00207372635C89
:20AEC0006761705F7365632E6300000040420F00A07F000704D5FF20FD49B0300BF0A3FAA2
:20AEE000A07F08210843A07700206086204634300BF078F9E07FFD220146C9071040890FEF
:20AF00000843E077307A2034207011E7002301221946019801F02EFE040004D1FF20EC4981
:20AF2000CD300BF080FA2B2069460872E94902A8F8F719F8002804D0FF20E549D2300BF009
:20AF400072FAE4488188204621300176090A41760E2129702146FC316960017E2974407E59
:20AF60006874DC482C30A860103030346C61E860DEE6002C04D1FF20D549E6300BF053FA54
:20AF80002078212893D93079012802D0022808D103E0E07F04210843E077387E0121084391
:20AFA0003876324621460198FFF7F8FD23212046FEF75DF9BCE601220421019801F01FFCFC
:20AFC0000028A2D0002301221946019801F0D2FD040003D1BE49C0480BF025FA0F20287011
:20AFE000172028716E34AC60A2E60421019801F056FC002889D11020287099E6002301223B
:20B000001946019801F0B6FD050004D18720B04980000BF008FA2E462036307E41064DD5BC
:20B02000A17F8F07BF0FC00713D029468031486F00280ED0027CF37DD207D20F5B001A43A5
:20B040000274486F5108E27F4900D207D20F11430174307E000713D52A468032116F0029D5
:20B060000ED0087CF37DC007C00F5B0018430874116FE27F40084000D207D20F1043087444
:20B08000307E80070BD5F8204259002A07D0012F05D02946307C31311032FEF783FA307E03
:20B0A000C0060BD5F8204259002A07D0012F05D12946307C31311032FEF774FA0523684638
:20B0C0000370357E4570834822216038019A01704178C908C900C91C41704280037245720C
:20B0E000F6F78EFD2078252809D021280BD07A4877495B300BF097F92078222803D922215D
:20B100002046FEF7B4F80021019801F06BFD002800D10DE670486E49633092E674686D4D19
:20B1200020786035092802D00A28F2D10BE0E168002902D02846F7F7E8FE2169002902D0F4
:20B140002846F7F7E2FE21462846F7F7DEFEEFE561485F49883074E65E4810B50422282103
:20B160006030F7F7B9FE5B480024EC30017E4906490E01764038C465FCF739FD55493C3146
:20B1800008461038F6F78BFC52484C30047410BD70B50D46FEF733F8040004D14E484C49AE
:20B1A000A7300BF040F9FF21053128460BF01CF8A07F8007800F01280CD00221284688302E
:20B1C000FCF716FD002804D043484149AC300BF02AF970BD0121F1E70A46014610B5104685
:20B1E0008830FCF71FFD10BD70B5054611200C460870002161702121495D002908D0032949
:20B200000ED0042910D034483149C6300BF00BF920780009012802D9E87FC008607070BD87
:20B220000007000F203002E00007000F30302070EEE7F0B504464068082601789BB0082931
:20B240000DD00B2903D00C294BD101218171606887883846FDF7D3FF05004CD147E0478872
:20B260003846FDF7CCFF050004D11720184940010BF0D9F82878212833D0282833D160680A
:20B2800002210C3000F050FF00282CD060680821001D00F049FF002825D02D21684601701C
:20B2A000478029461022223101A80AF03EFF0FA96846F7F758FE002804D007480449EF3092
:20B2C0000BF0B1F8A87F10210843A877292105E0BCAE0000F40A0020030200002846FDF7EA
:20B2E000C6FF1BB0F0BD607830436070F9E7FE49FE480BF098F8A87FEF210840A8772978BF
:20B3000021290FD061688A79002A02D08978002912D08007800F022849D0F448F2493430FC
:20B320000BF081F8FEF7DEF90028DAD0EF48EE493F300BF078F8D4E7607830436070E87F76
:20B34000C00701D0042100E0032121204155287829280BD03946062002F0B1F8287824285D
:20B36000E0D122212846FDF782FFDBE7002301221946384601F0FEFB040004D1C920DA4942
:20B3800080000BF050F825212846FDF770FF0D2008A90871204609A98830FCF735FC02285E
:20B3A000C0D00028BED0D148CF491D30B8E7607830436070B6E7F7B58AB015460646FDF7F1
:20B3C0001EFF002841D0017822293ED323293CD0C17F490739D4807F8007800F01280DD032
:20B3E000002301220021304601F0C4FB0746C0480290F7F781FD040007D101E00123F0E7B5
:20B40000BA48B94959300BF00EF8002F1FD0883767610298F7F770FD07460298F7F76CFDC6
:20B4200009212170266225710B99E760A160206103A92046FCF70CFC022806D0002804D0BD
:20B44000AA48A94975300AF0EEFF0DB0F0BD002007466061E4E730B5002387B0054601226C
:20B46000194601F087FB04462846FDF7C8FE007822281BD9002C04D19C489B4981300AF05E
:20B48000D2FF0F21684601701721017120466E30029069461A30FCF7B7FB022806D0002886
:20B4A00004D0E520904980000AF0BDFF07B030BD30B5002387B005460122194601F05AFBAE
:20B4C00004462846FDF79BFE00782228EED9002C04D18648844993300AF0A5FF10206946C2
:20B4E000087020468830FCF78FFB0028DED0E9207D4980000AF097FFD8E7F7B50546007856
:20B500000027000982B00C463E4602287ED0072802D00A284AD14AE068680178082907D0B2
:20B520000B2930D00C292ED070486F49D33060E114271A26002C6AD04088A080FDF75FFED6
:20B540000090002804D169486749AF300AF06BFF00980099C07DA21D1831FEF723F8686864
:20B5600008228089E081696820461030091D0AF0DCFD207E01210843F9210840207600982C
:20B580004021807F47E018270826002CD3D08088A080FDF734FE050004D1F720524980008E
:20B5A0000AF041FFA11D2846FFF71EFE23E1002C01D0288BA080287A01287DD0022804D029
:20B5C00003282FD048494B4813E11C270726002CB1D0A088FDF713FE0090002804D1FD2035
:20B5E000414980000AF01FFF287B8007800F0128A07914D040084000A071FD210840297BA7
:20B600004907C90F49000843A07101E0E3E0DFE000988021807F084300998877EBE00121F2
:20B620000843E9E713270B26002C84D0A088FDF7E6FD00900023A0880122194601F09AFA23
:20B6400005460098002804D12A48274960380AF0EAFE002D04D181202349C0000AF0E3FE04
:20B660000098807F8007800F012859D0E86A81788907890F0129A17954D049084900A17144
:20B680008278FD255207D20F294052001143A171E322114002785207D20E1143A171DF22C3
:20B6A00011404278D207920E1143A1710021E171C1782172427900E037E00179607AD30781
:20B6C00040084000DB0F18439307DB0F28405B0018435207FB23D20F184092001043607294
:20B6E000A07A4008400007E0BCAE00000E030000540B002067040000CA07D20F10438A07C6
:20B70000D20F2840520049071043C90F184089000843A0720098007823286CD92621AFE05F
:20B72000A86AA4E701221143A9E7297BFE48022910D017270C26002C4AD0012911D0032983
:20B740001ED004291FD005291DD0F849F8480AF06AFE23E019270726002C4CD00121A171F5
:20B7600005E00121A171E17989088900E171017ECA094906D201890E49000A4302760DE0E4
:20B780000220A07106E0687B0007000F8030A071052918D0E07980088000E071A088FDF7F2
:20B7A0002EFD05460078212825D0232804D0E048DE490C300AF037FEA088002101F012FA3E
:20B7C000222128465DE0E07980088000401CE4E70498068015E0002C01D06888A080287A2D
:20B7E000032828D004280FD005284DD0D048CF4964300AF018FE0498002C068001D0278037
:20B800006680002005B0F0BD15270C26002CDFD00023A0880122194601F0ACF9050004D13A
:20B82000C348C2492A300AF0FEFD0622A11DA86909F0DCF9DFE716270726002CC8D0A088C2
:20B84000FDF7DDFC00900023A0880122194601F091F905460098002801D0002D04D1B44869
:20B86000B24938300AF0DFFD2878C00601D5022000E00120A071009800782328BBD92721E8
:20B880000098FDF7F4FCB6E717270C26002C9FD0A088FDF7B4FC00906D7A002804D1A44858
:20B8A000A2494B300AF0BFFD0621A01D0AF09AFC0020A071207A032108432072FB210840C8
:20B8C0000099C97FC907490F08432072680692D5E07904210843E071A07AE9074008400001
:20B8E000C90F0843E17A2A0749084900D20F1143FD22AB07DB0F10405B001843A072E80609
:20B90000C00F114040000143E17274E710B50446807990B08009012804D04D2083490001CD
:20B920000AF081FDFFF76AF90120694608707E480AA9A0380190201D0290601C0B90684678
:20B94000FCF786F9002804D07948784987300AF06AFD0322601C0B990AF0E7FB10B010BD31
:20B9600010B5714CA03C002805D00146102220460AF0DBFB0120207410BD10B50446FFF736
:20B980003DF969491022A03920460AF0CEFB10BD70B50025644C00281CD06649884207D35D
:20B9A00001218904884205D363490968884201D210250DE0062109F003F9411C07D05A4967
:20B9C0004039C865207E80210843207600E00725284670BD207E4006400EF6E7F3B5002023
:20B9E00089B00D46029000290AD0524885421CD301208004854203D34F480068854214D3E7
:20BA00000998FDF7FCFB060003D03078222815D102E04A480BB0F0BD002D08D1B07FC1090E
:20BA200003D08007800F022801D01020F2E7B07FC10601D4000703D5002D01D00820E9E779
:20BA40003948007EC00712D1F07F400701D50D20E0E7002201231146099801F08BF8070004
:20BA600005D0B07F8007800F022802D00BE01120D0E7002D07D02A4639463046FFF728F85E
:20BA800002900028C6D128488C38F7F735FA040003D126492A480AF0C6FC0A202070099834
:20BAA000206238468830A060B07FFB218007800F012829D0002D4CD002202071381DE060BA
:20BAC00038780007400F20743878C006C00F6074A07C2A788008D2078000D20F1043A074CC
:20BAE0000840F17F01AAC907490F0843A074A878E07469462846FFF72CF8684600792075F5
:20BB000068460078607528E001202071207B2A788008D2078000D20F1043207308402978A2
:20BB20008907C90F89000DE0E00B0020BCAE00005304000000800100280000200230000060
:20BB4000630500000843207324213046FDF78FFB0BE0032020710520207325213046FDF75F
:20BB600086FBB07F4006400EB07703A92046FCF76FF8022805D0002803D0FD49FD480AF06F
:20BB800052FC029846E7FFB581B00A9D06461C461746142128460AF027FB0B980021016015
:20BBA000F8070ED0F44920680968884239D3123028602068143068602068A8600B98216882
:20BBC0000160B80726D56068002803D0EA490968884226D3029900290AD0FC3600280ED04A
:20BBE00031461030FDF79DFC00281BD1606810E0002816D0E86080366068B0670AE0FEF76B
:20BC0000A9FA0146072230460AF08FFAFEF7F6FFDA48E860780707D5D749A0680968884206
:20BC200001D21020EEE528610020EBE5FFB5D44A0E4607CA97B002AB07C3002700970197AA
:20BC40001798FDF7DCFA050005D02878262804D008201BB0F0BDCB48FBE700231A46194658
:20BC6000179800F087FF040004D1C248C04980300AF0D9FBA87F8007800F1690012814D045
:20BC8000022824D0BB48BA4999300AF0CCFB01210022852E31D01EDC002E26D0812E26D03B
:20BCA000822E26D0832E1ED125E0002EEFD121462846199AFEF70CFF0028CAD11998807857
:20BCC000009019980078C007C00F0190DFE71998002808D1DBE7862E11D0882E11D0892E67
:20BCE00011D08A2E11D00720B3E710460EE008460CE002200AE0032008E0052006E0062043
:20BD000004E0082002E0092000E00A200022227101216A461176211D0791002801D0207194
:20BD2000FAE0169801280CD0A66AE06A0222012110900020A0602846173002291AD001212A
:20BD400019E0E66AA06A1090032030702078FB23C006C00F7070B07801221840009BF37061
:20BD60008008019B800018430221B070002070713071DEE70021890009190861681C022A35
:20BD800001D0012100E00021890009190861B0788007800F01285ED1109880788007800F4F
:20BDA000012858D1109800798446109840790090169801281DD0317908A801747179017562
:20BDC00008A8027C6046024008A8007D00990840139010433FD06C491A98884207D301210D
:20BDE0008904884215D364490968884211D210202FE70CAA0DA91998FEF7ABFE08A8007C0C
:20BE000061460840307108A8007D009908407071D6E720463C3021460090F03116980191BC
:20BE2000022834D000211A9B20460C33FFF7ABFE0028DDD12046503021460090F431169834
:20BE40000191012825D0002120461A9B139AFFF79AFE0028CCD110988078400702D4E87FD2
:20BE6000C0072BD0169902A8012914D0109909784900405A21780907490F4900C8408707AC
:20BE8000BF0F2AD0012F14D0022F0FD113E00121C9E70121D8E721780907490F4900405A2B
:20BEA000109909784900C8408707BF0F032F04D004E0022711E001270FE002271698012890
:20BEC0000BD1B078FB210840E97FC907490F0843B07020780007400F30702078102240085F
:20BEE000400020701099D2434978C907C90E114308402070C00623D4022F21D0012F21D020
:20BF00000020A061E0612062606220461830A060E87F40084000E877204606A98830FBF7C0
:20BF200073FE002806D0022804D06F20104900010AF079FA25212846FDF799F9002088E676
:20BF4000032008E020460D211B300AF04BF920461830A060042069460875E87F01210843E7
:20BF6000E87705AA29461798FEF730FED4E70000BCAE00008E05000028000020400B002007
:20BF8000606701000230000000800100F0B587B015460E0004460DD06A48854207D3012046
:20BFA0008004854206D368480068854202D2102007B0F0BD2046FDF722F9070004D0387816
:20BFC000272803D00820F3E76048F1E700231A461946204600F0CEFD040003D15C495D4898
:20BFE0000AF021FA0020002E05D0022E08D0012E11D00720DCE701216A461171A06018E0BB
:20C00000234618336946A36008711022294618460AF08BF80DE021461831A16069460871FF
:20C02000A061E061206260620621284608F0C8FDA0612078C10714D04008400020700220A9
:20C04000694608702046183002907030FBF7DCFD022806D0002804D03E483D4923300AF0B9
:20C06000E2F925213846FDF702F90020A0E770B594B00D460646002B02D0072014B070BD6E
:20C08000FDF7BDF8040007D02078222802D3A07F400603D40820F1E72C48EFE7002D19D0C9
:20C0A0002D216846017046801022294601A80AF03CF8E07F297C4008C9074000C90F084356
:20C0C000E077297C40078906400FC90EC9000843E07703E02E2168460170468009A9684686
:20C0E000F6F741FF694609782D2905D1002803D1A17F10221143A177A17FBF221140A17793
:20C10000BCE710B50C46FDF77AF8002805D00E4909688C4203D2102010BD0C4810BD214612
:20C12000FFF762F8002010BD05E00278401C002A01D0002070470A46491E89B2002AF4D154
:20C1400001207047008001002800002002300000BCAE00000F07000030B50346072903D05B
:20C160000820DA781C7916E00720FAE707290BD05500ED186D79072D01D0401EC0B2521C24
:20C18000D2B20F2A07D105E05500ED186D79072DF3D0F4E700222546641EE4B2002DE5D18B
:20C1A00030BDFFB581B00C461646114620460A9F0B9DFFF7D1FF00280AD020790F2803D383
:20C1C000FEA1A0200AF02FF9A078C00907D019E0072E02D0112005B0F0BDFD48FBE70198D3
:20C1E0002880381D6880002068712871EF80049828812846F6F7DFFE002803D1EFA1AD2083
:20C200000AF011F9E07821794018491CC0B221710F2801D30F38C0B2400000194671817999
:20C22000F12249084900114081710020D3E7FFB583B01C4616460F4600231A4602210C9DEB
:20C24000039800F097FC010008D033463A46019500940398FFF7A5FF07B0F0BDDC48801E69
:20C26000FAE7F0B5054616460F4650888DB000230122022100F07EFC040003D1CFA1DF200D
:20C280000AF0D1F8002069460871A078400603D1CAA1E3200AF0C7F8042F5ED32A78D0075D
:20C2A000C017401C06D161786B78994255D12178090752D00121142A46DA012A42D0122AF3
:20C2C00002D0132A40D128E00C2F3DD1A2785206520E012A38D0207800090001401C20705A
:20C2E000687860706846017168792A790102114368460181E879AA79010211436846418118
:20C30000687A2A7A0102114368468181E87AAA7A010211436846C1811AE0062F14D1207817
:20C320000009000120707188012001F0C8F8022168460171C91E018168792A790102114311
:20C3400068461FE0062F0AD06A461279002A1BD07088324601A9FDF77AFD0DB0F0BD20784A
:20C360000009000120707188012001F0A8F802216846017168792A7901021143684601812A
:20C380000021C9434181E3E70028E6D07488684681766978C176022181830021C18304A815
:20C3A00005220090062311462046FFF740FF0028D3D088A1D6200AF036F8CEE7F7B58CB0FC
:20C3C00015460C990D98F9F7CEF9C0B2082851D1002069468885688800230122022100F018
:20C3E000C9FB040004D1FF2074A163300AF01BF801230021E07822790BE046003619767925
:20C400009E4201D1491CC9B2401CC0B20F2800D100201646521ED2B2002EEED1002902D15B
:20C4200017206946888504AB02330BAA00950C990D98F7F73BFC0006000E07D002281BD06C
:20C44000032817D0FF205DA1893011E06846808D00280FD002A9019100906888042301223A
:20C460002146FFF79EFE002804D0FF2053A1763009F0D9FF0FB0F0BD68781021084368709D
:20C48000F8E70020584902464300401CCA520828FAD370470021817001780909090101702D
:20C4A00000214170C1700171704770B50D4600230122022100F05EFB040004D1FF203FA14E
:20C4C000CF3009F0B0FFA0786906C009C001490E0843A07070BD704710B50146012000F0F1
:20C4E000EEFF10BD3EB58DB2002301220221284600F040FB040004D1FF2030A1E43009F078
:20C5000092FF207869460009000120700220087036488880C88000222846FDF798FC3EBD2E
:20C52000F7B505460078002700090C463E46012804D0FF2021A1F33009F075FF287A03284B
:20C540000CD041201DA1C00009F06DFF0298002C068001D0278066800020FEBDEA8970272C
:20C5600010460A3086B2002C0AD06888A080A8892081E28020460A30296909F0D6FDE5E7DF
:20C5800002980680E8E7F8B543680246D9799C79090221435C7A1E7A25025C88981D354390
:20C5A000241FA14238D11B79022B35D1042D34D0052D3DD0062D34D0402D19E07372635CD0
:20C5C0006C326361705F636F72652E6300000000043000007372635C6C326361705F636F15
:20C5E00072652E6300000000000C0020FFFF000012D3061D0F461446284600F0E9F9082882
:20C600000AD01120207003202072A581E78126616078082108436070F8BD001DFFF7CEFE05
:20C62000F8BD031D50880A461946FEF7C4FEF8BD001DFFF716FEF8BD70B50D4600238CB07F
:20C6400006461A46022100F095FA040031D020780007000F01282ED01220694688746078FD
:20C660000523801CC874082088822888C88268880883A8884883E888888302A90C20019134
:20C6800000901A4621463046FFF78BFD00280ED1F02300223146012000F06CFE2078000980
:20C6A0000001401C20706078801C607000200CB070BDCD48FBE71120F9E770B50D4600239D
:20C6C0008CB006461A46022100F054FA040006D020780007000F012803D00820E7E7C2488D
:20C6E000E5E71321684681746178C17402218182C58202A906200523019100901A4621463A
:20C700003046FFF74EFD0028D1D120780009000120700020CBE7F3B581B00D460023012222
:20C720000221019800F026FA00260446002803D1AE49AF4809F077FE2079A8423BD2AC48E1
:20C74000AA49401C09F06FFE35E0E07841000F19401C7979C0B20091E0700F2801D1002084
:20C76000E0702079401E2071B879C00708D000980199042815D09D498220183109F053FEB3
:20C78000B8790007410F08D0400F019904280CD096498F20183109F046FE009807280AD192
:20C7A00007E00846FEF784FEEAE70846FEF753FEF3E7761CF6B228466D1EEDB20028C4D1FF
:20C7C0003046FEBD10B500230122022100F0D2F9040004D1B5208549800009F024FEE078D0
:20C7E00021794018C0B2E0700F2801D30F38E07000202071A07880210843A07010BDF8B5A4
:20C8000017460D4600231A46022100F0B3F9040005D0002D0CD0002F07D0062006E0072DFE
:20C8200001D00820F8BD0720F8BD0820A84204D86F486E49423009F0F6FD29462046FFF7E9
:20C840008BFC0646002F28D0002E26D1E07821791CE0420012195379072B03D093791B075F
:20C860005B0F04D0401CC0B20F280CD00CE0400000198079F12318406B071B0F18439071F7
:20C8800000290AD104E00020491EC9B20029E0D1574856495A3009F0C6FD3046F8BDF8B578
:20C8A0000D4600231A46022100F064F9040004D14F484E49683009F0B6FD681E052804D35D
:20C8C0004B484A49693009F0AEFD0F21E2782079002310E0560036197779AF4206D1B17938
:20C8E00049084900B1715B1CDBB21146521CD2B20F2A00D100220646401EC0B2002EE9D1FF
:20C900000F2905D24800001981790122114381711846F8BD10B50446402801D2072010BDF3
:20C9200000F056F8082802D03120000210BD0021304802E0491C082903D24A00825A002A61
:20C94000F8D1082903D049004452002010BD042010BD10B5402801D2072010BD00F038F839
:20C96000082805D00021234A40001152084610BD052010BDF0B58BB016460C00074607D008
:20C98000002E05D06188402904D207200BB0F0BD1020FBE72088002801D0172801D90C20E5
:20C9A000F4E7084600F014F808280FD0258803A82A463146023009F0B8FB01A80090628803
:20C9C0002B4607213846FFF732FCDFE70520DDE701460020074A02E0401C082803D243002F
:20C9E000D35A8B42F8D1704702300000BCC50000AD020000000C0020F8B50546E54C079E61
:20CA0000069821706270A370E6702071681C42085200E14B0021880000198446C261605C64
:20CA200040008218002D0AD0002005E066464700F669401CF353C0B2665C8642F6D8491CED
:20CA4000C9B20529E7D30026D21C9708B000BF0000198760304600F042F9A15D761C484395
:20CA6000C219F6B2052EEFD3501B80B2F8BDF0B50546C84F8C460020FF247E5DA900964670
:20CA80000346CF190CE0F9695A008A5AC2498A4204D1401CC0B2FF2C00D11C465B1CDBB2FD
:20CAA0009E42F0D86146002909D100280BD0002D07D0B84949788E4203D2401EC0B20028BE
:20CAC00001D071460C70F0BD70B5B24C8D0000232D19615C09E0EC695E00A45B844202D19B
:20CAE0001370012070BD5B1CDBB29942F3D8002070BDFEB51C4617460D46060008D0002D9E
:20CB000006D0F01C80088000B04203D01020FEBD0E20FEBD002F03D0002C01D0A74201D9D0
:20CB20000720FEBD009423462246394600200194FFF762FF2988814207D0814201D204211D
:20CB400000E0092128800846FEBD009423462246394630460194FFF74FFF28800020FEBD64
:20CB600010B5044600F0C5F8002801D0E0B210BDFF2010BDFFB50546874881B01E460C4600
:20CB8000854204D0052C02D20398022802D3002005B0F0BD002769460F7028466A462146FF
:20CBA000FFF792FF00280ED068460178204600F0A8F8002EECD00028EAD1284600F099F80F
:20CBC000002809D103E03846002EF6D1E0E7FF2072A15C3009F027FC21462846039A00F0FA
:20CBE0009CF8D5E7F8B505460C4600206A4E69466E4F0870B5423BD0052C01D30720F8BDFC
:20CC00000A4621462846FFF75FFF002830D068460178204600F075F8230009F0F5FC050473
:20CC2000090C11161B0001462846FEF7D5FA15E0FDF7E0FA12E001462846FFF74CFC0DE08F
:20CC400001462846F6F7B5FF08E001462846F8F712FC03E056A17B2009F0E5FB4D4A684651
:20CC6000A10000788918C96940000E520020F8BD3846F8BD524A1268914201D2102070477D
:20CC8000052801D3072070470872002048727047F8B504464A480068844201D21020F8BD3B
:20CCA000207A3C4A83009B18617A3B4D125C11E0DE694F00F65BAE420AD04A1C6272DA692E
:20CCC0004B00D25A228000F01CF860600020F8BD491CC9B28A42EBD861720520F8BD0EB5C3
:20CCE000384B40000ECB0091029301926946085A0EBD28494978814201D90120704700203C
:20CD0000704770B50C460546FFF7E9FF214AA900891889686043401870BDF8B50C460646A3
:20CD200000206946134608706A4619462046FFF79EFE002500282BD0164A6846A1000078DD
:20CD40008918C96940000E52684601782046FFF7D8FF0546230009F057FC0504090C0F140B
:20CD6000170029463046FEF713FA11E0FDF720FA0EE0FFF78FFB0BE029463046F6F7E0FEAD
:20CD800006E0F8F771FB03E009A1622009F04BFB2846F8BD100C0020FFFF00007372635C03
:20CDA000686F73745F636D2E63000000023000007372635C686F73745F636D2E63000000A1
:20CDC000280000206C67010010B501462022094809F0ABF907490020C877084610BD0649E2
:20CDE000012048610548064A0168914201D1002101607047400C002000050040780000203C
:20CE0000BEBAFECA8107C90E002808DA0007000F08388008C24A80008018C06904E08008D2
:20CE2000C04A800080180068C8400006800F7047BD4948788978884201D3401A02E0212230
:20CE4000511A0818C0B27047B749233148788978884201D3401A02E02122511A0818C0B2EF
:20CE60007047B149463148788978884201D3401A02E02122511A0818C0B27047A94910B541
:20CE80000C310868FF22120290430122D20310430860A54900202331487088702339487004
:20CEA0008870463148708870A04808F0C8F89F48401C08F0C4F8F5F741FC00F028F910BDB5
:20CEC00020207047B4E770B50C4605460026FFF7AFFF9549A04214D30A46203A002320465A
:20CEE000641EE4B200280BD08878105C287088786D1C401CC0B288702128F0D18B70EEE7EA
:20CF0000012600F004F9304670BD202070479BE770B50C4605460026FFF796FF824923314F
:20CF2000A04214D30A46203A00232046641EE4B200280BD08878105C287088786D1C401CF1
:20CF4000C0B288702128F0D18B70EEE7012600F0DEF8304670BD202101700020704710B5AF
:20CF60000446FFF77EFF2070002010BD70B50C460546FFF776FF6C494631A04215D30A4604
:20CF8000203A00232046641EE4B200280BD08878105C287088786D1C401CC0B288702128F7
:20CFA000F0D18B70EEE7002400E0614C00F0AFF8204670BD70B50C460546212904D9FF20FD
:20CFC0005CA1473009F02FFA55484068103840B2FFF718FFC6B20D20FFF714FFC0B2864247
:20CFE00007D2FF2053A14D3009F01DFA01E0F5F7E8FB21462846FFF766FF0028F7D070BDBC
:20D00000F8B507464948484C401E474E0078254646362335002806D1A9786878212200F014
:20D020006BF800280ED0A1786078212200F064F8002814D0B1787078212200F05DF800283A
:20D0400028D033E038496878C91C0F546878401CC0B26870212829D10020687026E03249DA
:20D06000607820390F546078401CC0B26070212801D1002060702D4F7F1E3878002815D0C5
:20D08000A1786078212200F037F800280ED0002038700BE02449707826310F547078401C31
:20D0A000C0B27070212801D100207070A9786878212200F021F800281DD0A178607821226D
:20D0C00000F01AF8002816D0B1787078212200F013F800280FD0F5F756FB144807F0B7FFA4
:20D0E00001214903884203D016A1C12009F09BF90E4807F0C4FFF8BD401C884205D090426E
:20D1000001D1002901D0002070470120704710B5064807F09CFF002801D1F5F723FB10BD1E
:20D1200000ED00E000E400E0800C00207D000020072000007372635C736F635F72616E6401
:20D140002E6300007372635C736F635F72616E642E6300000C4908784A78401CC0B2904289
:20D1600000D008707047094A074820BF40BF20BF4178037843701368002B02D103788B42A9
:20D18000F3D00020704700007F00002000E200E0FEB5F34C07466068FF213E0181552178BF
:20D1A000FF2913D00901083141583246491E083209020192090A805800F0C8F9002802D03B
:20D1C0002478254615E06168207888552770FEBDE348426801981158280100900830105893
:20D1E00000F0B4F9002806D1DD482C46416800980D5CFF2DECD1DA48210140688555475408
:20D20000FEBD70B5D64A04460020157A53680AE00201561C9E5DA64203D10C329A588A4248
:20D2200004D0401CC0B28542F2D8FF2070BDF8B5CB4F3E7801F013FE0146FF2E68D034010F
:20D24000254678680835405900F080F9022802D9786840595AE0C2494868025D0A70A11C3B
:20D26000425C002A0CD0521E425441590122D20589180902090A41513046FFF789FF30E01B
:20D28000631CC25C0092221D94468258002A10D001239B029A420FD99205920D43595703B1
:20D2A000DB191B021B0A43516346C3589A1A920A09E0FF21C1540AE0435952039A181202D1
:20D2C000120A4251002242543046FFF761FFA4480C344168C26800980959800012580098A0
:20D2E00090479F4C2078FF2812D001F0B8FD01462078626800010830105800F027F90128A2
:20D3000096D92078616800010830085801F09AFDF8BDF8B51C4615460E460746FF2B03D35C
:20D3200090A1D32009F07FF88D48FF21C760456004720674017000224270104604E0020126
:20D34000521C401CA954C0B2A042F8D3F8BD70B5834C06466578207C854203D381A1E620B4
:20D3600009F061F8E068A90046506078401C6070284670BDFFB581B01D46FF2401F06FFD6D
:20D38000774F064679780198814203D875A1F42009F049F872480021037A406810E00A01F4
:20D3A0009446521C825CFF2A24D0019FBA4205D162460C328758029A97421DD0491CC9B2B1
:20D3C0008B42ECD8FF2C17D021014B1C019AC2540B33029AC250039B614F0022012B0ED00A
:20D3E0000B1DC25001239B029D4216D9AA05920D08D008E00C46E1E7FF2005B0F0BD0B1D93
:20D40000C550EFE71A4653039B190E461B0208361B0AAA1A8351920A09E0002D00D10125A2
:20D420006B039B191D022D0A0B460833C550891C42543D463E782046FFF7AAFE2878B042C9
:20D4400015D001F00CFD014628786A6800010830105800F07BF8012807D9287869680001B5
:20D460000830085801F0EEFC01E0FFF7E0FE0198C3E770B50C46054601F0F1FC06462146EE
:20D480002846FFF7BEFEFF2817D0354D04012046696808300858314600F058F80121090323
:20D4A00040186968A41C095D400B002901D089020818002800D1012070BD002070BDF3B5F1
:20D4C00081B00F460198FFF79CFEFF282AD0244D2E7869683246344604E0844205D02646B7
:20D4E0002301CC5CFF2CF8D11CE0FF2C1AD0A6421FD11001085C2870FF2818D001F0AFFC4B
:20D500002A780146120168680832805800F01EF8012809D92878696800010830085801F021
:20D5200091FC06E00020FEBDFFF781FE01E001F091FC39460198FFF79CFF22016968FF230A
:20D54000541C0B558A5C3301CA54FEBD401A00020121000AC905884200D900207047000038
:20D56000CC0C00207372635C736F635F74696D65722E6300F0B500241C4A01211C4B0803F6
:20D58000546018601B4B1C601B4C20601B480469E443E406E617046910252C430461184CDE
:20D5A0006160184D2960761C00E020BF1F68002FFBD0002E03D107691026B74307619068E8
:20D5C0008005906801D5104A10436960A160002119600121084A09031160F0BD10B504463A
:20D5E000FFF7C8FF2060002010BD000000C5004080E100E000C1004080E200E000ED00E0AB
:20D6000000C3004000C0004000FCFFFF70B51F490A68002A17D000231D4601244A68521C32
:20D620004A60092A00D34D600E792246B2400E6816420AD072B60B6893430B6062B649685F
:20D640000160002070BD052070BD5B1C092BE5D30FA1362008F0E7FEF5E7012010498005A9
:20D6600008607047EFF31081CA07D20F72B6012181400648036819430160002A00D162B6D2
:20D68000EBE702480021016041607047840000207372635C736F635F6576742E63000000C8
:20D6A00000E200E0012081070860704701208107486070471048C068C00700D001207047E9
:20D6C0000D488068C00700D0012070470A484069C00700D0012070470748C06970470649B6
:20D6E0008A69D20306D589698907890F814201D1012070470020704700040040F8B5F84CF4
:20D70000207BE17A88421CD00126F64D0027E07A215C14200A4642435019037C052B11D0F3
:20D72000037C062B1CD0037C072B28D0437C012B33D0EDA1EF4808F076FE207BE17A8842C5
:20D74000E5D1F8BD0674E07A0A2807D0E07A401CE072491CC8B2AA5802210CE00020F7E78B
:20D760000674E07A0A2808D0E07A401CE072491CC8B2AA5803219047DFE70020F6E70674AA
:20D78000E07A0A2807D0E07A401CE072491CC8B2AA580821EFE70020F7E74774E07A0A28F9
:20D7A00007D0E07A401CE072491CC8B2AA580721E1E70020F7E770B50024CF4E062070724D
:20D7C000CE4825464477047738300473C472CC4807F035FCCB480575F572CB49601E8860D3
:20D7E0007571B570F57035717570C8486439057045701420604340180574641CE4B2052C68
:20D80000F7D30120F5F764F80020F5F761F80120B071F4F727FDBE48F4F736FDBD4C207062
:20D82000BD48F4F731FD6070F4F7F2FF70BD10B5F5F719F8B74C2078F4F744FD6078F4F7A5
:20D8400041FDAD4C207A002803D0F4F7CAFD0020207210BD70B5A84CA079002804D0A2A15A
:20D86000AE4808F0E0FD70BDE07A002803D19EA1AB4808F0D8FD0126A6710025E572607AC7
:20D88000042114225043974A801801749E488168491C04D0691E81600120F5F719F80020FE
:20D8A000F5F716F8F4F7FAFF07F00AFDF5F7FBF89C480560056001209B49C0030860F5F7E3
:20D8C00071F992480078022804D0032804D1E078002801D0A67000E0A570F5F7D0F870BD51
:20D8E000034680490520142242435218203A127F002A04D0401E0006000EF4D170471422BF
:20D90000424351180A46803AD366012220390A777047012805D0032805D1002903D1002006
:20D9200070470029FBD010B4734C00236370774A002890700CD002280AD007291AD20800D6
:20D9400078440079001887441505070D0F111300D37003E01B2000E03A20D0700120607082
:20D9600010BC70475820F8E77720F6E79620F4E7B520F2E710BC0020704710B5634840784F
:20D98000F5F798F880B210BD411E1422504310B5544A8418203C042902D8207F002803D1E7
:20D9A00051A1624808F03FFD207F012804D0B3204DA1800008F037FD0020207710BD70B5E5
:20D9C0004E4C607F217F884201D1012500E00025F5F709F8F5F76EF8617F227F914201D102
:20D9E000012100E00021A942EBD170BDF7B50746481E84468EB0C0B2142205905043394A76
:20DA000085180495287C2D1D07282AD1344C0026E07A227B824221D0235C059A934201D1A1
:20DA2000012601E0002E04D00A2811D0421CA25C22540A280ED0401C227BC0B28242EBD1FC
:20DA4000002E0BD0207B002806D0207B401E04E00022ECE70020EFE70A202073049A0120E0
:20DA600010746046244C042813D8142041431D4808182038007F00280BD00498007C01289D
:20DA80000BD00498007C012803D01098807A012807D015A1264808F0C6FC1098807A01284C
:20DAA0006FD104980F4B007C022845D00C4C207B0A2872D0207BE17A401C884203D10AA173
:20DAC0001C4808F0B0FC049901204874217B05986054207B0A2864D0207B401C20731CE14F
:20DAE000D80D0020E80D00207372635C72656D2E63000000CF0500006C0E0020A00D002058
:20DB0000780E0020C00D00204C0E00208E0000202FD200008C000020FDD600007D0200004B
:20DB20005E02000000F5004080E200E0CB0200001503000022030000607A059A0146904272
:20DB400006D0014614267043C018807C9042F8D1627A824208D1617A14225143C918897C48
:20DB600061720121A17207E014224243D21814267143927CC9188A74142206215043C0186E
:20DB800081741098007A062819D201007944097949188F440812100E0C0AE07A00288ED0B3
:20DBA00091E700209AE700200FE0B4200DE073200BE0322009E00A2007E0062005E0FF2088
:20DBC000FDA1E03008F02FFC00200290109801680298081A28601099097A002912D0022113
:20DBE000401A0102090A296010980268406810180002000A68601098807A0228109803D02F
:20DC0000007B74E00421EBE7007A002813D0022202981018844610984268604608301618AB
:20DC2000E848029A4078904202D9E278002A04D03046083005E00422EAE7029A801A801902
:20DC40000830627A062A1CD0627A14235A43DE4BD2185268914214D0DC4B0793617A14228E
:20DC60005143D94A89184A688968D21BC91B12020902120A090A90423AD89A4238D89942DF
:20DC800036D83818801B0002000A286010996044CF4AC9680002000A9446421A01239B055A
:20DCA00007929A4201D2104614E00A1A09929A4201D207980EE0079A6346624503D9591A97
:20DCC0000818401C06E0099A624506D9181A4018401C4042002860DC03E0B7A1BD4808F0B5
:20DCE000A2FB286880190002000A6860002028726868082608300002000A68601098407A64
:20DD0000A8721098007A687203280ED200280CD0FFF7D0FC002803D007E0002011B0F0BDAC
:20DD200002983A210E1A32200290A6480178012901D0032909D141780298814205D9E0782E
:20DD4000002802D10298081A861928689F4AC01B844601026868090AC01B03021B0A0293CF
:20DD60008E421AD81346914217D80299994214D8617A062915D0667A61460622039200929F
:20DD80001422914B7243D2189368DB1B8B4216D80396967C062EF3D177E0059801F055F950
:20DDA000BBE70499022205980A74627A062A00D0627A8A7460720120A07211B0F0BD062E88
:20DDC00063D000223146944614227F4B4A43D2185368DB1B834229D2917BAB7A99421FD8B2
:20DDE00004980521059C01747B4D287B0A2811D0287BE97A401C884203D16FA1774808F006
:20DE000012FB287B2C54287B0A2807D0287B401C287382E7E87A0028EFD0F2E70020F7E703
:20DE200001218C46917C0629CED102E0604600282AD03546009114202A4642436248062163
:20DE4000171839741038007B0A28634816D0017BC07A491C814203D157A1614808F0E3FA38
:20DE60005D48017B4554017B0A290BD0017B491C0173BD7C0098A842DDD106E0C07A002858
:20DE8000EAD0EDE70021F3E70096049902204E4D0874607AB04207D104990098887405981B
:20DEA00060720120A07221E00398062E0FD0062803D141A14B4808F0B6FA0398142250432B
:20DEC0004019059981740499009888740EE0062803D139A1444808F0A6FA039814225043D3
:20DEE000401905998174049906208874012011B0F0BD70B50D463D4A441900210B46101AF0
:20DF00008B4103D22CA13A4808F08DFA3948854203DD29A1384808F086FA3848854203DA84
:20DF200025A1374808F07FFA3648844205DA002C01DB204670BD334800E03348201870BD32
:20DF4000401E70B5C0B2142148431F494418607B062813D201007944097949188F44020CD8
:20DF60000A080604002068E0B42010E073200EE032200CE00A200AE0062008E0FF200EA1AA
:20DF8000E03008F050FA617B0020002955D002214018616840180002000AF4F78BFD0C2599
:20DFA0006557124A441900210B46101A8B412FD201A10F482AE000007372635C72656D2E6A
:20DFC000630000008E000020E80D0020FFFF3F00FFFFFF000E070000D80D002007020000BE
:20DFE000C5030000DD030000E3030000FF7F841EF50300000020A107F603000000E05EF884
:20E00000F70300000080841E00807BE108F00BFAFB48854203DDFB49FB4808F004FAFB4861
:20E02000854203DAF749FA4808F0FDF9F948844207DA002C03DB204670BD0421A8E7F54856
:20E0400000E0F548201870BDF0B5064683B0F3480190457A029534687068001B0702F04828
:20E060003F0A001B0090062D2DD0142029464143EC480122081884464168E94892058646D7
:20E08000081B904210D3631A93420DD302467046724503D900984018401C05E073450ED915
:20E0A000411A0819401C404200280CDA60460295857C0198C0790028D5D003B0F0BDD149A1
:20E0C000D94808F0B0F90298854226D014214843D4490123401802908068D1499B058C46C8
:20E0E000011B8646994210D3221A9A420DD36346614503D900997144491C06E019466245B8
:20E100002DD9091A0819401C4142002905DD0298B17A807B814200D37446062D15D0C14999
:20E120001420454368184268121B1202120ABA420BD2B37A827B934200D38468857C01986B
:20E14000C0790028B9D1062DEAD13068A042B4D0E0190002000A3460706003B0F0BDA9492D
:20E16000B14808F060F9D8E7F0B5B0490446486885B0C005C00D1CD0103840B200280CDA03
:20E180000207120F083A920892005118C9698007C00EC1400806800F09E08108A44A890070
:20E1A000891809688007C00EC1400806800F002808D000272078002806D0012804D0002080
:20E1C00005B0F0BD0127F5E72079062813D201007944097949188F44020C0A08060400206F
:20E1E00018E0B42010E073200EE032200CE00A200AE0062008E0FF208249E03008F013F984
:20E2000021790020002905D002214618834D002F02D003E00421F8E70020E871694602AA39
:20E22000A068F4F751FC694608228A56E06801A980180122C01C1F2801DA019209E003AA11
:20E24000F4F742FC6846007B002802D00198401C019000990198401808300002000A01908D
:20E26000881B0002000A009060796946887200980390F4F7B8FB009A019B121A181A6D49CA
:20E2800012020002120A000A8A4216D8884214D86846FFF7D9FE00990398814205D08819EA
:20E2A0000002000AF4F706FCA0600120E979002986D0002FB0D005B0F0BD0020F6E7F3B5AD
:20E2C0008FB05D480C460B9006F0C1FE5B4A0F99524F56185A4D203E00280BD05948007D36
:20E2E000002803D058A15B4808F09DF8207801287ED060E1687F0A280CD0687F297F401CCA
:20E30000884203D150A1544808F08DF82078012804D00CE0287F0028F4D0F7E7F07F0028CC
:20E3200003D049A14D4808F07EF80120F077697F0F9814224A4E51438919087420780228C4
:20E3400022D0687F142148438619207930726079707232460C323146A068F4F7B5FB0C2093
:20E3600030560F2804DD1F3830733068401C30600C217156301DE26801905018C01C1F28DA
:20E3800070DA01200199FDE028494868C005C00D21D0103840B200280CDA0207120F083A43
:20E3A000920892005118C9698007C00EC1400806800F09E081081E4A8900891809688007A7
:20E3C000C00EC1400806800F002804D105201EA1000208F028F8687F14214843861900216F
:20E3E000E0686A460691117006A9F4F76DFB00E0D7E06A46002010560F2834DD012033E0C2
:20E400000020A107B8DF0000F603000000E05EF8F70300000080841E00807BE16C0E0020DC
:20E42000FFFFFF00E80D00200E07000000ED00E000E400E0FFFF3F00780E0020920000208F
:20E44000A00D0020C00D00207372635C72656D2E6300000011050000EF040000F404000088
:20E46000E00C002082E000200699401807900220B0722079307260797072A068311DC01C14
:20E4800006911F2801DA012009E0F4F71DFB68460078002804D0069806990068401C08602B
:20E4A000307A062813D201007944097949188F44020C0A08060400200FE0B4200DE073209E
:20E4C0000BE0322009E00A2007E0062005E0FF20FD49E03007F0A7FF00202179002943D0F2
:20E4E0000221401806907168083008180799089009180698081A0C900020F871F4F773FA44
:20E5000004463060079820180002000AF060787A062825D0797A14204143EC480818406832
:20E520000899029040180002000A0390707A6946887402A8FFF788FD0299039A091B121B6E
:20E5400009021202E24B090A120A0C98994207D8824205D80299069808180002000A30604C
:20E56000F8790028C8D110E00421BAE704AA0199F4F7AAFA6846007C002804D00198019983
:20E580000068401C08602078B072687F0A2806D0687F401C68770B9806F071FD47E0002036
:20E5A000F8E7F07F002804D0A320CAA1C00007F03AFF0120F077CA490F9808742078022873
:20E5C00003D1C4A1C74807F02EFFC54E207930726079707232460C323146A068F4F774FA38
:20E5E0000C2030560F2804DD1F3830733068401C30600C22B256301DE16801908818C01CFA
:20E600001F2802DA012001990BE003AA0199F4F75BFA6846007B002804D0019801990068EA
:20E62000401C08602078B072AD4901200875687F297F884224D07C7A062C23D0F4F7D3F9A9
:20E6400014214C43A14961180A7C042A18D00A7C032A15D04B6889681B1A081A1B02000245
:20E660009B4A1B0A000A082B0AD31146934207D8884205D8687F297F884201D0F4F7FFF9B7
:20E6800011B0F0BD687F297F8842F7D111B0F0BD10B50020F4F709F910BD10B50120F4F70D
:20E6A00004F910BDF1B5009802281ED08E4C607A062803D187A18D4807F0B5FE0026A671A0
:20E6C0000125E572607A03211422804F5043C0190174F4F7D9F9009800280BD0012829D05F
:20E6E000032879D07BA1824844E082480078F3F7EFFDF8BD8048007F002803D075A17F48B0
:20E7000007F091FE65717C4D00202E60F4F7E0F8A968481C04D0012300221846F4F70EF984
:20E72000607A617A401CC0B2142251437A5801219047F8BD0120F4F7CBF8607900280DD05F
:20E740006D488068401C09D0607A617A401CC0B2142251437A5806219047F8BD6648007FE8
:20E7600001280AD0022812D0032822D0042834D058A1634807F057FEF8BD2079002803D004
:20E780002671F4F786F9E5705B480677F8BD207A002802D1F3F7FCFD2572607A617A401C2E
:20E7A000C0B2142251437A580021904752480677F8BD514F0123397B78680022411A184654
:20E7C000F4F7BCF82079002803D02671F4F761F9E57002203877F8BD19E0474E2178706850
:20E7E0000123411A00221846F4F7A8F8207A002802D1F3F7CDFD2572607A617A401CC0B22C
:20E80000142251437A58002190473577F8BD607A617A401CC0B2142251437A5805219047E7
:20E82000F8BD10B5304C607A062803D129A1354807F0F9FD607A617A401CC0B21422514385
:20E84000224A52580421904710BDF0B583B006200290F4F7C8F8244C0090617A2A480190C0
:20E86000062920D0617A1420414318480918097C042918D0617A142251430818007C03285F
:20E880007BD0019900980B6849681B1A081A1B0200020F4A1B0A000A082B6ED31146934239
:20E8A0006BD8884269D814488068401C03D009A1164807F0B8FD00206071607A06282CD1ED
:20E8C0006078002829D023E0B8DF0000E80D0020FFFF3F007372635C72656D2E63000000DA
:20E8E000C00D00201E0500006C0E00204F050000A20500008C0000204C0E00205B050000ED
:20E9000096050000A90500005C0E0020E5050000FE48C178417081780170607A062815D0B3
:20E92000607A1421FA4A48438018007C04280DD1607A0290607A0121142358438018017494
:20E94000607A58438018807C6072A172F14D687F297FF14F884233D0F04E287F142148434A
:20E960008019007CC05D0128287F07D048438019007CC05D02282FD044E0FDE11421484316
:20E980008019807A01280AD0287F0221142250438019007CC155287F0A2808D009E0287FE2
:20E9A0000021142250438019007CC1552AE0002001E0287F401C2877687F297F8842CCD19F
:20E9C000D74D287D00284CD0287CC15D012928D0C05D022830D03AE0287F142148438019E5
:20E9E000807A012803D0CFA1D14807F01CFD297F00201422514389198872297F514389197C
:20EA0000097CC855287F142148438219287F48438019017C0098FEF7E9FF287F0A28C8D123
:20EA2000C5E7A97A012904D00221C155002028750DE00021C1550AE0A87A012803D0B9A18D
:20EA4000BC4807F0F0FC0020A872297CC855287D002806D0297CB24A0098FEF7C7FF00201C
:20EA60002875029806281ED014214843A8494018017C012917D107210174AF4D287B0A283D
:20EA80003CD0287BE97A401C884203D1A5A1AB4807F0C9FC297B02986854287B0A2831D0A5
:20EAA000287B401C2873607A06287DD0A07A00287BD00020A072617A1420414394480E1813
:20EAC0009F49B56873680A46F6687C32CB67966055609C4D697E002916D00226617A142205
:20EAE0008B4851430818407B06281BD201007944097949188F440A1412100E0CE87A002861
:20EB0000C4D0C7E70020CDE70426E7E700210FE0B4210DE073210BE0322109E00A2107E048
:20EB2000062105E0FF208849E03007F07CFC00212973687E022801D0012810D12869009A87
:20EB40004018821A1202120A3A2A08D93238032100026976000A28613220287308E032291A
:20EB600006D2207A00280AD1F3F712FC012005E0207A002803D0F3F734FC00202072634915
:20EB80000822487820700978012901D0032906D101212171297B884201D9421A0832A378CF
:20EBA000002B00D0921C01E08DE09BE02179002901D1002B5DD09446644A00990092019AA8
:20EBC000176852687F1A511A3F0209023F0A090ABC451BD85D4A974218D8009A914215D892
:20EBE000297B884223D92B69421A9A1A1202120A101880190002000A2A616860002914D0AA
:20EC0000032028770006000E3ED14CE000202071A070297B002925D02869401880190002DC
:20EC2000000A6860022028772EE00120E9E781420BD92A69511889190902090A69600028EE
:20EC400001D00420DDE70220DBE7002B03D135A13F4807F0E8FB286980190002000A6860E3
:20EC6000002004E0296989190902090A6960287719E0287B00280FD02969081880190002E6
:20EC8000000A68600220287728690123811900221846F3F753FE09E0286980190002000AB8
:20ECA0006860002028770120F3F712FE607A1421484317490C224018825601230020696845
:20ECC000F3F73CFE0EE00120F3F702FE0020F3F7FFFDF3F7E3FD207A002803D0F3F781FB4C
:20ECE00000202072A078002804D0F3F7D2FE0020E070A0706078002804D00448C17841700A
:20ED000081780170207900282BD023E08E000020E80D0020A00D002091000020E00C00207D
:20ED2000C00D00207372635C72656D2E630000000706000023060000D80D002035060000F7
:20ED4000E00D00204C0E0020B8DF0000FFFF3F00870600000020CF49E0700978002900D1C8
:20ED60002071CD48017BC07A814203D0CB484078F3F7AEFA0120E07103B0F0BDF0B5C84CB9
:20ED80000746607A83B0062803D1C6A1C84807F04AFB607A1421C74E48438019007C032875
:20EDA00003D0C0A1C44807F03EFBC44DA868401C03D0BCA1C24807F036FB607A142148436A
:20EDC00081190C20085600216A4600911171C01901AA6946F3F778FE6A46042010560F2827
:20EDE00001DD012000E0002000994018696840180102090AA9606079002804D001230022C0
:20EE00001846F3F79BFD03B0F0BD70B5AE4CAD4A0B1AA34214D3451AA54211D3934203D9D0
:20EE2000101A43185B1C0BE0954204D9511A0818401C434204E0A549A54807F0F4FA002304
:20EE4000184670BD10B50146012300220220F3F775FD10BD10B50220F3F73AFD10BD10B5F0
:20EE6000F3F7C1FD10BDF0B58D4D0446E87A83B0002803D18BA1974807F0D5FA642C4DD342
:20EE8000954900200246091B824147D39348417F007F814242D19248007D00283ED1687ACB
:20EEA0001421844F4843854EC519306801AA00196946F3F709FE694604200856002802DDDA
:20EEC0000098401C0090A96800986B680A18D21A1202844B120A9A4220D8AA7C062A08D023
:20EEE00014235A43D2195268511A0902090A814214D3B068401C05D00120F3F7E9FC00200D
:20EF0000C043B060306800193060A868009940180002000A7061012003B0F0BD002003B06B
:20EF2000F0BDF8B50646401EC5B21420614968434418207C002803D15AA16B4807F073FAC7
:20EF40006648017F407F81420CD0684A14234B439B181B7CB3420CD00A290CD0491CC9B2A4
:20EF60008142F3D15E48017D002964D0007CB04261D10020F8BD0021F1E7217C052905D07B
:20EF8000217C062902D0217C072928D101212174C17A0023027B8A4221D00246565CAE42D4
:20EFA00001D1012301E0002B04D00A2911D04E1C965D56540A290ED0491C167BC9B28E420E
:20EFC000ECD1002B0BD0117B002906D0117B491E04E00026ECE70021EFE70A211173617C90
:20EFE00000292AD06774C17A0023027B8A4224D0425CAA4201D1012301E0002B04D00A29E5
:20F0000012D04A1C825C42540A290FD0491C027BC9B28A42ECD1002B0FD0027B0146002A44
:20F0200006D00A7B521E04E00022EBE70021EEE70A220A7301E018480027217C01299CD1F2
:20F04000617C002999D10120F8BD70B505461420184A05216843801801740F4C207B0A285E
:20F0600011D0207BE17A401C884203D11749204807F0D9F9207B2554207B0A2807D0207BDB
:20F08000401C207370BDE07A0028EFD0F2E70020F7E700008E000020D80D00208C000020DD
:20F0A0006C0E00207372635C72656D2E63000000EA060000E80D0020EB0600004C0E0020CD
:20F0C000EC060000FF7F841E0020A107B8DF00000E0700002D070000FF1FA107A00D0020E3
:20F0E000C00D0020FFFF3F006A070000E00C00200702000070B5FF4D00246C702C70AC6146
:20F1000000F0CEFC284620304470C473AC6214302C6305F094FF002804D0FF20F6A14E30F3
:20F1200007F081F92C7770BD0B23DB4310B5C21AF54998421FD008DC1C3222D00A2A20D052
:20F14000142A1CD0182A08D117E0083011D004280DD0082809D00C2805D0FF20E6A17530F4
:20F1600007F061F910BD04200CE000200AE0FC2008E0F82006E0F42004E0F02002E0EC205F
:20F1800000E0D820C86010BD70B50125DF4902260E60DF490022CA63CD63DE49C96A090788
:20F1A0000ED4DC494031CB6ADB4A53620B6B93624B6BD3628B6B1363C96BD30519435163EA
:20F1C000D14C002826D0012828D0FF20CAA1A13007F029F9D148A063FF20043060632563A5
:20F1E00003202061C849962040314860C1491C200856FFF799FFCB49C9488860C948CA4928
:20F2000080304160C9490160C9480660C9491020486070BDC8486061C84803E0C848606107
:20F22000C648801FA061D5E770B50C46B14D01460622A81C06F079FF2C7270BDAD4820303E
:20F2400040787047AB4A517010707047F8B504460D46507911790002084369000919088451
:20F260001F461646501C06F0C1FF317800020843A90060502846083001268640002F0ED0BC
:20F28000012F04D0FF209CA1E83007F0CCF8206B304301460120A84001432163F8BD206BE5
:20F2A000B043F6E770B50D460446082904D9FF2091A1F93007F0B7F80022A24809E0910008
:20F2C000635809180B6053001B191B8C0B62521CD2B2AA42F3D3206B9A494031086070BD34
:20F2E00010B50446FFF720FF8248047710BD81482030007B704710B5834CC178616206F007
:20F3000075FF0002E06110BD252808D0262808D0272808D041000A2807D8091D06E0022176
:20F3200005E01A2103E0502101E0891DC9B2764A916075494031486170476E4988617047C0
:20F3400070B5002818D002226A4C784B0320A272F0331860734D72486860002001262075EB
:20F3600000290BD0012910D002291BD0952062A1800007F058F870BD0122E5E77248012AE9
:20F3800001D0466070BD066070BD5A48012A006B05D00121490508432063696070BD0121D3
:20F3A0000905F8E7A069002803D153A1674807F03AF8A169A06A401865498860594865493E
:20F3C0008030816060491031C1600120216BC00301432163686047482030C67370BD08B58F
:20F3E0000C20694608705148002110380161564A012111610BE000BF00BF00BF00BF00BF7C
:20F4000000BF00BF00BF6A461178491E117069460978002902D001690029ECD068460078EE
:20F42000002804D1494834A1203006F0FCFF08BDF8B53E4CF034206886083E48B60041680D
:20F44000C906CD0F1021816000272760354934488860FFF7C4FF35481038076100F020FB6E
:20F460002660002D02D0334910204860F8BD10B506F0BCFE00022449000AC86310BD2349AC
:20F48000022008602A490860704720490220803908607047304908707047164810B53430BE
:20F4A00005F0D5FD002804D0284813A15A3006F0BAFF10BD0F4810B5343005F0E0FD10BD40
:20F4C00011494860704770B50A4D0446A86AA04204D31E4808A16B3006F0A5FF01202873E2
:20F4E0001C49002008392C6148601948446000F0DEFA70BD7C0E00207372635C68616C5F35
:20F500007263732E630000000015004080E100E0C01F004080000010001700405B06000015
:20F520000040000400F50140408000401011004080E200E000130040060102002500030228
:20F540000501030000160040001000404702000040850040488100409700002010B5FF48E2
:20F5600002210173C6210161FD4A00215160806AFC49C630486000F09AFA10BD0121FA4810
:20F5800089058160F548026B8A430021026301737047F64801214160C160F14900204860B0
:20F5A000F0494860ED4988627047F14940200862F0490A6802430A607047EE48016840227D
:20F5C00091430160EA49002008627047E9480168102291430160E849012088617047E7495F
:20F5E0000020C861E34801681022114301607047E249CA69012A01D000207047DC4A92683F
:20F600005206520E524202700020C8610120704770B5D248D24D017B002902D0696801293B
:20F6200009D00024D5490A69012A06D00023807A012804D006E00124F4E74023F7E7CA68C8
:20F64000012A04D000221A43012802D004E02022F9E74B68012B05D000231343C84A0228C2
:20F6600002D007E01023F8E71668012E02D1CE68012E04D000261E43022802D007E008266E
:20F68000F9E71268002A02D1CA68012A04D000223243022802D005E00422F9E7002C01D067
:20F6A000022300E000231343022807D14868012804D16868012801D0012600E00026B1482C
:20F6C0001E4302681206120E02D04A69012A00D00022A24C2034227300680006000E02D060
:20F6E0008869012800D000206073A148006A002803D000F0A8FA012800D00020A07300F031
:20F70000C7F9002068603046F3E670B50C00054603D19D499D4806F086FEE00706D0012C73
:20F7200004D06D209849C00006F07DFE002D0ED002218A4801294172C4728E4809D0022969
:20F740000AD0924890491A3006F06DFED1E60121EFE70168042201E001680822114301600A
:20F76000C7E670B57D4C0022E37A990701D5410714D47A49DD062031002D05DA4D7B002DD1
:20F7800002D08D7B002D09D01D0702D50D78002D04D15B0703D54978002900D10122637A12
:20F7A0007449002B06D00225284010430CD0FFF73FFE9EE66C4A764890600868800880003A
:20F7C000086000F06DF994E6012B07D0022B0ED06E486D496B3006F026FE8AE608680422BC
:20F7E0009043086000F05CF90120A07281E6086808229043086000F053F9A57279E65749C8
:20F8000008757047F8B5554F544D2037FA7B564C0021286B002A31D00122D203A2609043A8
:20F820002A46544D10632E685A4A10209060002028601014A060FFF7D2FD00F029F92E60B9
:20F84000281460605349102048604448817A4A4801290DD002290ED04C484FA1801F06F0F6
:20F86000E2FD0020F8733D48007D022874D0F8BD01210160F5E701214160F2E73A4A90608A
:20F880000E462963FFF7C4FE044636482E75416869620068A862AA7A022A0AD16A78002A48
:20F8A00007D0334B403B5B681B7813402A789A4308D03E70E20708D0084603F04AFD01215F
:20F8C000A86A09E001223A70F4E7A10601D5022102E0A10702D5002103F04BFD2448403844
:20F8E00041680622A81C093106F0F2FB002809D11F48297A403840680078C009814201D154
:20F90000012000E0002078702046FFF72AFF2648007800280DD001284AD002285BD00328AB
:20F9200078D01DA1214806F07EFDA87A022870D0A3E0A00701D502F0EDFB200702D5012062
:20F9400002F020FC600702D5002002F01BFCA006EBD502F07CFBE8E793E000007C0E002077
:20F96000408100404085004000F50140008000404015004000120040001000400011004003
:20F980000014004040160040F8F400006303000000400004001300407372635C68616C5F5C
:20F9A0007263732E6300000097000020E6040000A00701D504F0BBFF200702D5012004F08F
:20F9C00021FF600702D5002004F01CFFA006ACD504F0A4FEA9E7A007BF27002802DA3C4040
:20F9E000F3F702FB200703D53C400120F3F7FBFA600703D53C400020F3F7F5FAA00602D574
:20FA00003C40F3F7EFFA60068FD5F3F7EEFA8CE700E012E0A00701D5F3F7EAFA200702D56D
:20FA20000120F3F7E4FA600702D50020F3F7DFFAA00690D5F3F7DAFA77E7287B00281CD0DE
:20FA40001F494E6002281FD0012803D01D491E4806F0E9FCA96A2869884204D81A481949C6
:20FA6000401C06F0E0FC2969184841600120296B80050143296316494860287D012800D016
:20FA8000F5E6F3F7C5FAF8BD2969A86A4118EBE710480021C1600161416041618161704786
:20FAA0000D480021417281720121C17270470A480121026B89050A43026305484160704758
:20FAC0004081004098F90000FB0400004085004000F50140001100407C0E00202E480021C8
:20FAE00001704170704770B5064614460D460120F1F758FC28490120284B08709E60DC60FB
:20FB00001D6170BDF8B504460120F1F74BFC22490120087021494C60214900264E60032177
:20FB2000204D0906A960204F002C0AD0012C03D01EA1412006F077FC3E60032000066860B3
:20FB4000F8BD386001200006F9E710B51248017800290ED00321134A0906916010494A6826
:20FB60000021002A03D0154A1268427000E0417001700020F1F716FC10BD07480178002902
:20FB800007D007484068002802D00C480068C0B270474078704700009800002000F500405C
:20FBA00000F1004000F5014000F200407372635C68616C5F63636D2E6300000000F400407C
:20FBC0003A4800210170417010218170704770B5064614460D460220F1F7E4FB01203349E3
:20FBE000334A0870E41E14619660556070BD10B50220F1F7D7FB2D49012008702D4800217B
:20FC000001604160816001202B49C005486010BD10B5264C2078002811D001202649C00505
:20FC2000886000F034F80021002804D0012060702248006801E061701020A070217000203D
:20FC4000F1F7B0FB10BD10B51848017800290BD018480068002805D000F019F8002800D0E4
:20FC6000012010BD022010BD407810BD10B50F480178002909D000F00AF8002803D00F4847
:20FC80000068C0B210BD102010BD807810BD09480168002905D04168002902D0806800288F
:20FCA00001D0002070470120704700009A00002000F5004000F1004000F5014000F400403A
:20FCC000FFB593B0044600201D9E049015981C9D1027082806D0E06901F014F8002809D08A
:20FCE0003770CCE028880921384328801F980227017016E0E169012088710521E269C902CD
:20FD00009180E1698872E169F9480881E16900208873288820210843288011211F9804271D
:20FD200001701F980225801C0390307810900A203070204618301190F6F76BFC00206FE021
:20FD40001598102809D1022D07D06846828A04990398401A8270110AC1706846C08A1699AD
:20FD6000884203D9E349097A149106E0884204D11099002901D0317021E003990870000AA1
:20FD800048701E980088401BC01B83B2FF20C01B984200D203460398149AC0190CA90092AA
:20FDA000019002912020015D6846C08A0022F6F7A5FC3070002806D0C0B2832862D068463E
:20FDC000C08A208345E00F98002805D0C948006800790A2830D33CE06846008EC119C9B299
:20FDE0000491022D0FD01F99049A4978914203D16A46128C824209D0BE480491006801783B
:20FE0000032909D027E008461F994870B94800680178042906D008E000790A281BD2012092
:20FE20000F9009E06946C98A818003990498081803900498281885B205AA14991198F6F747
:20FE4000EBFB002805D11E980088401BB84200DB76E7022D0ED01598102807D1049A0399EF
:20FE60006846808A891A8870000AC8701E980580002030709F4800680078032802D000200E
:20FE800017B0F0BD0220FBE7F8B50446406B0026134600282BD0491F8DB2618F2A46083265
:20FEA000278F8A18BA4221D89A7840185F78110239430170090A41701A79DF781102394377
:20FEC0008170090AC1700571290A41712A46591D801D06F02AF9608FAD1D401980B26087CB
:20FEE000626B002110180170417000E009263046F8BD30B50B88048F9C4212D9446BE01815
:20FF00004478057824022C430BD04479057924022C436404640CA41D1B190B801060002080
:20FF200030BD822030BDF7B588B000256846058205275DE00398417802780E0216434179AD
:20FF4000027908021043000452D40A980123068005A802905B020022009701953046099950
:20FF6000F6F7CCFB04004AD16846018A018303984179027909021143437802781C02144318
:20FF8000B4421ED10A041CD44B0401215B0C890300950B4301970295C17880780A02024386
:20FFA00020460999F6F7C6F9040011D1039948790A79000210430122D20310430871000AA4
:20FFC000487103AA06A90898FFF793FF0400CED00399009501970295487809780002084354
:20FFE00069468B8A00220999F6F7A4F9822C06D103AA04A90898FFF77CFF04009AD06846E3
:020000040001F9
:20000000058209E0039841790279090211434904490C0171090A417103AA04A90898FFF778
:2000200068FF0028EED0822C02D020460BB0F0BD0020FBE730B50446406B002597B00028B5
:200040000DD00B2268460270228F0281606B0391019000216846F3F7E2FA684605706563D2
:200060006587258717B030BDF8B50F460546696B0020069E144600290FD0012B0DD132466B
:2000800039462846FFF74FFF002806D1002C04D032463946284600F044FEF8BD0022028040
:2000A000C262831D0263C36142634287028720300170704710B50022D24302800420FDF7EE
:2000C000FEF910BD10B596B00446FFF7B3FF208E002808D0012069460870E06A019000216D
:2000E0006846F3F79CFA0020E062206316B010BD01280000B40E00200146098800200A0746
:2001000000D501200A06120F01D002221043CA0501D5042210438A0501D51022104349051A
:2001200001D5202108437047FFB5A9B00600329D359C2B981F46229016D0007841060FD491
:200140008106890E1E2909D021884A05520E0BD13A88172A08D3FE4A914205D0C10906D0BF
:200160008006800E122802D003202DB0F0BD20462C302690F7492A980872002018AA039049
:2001800010726A46107404AA0A60339A4A6020AA908090812298007801908106681C1C90B5
:2001A000701F1D902B98890EC21C2492224620321B92083A401C02920B0006F025FA1FFD40
:2001C000FD11FD1FFD8EFDFCFDFBFDFAFDF9FDFCFDF8FDFDFDF7FDF6FDFDFDFDFDF5FD00DA
:2001E000032E76D102E018A9087219E3032028701C9917220A7000224A70CFE2052EF0D1CA
:200200004178027808021043208320A98880249A5178127809021143618300287ED0884246
:200220007CD800202072E080401E60840298F6F7F0F905202870A81C0190022000901BAA1D
:200240002A990298F6F7E8F9002868D118A8807C012803D002206870102002E00120687055
:2002600002202490002225A91CA8F2F746FD00282BD120A8007D2499814226D13A8800998D
:20028000801C511A814220DB10A8C18D01980170090A417001991CA8891C01910099019AFC
:2002A000891C009125A9F2F728FD20A8007D01991BAA091801910099081880B200902A9997
:2002C0000298F6F7A9F90028CCD00098022826D064E272E018A9087261E2072E6DD3417835
:2002E0000346027808021043208320A98880249A5178127809021143618300280ED0884246
:200300000CD8012020725879197900020843E08000202073E06900F0F5FC01E098E0A9E077
:2003200000280ED1E169012088710521E269C9029180E1698872E16987480881E1690020B5
:200340008873F01F60842298C01D60620298F6F760F907202870681C0090012001900020D1
:2003600010A9C8852FE00198012814D0E0698079012830D000981E38417F007F09020143DB
:2003800000980170090A41700098801C00900198801C80B2019010A8C18D00980170090AB2
:2003A00041700098801C09E00AE296E13BE1DFE004E29BE077E036E016E2AFE000900198B3
:2003C000801C80B201901BAA2A990298F6F724F9002803D007E010A8818DD1E739880198D8
:2003E000081A0428BFDA0198012843D0E0698079012804D010A8818D5548814206D110A84D
:20040000818D00980170090A417009E000981E38417F027F0802009910430870000A4870B9
:200420000198801CBAE1072E01D0152E76D14178027808021043208320A98880249A5178D1
:200440001278090211436183002801D0884201D901203FE7012020720020E0802073052EF2
:200460000AD01D982299E269C0B2491DF2F71FFC002801D00A202DE70020C04360841AA80B
:20048000019023A92298029703950091007800238206920E20462A99FFF712FC0390208B55
:2004A00020A988807BE1032EC0D1402220A98A814178027808021043208320A988802A9950
:2004C0001EAB1C9A02930192009139880022491E8BB21B990978F6F711F918A908720028CE
:2004E00033D10B20287010A8008F3FE0052E9DD1802220A98A814178027808021043208385
:20050000249984464A78097812020A43628420A988801248824202D30720DBE6AFE03F2030
:200520008002024362842A981FAB1C990293019100903888401E83B21B9801786046F6F704
:20054000DDF818A9087200280CD08328AAD107E0FFFF0000B40E002001280000010200006E
:200560000220B8E00D20287010A8808F401C15E101990C22C9095143C91CB14204D9019867
:2005800040067CD5002009E1427803781002184320AA9080844622980078400609D50520F9
:2005A0006A46107422980078C00905D0002010741DE106206A46107424981F902A9A00907C
:2005C0000023701A029383B21E9001921B98002201786046F5F7AEFE18A9087200226946CB
:2005E0000A74832801D1022003902298007840060DD52088C00506D520A9208B898888425A
:2006000001D100206062002018A90872C6E0FF21013120A88181808820831E9860841F980D
:2006200060621320B8E0052E29D3417802780802104320A98880218F002902D0FE4A9142D7
:2006400006D10A216A4611740121C943218702E007216A46117422992A9A491D0192009145
:2006600001221D990023D203029311438BB224994A78097812020A431B99097800E0C9E064
:20068000F5F758FE18A90872002269460A740122520220A98A81832808D0002809D0218F0F
:2006A000E54881427ED10020208778E0888820834DE7606B002808D031462046229AFFF79B
:2006C000E3FB18A90872002869D12B463A463046229900F056FB039061E02298022E4078C6
:2006E00001907DD1002801D0012879D10820694608740198087521A800901B98002201789F
:200700002046019BFFF7B0FC6946002248758A75002802D10198012809D0208F002806D065
:20072000002008740120800220A988810EE004A83399F2F774FF03900020694608740120E7
:20074000800220A988810398022807D0BB4800688079002805D018A908722BE001982083C6
:200760001DE00398002803D0812018A9087240E021A800901B98012201782046019BFFF74A
:2007800073FC18A9087220463499FFF753FC18A9087A002803D119202870012038806846A0
:2007A000007C00E03CE0002804D004A83399F2F736FF0390039800282ED01AE0062012E5C4
:2007C0002078000713D5012E11D1092168460174A188818204203499FCF771FE082100E0AC
:2007E00005E020A88181CDE60198400612D50320039020A9208889890843208020A98889D3
:200800004005400E04D026992B980860269886800398AAE40420E6E418A8007A00280ED06C
:200820000120287022980078687020A88088A870000AE87018A8007A28710520388020A932
:200840002088898988432080E2E7FFB50746A1B000201C903A7801209040794A7C681040F2
:2008600010AA1087744B22885B1C9A4203D0002804D0100702D5012025B0F0BD249E002029
:20088000307023980025028810A8028518A805756A4B68461972057404A8186020462C3088
:2008A0001B902A985860249E94463878721C0521039201282DD0022808D003287DD1307835
:2008C000800980011D303070B889A0803878022804D13078800980011B303070F01C1FAA9F
:2008E00001900292009110A8008D0022C01E83B22020015DB889F5F701FF0028DED103988B
:20090000B9890170090A417010A9888FC01C088528E1787B18AA10753A7B012A02D0022A06
:20092000CCD1FCE022887F231B011A4010AB1A87802A4AD006DC102A10D0202A0ED0402ACE
:200940000AD124E0FF3A013A65D0FF3A013A79D0FF3AFF3A022A76D00525A2E02078C00664
:2009600001D5082000E010201C9004206A461074002090821AA81DAA1EAB03960192029023
:2009800000933B8A20461C9AFFF79AF984E0228B3B8A9646934268D10A221C92002839D18E
:2009A000039801906046401E1FAA83B2029220200091015D0022704600E0BAE0F5F79EFE6C
:2009C000014618A801750B201AE0228B3B8A964693424AD10C221C92002862D103980190D4
:2009E00060461FAA401E0292009183B22020015D628C7046F5F782FE014618A801750D2078
:200A0000307010A8818F491C0185042168460174218B818245E0238B3A8A9C469A4224D142
:200A200012221C9200283CD1606A002813D000226B4607C3638C07E0FEFF0000B40E002078
:200A400009F800000DE04BE02020015D6046F5F771FC18A9087513203070012010A9088568
:200A60001FE0398A228B914201D00425B6E016211C91002815D11B98818802682046FFF730
:200A800003FA18A9087500280BD11B983346016880881AAA00F075F9054602281BD0042DC7
:200AA00019D01B988088002811D06846007C002804D004A82A99F2F7B2FD05460120694641
:200AC00008741B981B990068059000208880002D48D0052D2ED06846007C032878D07DE09F
:200AE00018211C91002806D0388A20832046B968FFF7A0FAD5E72046183000902020015DFE
:200B0000237E01222046FFF7AFFA18A908750028ECD119203070012010A90885E6E7208834
:200B200001214902084010A90887FF38FF38022806D0052510A92088098F884320804DE08F
:200B4000208F9849884290D116201C903869002805D06063B88A20870020608702E00020A5
:200B6000C043208710A8008F7F21090102468A430DD0782300220420B968FCF7FBFB38784D
:200B8000A07010A92088098F0843208002E02188814321806846007C002805D082484168D7
:200BA00004A8F2F73CFD054618A8007D002815D01C98707001203070208BB070000AF07048
:200BC00018A8007D3071052110A8018506E0FFE77548416804A8F2F722FD05467248017A6D
:200BE00020884005400E22D11B98808800281ED0239A0026138810AA1385249A2A9B6F46EE
:200C00004CC71B9A039412681AABFFF78DFA054602280CD00120694608741B982A9900683E
:200C2000059004A8F2F7FBFC05461B98868010A8018D2398018028461EE600B597B0042873
:200C400007D102206A461070019100216846F2F7E6FC17B000BD10B5534C03780022216830
:200C6000012B02D0022B42D126E00B78002B01D0042B03D10A712268032111702168838870
:200C80000A79D200921D8B5221680A79D20008328918C2880A80216803890A79D2000A3240
:200CA0008B52428920680179C9000C31425221680879401C08711EE00A7482888A802168F8
:200CC000C288CA80226801891181226841895181C1682068C1606168F2F7A1FC0146022822
:200CE00007D02068007C002802D1002903D0812010BD832010BD002010BD406B002800D0B4
:200D0000012070478178012909D100880521C902884202D0491C884201D1002070470520EC
:200D20007047F7B586B00024684615460F46848105261AE004984178027809021143298097
:200D4000811D019602940091417902790B021343C178827809020A4341780078090208438D
:200D60003946F5F7E7FA002806D104AA03A90698FFF7BFF80028DDD0822800D1002009B05A
:200D8000F0BD10B51488844201D2052010BD17241C701080421E581C491C05F0C6F9002056
:200DA00010BD0000FEFF0000B40E002010B5404804F04DF9002801D00C2010BDFF211131AC
:200DC0003C4805F011FA3B490120087000204880E03188718874887520310871344804F04D
:200DE0004EF9002010BD10B5314804F028F9002803D031A1312005F016FBFFF7D7FF002854
:200E000003D02DA1382005F00EFB10BD10B50446274804F01CF9002801D00C2010BD254927
:200E20000878002807D0002008702148216004F026F9002010BD1E4804F021F91F2010BD31
:200E400070B505460C461A4804F001F9002801D00C2070BD174A5088A84202D11078002888
:200E600004D0134804F00BF9122070BD1048226004F005F9002070BD10B504460C4804F07C
:200E8000E6F8002801D00C2010BD0A480178002907D00020C0432080054804F0F0F8122099
:200EA00010BD40882080024804F0E9F8002010BD9D000020C00E00207372635C6C6C5F6407
:200EC000622E630010B5282105F08CF910BD70B5054600780A0700090001120F10432870BB
:200EE0000B0005F091FB07050705070509050B00062408E00C2406E0222404E00024F2A120
:200F0000572005F090FA6878800980012043687070BD00780007000F704710B50622C01C7B
:200F200005F003F910BD10B50622093005F0FDF810BD0278BF23C9071A40490E0A4302707A
:200F4000704702785206520EC9010A430270704770B515460E4604461F2A03D9DAA1A820E2
:200F600005F061FA20462A463146093005F0DDF86078AD1D80098001A906890E08436070C4
:200F800070BD70B515460E4604461F2A03D9CEA1CC2005F048FA20462A463146093005F0D4
:200FA000C4F86078AD1D80098001A906890E0843607070BD70B501780907090F03292ED04B
:200FC000052931D1411C827E0C46437E11021943037FC27D1D02037EC67E1B021343827DEB
:200FE000407835438006800E22281DD106291BD31920C001814217D8FF26F436B54213D87B
:20100000002A11D0082A0FD88A420DD28B420BD8617F227F09021143814207D904E0407832
:201020008006800E0C2801D0002070BD012070BD00210A464254491C2229FBDB704710B5F3
:2010400002788B07920892009B0F1A4302704278520952014270012908D0022906D0032996
:2010600005D0FF2098A1EE3005F0DDF910BD01210A43427010BD10B502788B0792089200A2
:201080009B0F1A4302704278520952014270012907D0022905D0032904D08BA18E4805F0C5
:2010A000C2F910BD01210A43427010BD00788007800F70470278EF23C9071A40C90E0A439B
:2010C0000270704770B50546C1700B0005F09CFA0E080A0C0E1012120C14141212160C18B0
:2010E0000C2413E0082411E002240FE017240DE00D240BE0012409E0092407E0062405E026
:201100007548002470A1A03005F08DF96878400940012043687070BDC0787047017AC2791B
:20112000080210437047817A427A080210437047017BC27A08021043704781794279080245
:201140001043704700797047817B427B08021043704770B5017AC37909021943431C857AE7
:201160001C46467A2B023343657926792C023443C21C5A4E00798D1FB54214D8FF25F435AD
:20118000AB4210D800280ED008280CD888420AD28C4208D8507A117A00020843B11D8842D2
:2011A00001D8012070BD002070BD0B4610B5011D0522184604F0B9FF10BD817A427A0802C8
:2011C0001043704701717047007970470B4610B5011D0822184604F0A8FF10BD027B0A7091
:2011E000407B487070470B46014610B508220E31184604F09AFF10BD0B46014610B50422C4
:201200001631184604F091FF10BD10B50822001D04F08BFF10BD10B504220C3004F085FFE2
:2012200010BD017170474171090A81717047C171090A0172704700797047817942790802EC
:2012400010437047017AC27908021043704701717047017170470B4610B5011D08221846AC
:2012600004F063FF10BD10B50822001D04F05DFF10BD70B515460E4604461B2A03D912A130
:20128000174805F0D0F82A463146E01C04F04DFF6078E90640094001C90E0843607070BD9F
:2012A00070B5054640780E46C406E40E1B2C04D90B4805A10C3005F0B6F82246E91C304617
:2012C00004F033FF204670BD7372635C756C5F7064752E6300000000070200007A0C000008
:2012E000F7030000C1074008C207C90FD20F51184008C207D20F51184008C207D20F511843
:201300004008C207D20F51184208D007C00F40185208D107C90F0918500840187047002276
:2013200002808271C271C2720273427382738270C270027142714276828303464284203349
:201340009A7102859A72C2750276C2730274DA721A739A7319750284FF21603081709A75EB
:20136000704770B504460020A083208C1E4648431546114604F061FF2084F000294604F06C
:201380004EFF401C80B20146192269439202E083914201DD401EE0837D202946000204F0D9
:2013A0003EFF401CA08470BD70B50546087B0E46C006C00E08730020A87504463019007AA3
:2013C000FFF790FF29194874A97D641C0818E4B2A875052CF2D3C0B2252803D979A18A20BC
:2013E00005F021F870BDF8B504463030264627462546C036A03780350090032909D00029D7
:201400001AD0012924D0022902D1A11CFFF7CCFFF8BD1146FFF783FF002028836883A883E3
:20142000E883288468847871E885387326210855A08430703071F8BD0020E885B871A1880B
:2014400023890A460098FFF78CFFA11C0098DDE70020E885B38A328AA1880098FFF781FFA1
:20146000F8BD70B5867D0D460446002E01D0252E01D9122070BD002A18D0287EE17D5043BE
:201480000818252104F0CBFE0846E1754207520FC908504B69189A5C097A8A4368D03146F9
:2014A00004F0BDFE491CCAB2002007E0002070BD002803D02118097C511ACAB22118497CAA
:2014C00091423AD32918097AC943CB07DB17D21A521E1206120E35D08B07DB17D21A521E1F
:2014E0001206120E30D04B07DB17D21A521E1206120E2CD00B07DB17D21A521E1206120E48
:2015000028D0CB06DB17D21A521E1206120E24D08B06DB17D21A521E1206120E20D04B0630
:20152000DB17D21A521E1206120E1CD00906C917511A491E0A06120E18D0401C0528B7DB45
:201540001F2070BDC00013E0C000401C10E0C000801C0DE0C000C01C0AE0C000001D07E0CD
:20156000C000401D04E0C000801D01E0C000C01D20769BE738B505460C466846FEF738F81A
:2015800000281ED06946002008562072092161560022411A00D5494220356B798B420FDCC7
:2015A000FF2B0DD0A17A491CC9B2A172AB79994202D8617A7F2903D160720020A0720122BF
:2015C000104638BD7372635C6C6C5F7574696C2E630000007667010010B5040004D0FF20FC
:2015E000FAA1AB3004F01FFFFB4821464143FB48FF230918FF330022581C5A544254C81DBE
:20160000FF30FA3002704270F448001FC378A34202D18270FF23C370EF48EF4BC01E081849
:201620009B1EC91802700A7010BD70B5EB480026001F8670FF24C47035462846FFF7CCFFC3
:201640006D1C2D062D0EF8D00020E4490B229201E14B43435B189B181E74401C0006000EE4
:20166000F6D0DF48FFF7E4FC0021DD48FFF722FD0121DB48FFF7E3FCDA48047044708470F4
:20168000C4700471447170BDCFE71B20704730B50021D24A0B239B01CF4C4C43A418E418C9
:2016A000247C002C05D0491C0906090EF4D0002030BDC94C01254C43A218D21815740170C5
:2016C000284630BD10B5044600F0D0F900280CD02046FFF781FFC0490B224C43BF4900201A
:2016E0006118920189180874012010BD10B5044600F0BCF9002802D0BA484471012010BD80
:20170000034610B5B748B44940794843B34942181046FF30E130C17F807F04F0D5FF10BDBB
:2017200010B5B048AC4940790F224843AB494018A949D239095CFF30FF3004F09FFF10BD17
:2017400010B5044600F092F9002802D0A5480471012010BD034610B5A2489F4900794843D1
:201760009E4942181046FF30E130C17F807F04F098FF10BD70B59B4C97492079974D484307
:201780004019C11DFF31F931FF30E130807F0F2204F064FF002813D020798F494843401991
:2017A000FF30FF3002300178491C017001784078814204D1884885A1773804F034FE012095
:2017C00070BD884884490079484384494018FF30E130C17F807F814201D10120704700200A
:2017E000704770B57F487C49007948437B494018FF30E130867FC57F0F242946304604F0CC
:2018000026FF002801D0204670BD70066906400E490E884201D3401A01E0081A201AC0B2E6
:2018200070BD0F20704770B50C46054600F01EF900280ED0002020706748454367482818F0
:20184000FF30FF300230017842788A1A22704170012070BD70B50C46054600F007F90028B6
:201860000BD05D4845435D482818FF30FF30023001784078081A2070012070BD58490160B8
:20188000704710B5044600F0F1F8002802D055480470012010BD5149091FCA78FF2A02D0B1
:2018A0000021016007E08A784C492439012A02D0016001207047002070474848801E017817
:2018C000012908D001210170464801784348001FC170012070470020704710B5044600F0E3
:2018E000C5F8002802D03F484470012010BD3B493C4B091FCA785B789A4206D18A782039B2
:20190000002A02D0016001207047002070473348344A001FC1785278914209D1FF21C170A2
:20192000801C0178002903D000210170012070470020704729482B4A001FC178527891427A
:2019400004D18078002801D0002070470120704710B5044600F08AF8002802D02148C470FA
:20196000012010BD034610B51E481B49C07848431A494018C21DFF320B21FC3289014018D7
:20198000C17B807B04F0A0FE10BD10B515481249C0784843114940180B2189014118C97B6C
:2019A0000D4AD21E8018062204F068FE10BD0D480949C0784843094941180B208001081818
:2019C000C17B807B81420FD1012070477372635C646D5F712E630000D1020000F40F002089
:2019E000C51200209E0000200020EEE710B5044600F03CF8002802D021488470012010BDC5
:201A0000034610B51E481F49807848431E494018C21DFF320B21FC3289014018C17B807B25
:201A200004F03FFE10BD10B51548164980780B2248431549920140181249891E411880183B
:201A4000807B062204F00AFE10BD0D480D49807848430D4941180B2080010818C17B807BBA
:201A6000814201D10120B0E70020AEE7002805D10648007C002801D00120A6E70020A4E74A
:201A80009E000020D1020000F40F0020B4120020F8B5FF4E0446B079002500280AD00029EF
:201AA0002DD1657010202070F079A070307AE070B57124E0F64F203F387A012804D0707AB9
:201AC000012810D00020F8BD002918D165701320EF4920701C221639A01C04F026FB0120C7
:201AE000A0713D720BE0002909D165701420E849207008220A31A01C04F017FB757201203F
:201B0000F8BDF8B5E3480178002902D00C263046F8BD0026DE4D3446403D2E756E75EE7536
:201B20002E76AE75294620396E730F464E7340377E717F218170687E002804D0FDF73DFD18
:201B4000FEF766F86C763C72D14884711430FFF7B9F9CF483C30FFF7B5F9D8E710B5CD4BE5
:201B600000221A70CA4B203B1A711A46603A1166D065FFF7C6FF002804D0FF20C6A1873024
:201B800004F051FC10BDC2484038007D7047C04910B54039C87B897B42078307D20FDB0F55
:201BA000D218C007C00F101840000B0004F02CFD050B060B04080F00BB4906E0BB4810BD1F
:201BC000B949083101E0B8490839085A10BDFF20B1A1A73004F027FC002010BDAC48B4493B
:201BE0004038008A48437047F8B5A94C0646407B403CE07337791346A773012F26D0308828
:201C00002082A348B27B203882710546603D297006221946681C04F088FAB0796873062291
:201C2000F11DE81D04F081FA607B0126002800D0667597486038407B002800D0A6753B00CD
:201C400004F0E2FC0506082549084B000020D7E700211DE08E4801211430FFF738F98C48AB
:201C6000E91D1430FFF75FF9687B002807D0012807D0FF2088A1EE3004F0D5FB0CE00021B3
:201C800000E0012182481430FFF75BF904E006217F481430FFF71BF90020E07520767C48FB
:201CA000691C1430FFF739F9794829781430FFF740F9774804213C30FFF709F97448691CD5
:201CC0003C30FFF72AF9724829783C30FFF731F926750020F8BD0221DAE7FF206EA1F830EE
:201CE000CAE770B56A4C0125403C0346257620462030007A002801D03A2070BD6448002254
:201D0000803806789E4206D1E2750622401C04F00CFAE57500E02276002070BD70B5044673
:201D20005B4D0020403DA87528462246323804F0FCF92846203844730120A87570BD544993
:201D400020390871704710B5514C0022403C6275607302462046123804F0E7F9012060758E
:201D600010BD4B49203948717047F8B500F0A4FB474C0025403C607E002804D0FDF71DFCE2
:201D8000FDF746FF6576434F3D70FDF793FBA07B012804D00021084601F0A6FAF8BD002180
:201DA000022001F0A1FA3A4C203C207A002809D0374881790029F1D11321C1710572012195
:201DC0008171F8BD78780028FBD0314E0622803E707BE0733078A0753046F11D703004F001
:201DE000A4F930460622711C773004F09EF93C20A072012020727D70F8BD10B5244C403C75
:201E0000E17BA07CCA0701D0C2070BD08A070FD582070DD42620FDF777FAA07C02210843F0
:201E2000A07410BD2520FDF76FFAA07C0121F6E74907F6D54007F4D42720FDF765FAA07C24
:201E40000421ECE770B5134E3078002872D1104C403C207D00286DD0FDF71FFB0025A574CB
:201E6000E57475702846FDF715FB0020FDF78CF90D480D38FDF73FFA0B481038FDF7F7FAD2
:201E8000FDF76CFBFFF7B9FFFDF7FFFA012111E068130020A40000207372635C6C6C5F619E
:201EA00064762E63000000008E6701009A891300710200000020FDF743FA0F210520FDF77E
:201EC000C1F92646403E3178701CFDF7ADF9A07B01280CD004280AD0607D002807D0214626
:201EE00012390846627B6630FFF732F86575A07D002807D0FE480146427B12399C30FFF769
:201F000040F8A575306E0178002903D00178001DFDF7C8F9F06D0178002906D0F44A401CA2
:201F2000C732FDF754FE01206076FDF7C3FA002070BDFFE70C20FBE7EE494860704770B5BE
:201F4000050001D0FFF759FFE94C2034E07C00280AD0A07B012804D19920E749C00004F0C0
:201F600062FAFFF702FFE3E7002D0DD002210020FDF7E6F9DE4840300079032801D00128F0
:201F800002D10220FDF73BFCE07D002600280DD0D74D203D2846691C9430FEF7BEFF284641
:201FA000691CBC30FEF7B9FFE6752676D0487430FDF786FAA07B030004F026FB0504040498
:201FC0000D04090001210846FDF79FFB03E0CA49CA4804F028FAE17BA07C81430120002945
:201FE00003D1A17B012903D0E074C24908709FE7A674FAE710B5FDF750FABE4800780028F3
:2020000018D1BB482030007D002813D00020FFF796FFB74840300079002809D001280FD060
:20202000022805D003280BD0B349B54804F0FBF9002010BD00F040FAFDF73CFA0C2010BD80
:20204000F0F7E6FFF4E7AB49012048707047F8B5002400F0E0FF002824D0FF202D30FDF729
:202060006CF9A44D2878A24F403701281DD0022801D0032834D0A2489F496B3004F0D3F995
:20208000287800280DD0387900280AD0012808D0022838D0032836D099489749803004F01F
:2020A000C2F9F8BDFFF761FEF8BD914E2036B07B032815D0707E002803D0FDF798FDFDF7D0
:2020C00074FA8B48C430FDF7FBF9B07B012812D0042810D0B879012806D0032804D004E08E
:2020E0000120FFF72CFFCBE7102421460E2001430020FDF70AFB7879012801D1FDF76FFA7D
:2021000002202870BCE728780228CDD10120FDF776FBF8BD70B5764840304079012801D1B8
:2021200000F0D4F9724C2034607E002803D0FDF744FAFDF76DFD00F06EFF00280CD06D4D4C
:202140002878022804D06E486B49A33004F06BF9A07B012803D006E0FFF707FEE8E69920CD
:202160008000FDF7EAF80120FFF7E9FE28780028F4D028780128F1D039205F49000104F0FF
:2021800052F9D5E6F0B5074689B000200690FDF7AEF800900020019056480078022804D069
:2021A00057485549F03004F03EF9514D40356879012801D100F08AF94D48C430FEF7A9FE10
:2021C0004B4E04462036002F70D03046A430FEF7F1FE0028F8D0FDF731F80028F4D0707E42
:2021E00000280AD005277F1EFFB2FDF72CFD02280FD0012800D0002001903D492046C431B2
:202200000C46643C030004F0FFF906A4A4A40CA456A4002FE7D177203AA1C00004F003F938
:20222000E9E7B07B012841D004283FD0019A0098104304D1A879002801D0022836D16879A7
:2022400001281DD1607A00281AD101206072087806224006C00FA0722548C91C6B3003F0D8
:2022600064FF244C224FA07871377F2804D1A92024A1C00004F0D7F8A07838707F20A0705E
:202280001B489C30FDF71CF91A48032101702879002860D001280AD002285CD0032806D0BC
:2022A000164818A1E03804F0BEF854E051E00120FDF7A5FA4FE00E480F462038C978C07980
:2022C000814230D10A4839792038027A91422AD17979427A914226D1B979827A914222D128
:2022E000F979C27A91421ED1397A027B914211E008130020A4000020981E0100F6040000CA
:20230000DE0200007372635C6C6C5F6164762E630000000007D13978407B4906C90F814208
:2023200001D1012100E00021B07B012801D0042801D100290AD100280BD101990098084300
:2023400004D1A879002801D0012802D1307E00281FD001200690707E002803D0FDF72DF913
:20236000FDF756FC0698002802D00120FFF7E7FD5D48017800290AD00178012907D0007871
:20238000032804D095205949C00004F04CF809B0F0BD55480422406855490F3003F0C5FE8B
:2023A000387806224006C10F4F4840680177F91C1D3003F0BAFE4C484D4940680322091D4E
:2023C000133003F0B2FE4848494A4068B97D81750F3A117ED37D09021943018311468B7EAD
:2023E0004F7E1B023B438380137FD77E1A023A43C2808A7F4B7F1102194301813C49052240
:2024000010310A3003F091FE3948374A113001795768C906C90EB97600794009F876287A9C
:20242000002809D0A07900283AD11320E071002020720120A07133E00020A8727888B08565
:20244000387FE8732A48394606221D31833803F06CFE27490622F3390878A8750846773095
:20246000491C03F062FEB888F087F888208038896080F87E20710198002860790BD001218E
:2024800008436071FDF7F2FB61794000C907C90F0143617102E04008400060710120287271
:2024A000114C0020207000F007F8FDF703F80120616800F019FF4EE710B5FDF76AF8FDF7FB
:2024C0005DF8FCF7B5FFFCF7DAFF10BD064810B5801CFDF78DF8002802D103497F20887061
:2024E000FDF774F810BD0000A400002004230100DB1300208107C90E002808DA0007000F36
:2025000008388008F74A80008018C06904E08008F54A800080180068C8400006800F7047F2
:2025200010B500F03BFF10BD70B5F04C05466268002908D0002A04D0FF20EDA10C3003F08E
:2025400072FF656070BD002A04D1FF20E8A1123003F069FF0020606070BDE948C07E7047A1
:20256000E7482830C07E704738B5E04C206801684978012925D001216846FAF7C9FC6846C1
:202580000078E049000203F04AFE2068426AC06812685118FBF7ADFC2168C860D84A206828
:2025A00028320321904218D0028B002A15D001224272017200210171021D017F00F0FBFEE2
:2025C00038BD7D21C068C900FBF793FC2168C860FFF7DDFA21680861E0E7028B521C02833F
:2025E0004172E6E7FFB5C64E85B0706A3468056860680190306A0390298E0798401A80B213
:2026000002900898002804D0274638372046483002E0371D2846A83000900320387105985D
:20262000002820D001287DD002285ED003287AD0AFA1B54803F0F7FE0898002807D03879BA
:20264000032804D0B048AAA1093003F0ECFEA16A7069FBF74EFCB860616A206A88427DD975
:20266000009801601FE1306A002804D1A648A0A17A3803F0D8FEA449288B3739484340182D
:20268000069900F0A6FEA0619F49A88837394843069900F09EFEE061316A9B48891CA16261
:2026A0002A8B37384243A069974B121AE63BD2185118A162944BAA7D373B5A4340008018F6
:2026C000FF30193020626062306A081AED21FF38C90015388842AFD28C49884204D28A4895
:2026E00083A15D3803F09FFEB6E0874A288B373AE16850430818069900F06BFEA061824946
:20270000A88837394843069900F063FEE061306A002804D17C4876A1553803F084FEAE201B
:20272000405B01E02CE05AE00028288B784AE1681DD050430818A169401AA0622169A06859
:20274000734A4843A1694018A97D400051434018FF3017302062A888504300E0A1E0E16917
:20276000411A6F20C000081A6062A06A34E050430818A169401A3168D63849684018DCE723
:20278000284680300190C08D002802D0306A002804D15F4856A1401F03F045FEA8885C49A4
:2027A000E3694843C01AA06201999C46CA8D2169A368521A4B43A169591863465343C91869
:2027C000AA7D534B49005A438918FF31173121626F21C900411A6162316A401A35E0089891
:2027E000002803D03420005D002878D1A88848494843E169401A02994843A0622846803086
:202800000490C08D0028019829D0002804D03E4837A1163803F007FE04983D4AC18D029872
:202820000818E16948434000FF3017302062A8885043411A6F20C000081A606200F0AEFD7F
:2028400000281CD0A16A0398081AED21FF38C9005538884200D3EFE601203871ECE60028CB
:2028600002D00398002804D1294821A11A3003F0DAFD0198A16AD6380818A062CCE7FBF72E
:202880009EF8726901461046FCF7BFFAA16A081AED21FF38C90050388842DCD2012009B069
:2028A000F0BD0099086000981A49006880350818F860298B0798081A00B2002804DD05980D
:2028C000022801D0032000E001207871089838700898002820D03420005D00281CD0022009
:2028E000DDE7000000ED00E000E400E0B40000207372635C6C6C5F6C6D2E73302E63000099
:20290000F4130020102700001905000029020000E20400004B17000008980121484020342A
:202920006075317F3A46304600F045FD0020B6E710B5FE4900280A68516A096807D012680A
:202940008988FB4BD2695943891A03F068FC10BDF8B5F64F38680468416A26460D682036A2
:20296000717D00290AD0618E2A8E914206D1407A012803D1EF49F04803F055FDFBF71FF8A0
:20298000014638684069FCF740FAFFF7D1FF2A8E618E1318994202DB491C618602E0401CA0
:2029A00010186086B07D002806D19C21608E495B884201D1401C6086DC480168088B032865
:2029C00002D2401C088302E0618E98204153284640300646C1898089081A298E401E401813
:2029E00087B218E0D148EB7E00685B00406A00794100D248415AC05A401881B2207D0023E3
:202A0000FFF7F0FD00280FD001280ED0CA48C9493A3003F008FD628EB81A00B20028E1DAE8
:202A20000820B07200F010FEF8BD608E401C6086F1E770B5BD4D002168680162C27E1300BB
:202A400003F0E2FD045656034A56426A1468026811700268516000682030407D002808D1AD
:202A6000FAF7ADFF69680968096CFCF7CEF9002818DC6868228E0168498E914206D121465B
:202A800080318B8B9A1ACA83238605E0891A9E2211530168498E21860268C1681164C16801
:202AA000416111E068680168098E228E8B1A22468032D3830168098E218601680B6CC36044
:202AC0000B6C4361886C9062204601F0D8FC00280DD098499A4808E0C1684161FFF7B2F9AE
:202AE000002804D096489349801D03F09CFC70BD934890490D30F8E710B58C4A0B001268DB
:202B000003F082FD0906090F1F0C2E2E082B2E00FFF78FFF10BD00F068FC10BDFCF772FE5F
:202B200010BDD07E022806D0D07E032806D0FF208049A3300EE0FFF70BFF10BDFFF714FDAE
:202B400010BDD07E0228F6D0D07E0328F6D0FF207849AE3003F067FCF0E7FAF715FF10BD6E
:202B6000FF207449BC3003F05EFC10BDF3B581B00E4601276D4D734C0B0003F045FD090656
:202B80002F39392F40403939400001216D48FFF7CBFC31460198FFF7AFFFE07E022826D16C
:202BA00068680568406A0668FAF7E7FEB188604A5143EA69891AD639E962B72802D26248C6
:202BC000081803E0081A6049B7314018E8625F48E96A814200D80846E86205E00198FFF7FC
:202BE0008BFFE07E022802D1206820300775FEBD2C600198FFF780FF00202860FEBDFF20C5
:202C00004C495C3003F00FFCFEBD70B50C4606460B0003F0F9FC09060D10100D1A1A101087
:202C20001A00484801212830FFF77EFC21463046FFF762FF70BD43483C4D28302860304635
:202C4000FFF75AFF0020286070BDFF203949823003F0E9FB70BDF0B5344C0020216885B0F6
:202C600003258D76CA7E0746032A03D0C97E002929D029E0087F002803D12E49344803F0B9
:202C8000D2FB2068067F684605714571FAF797FE0290FF20F53003900121684601706946A1
:202CA0003046FBF70CFB00E020BF2068007FFCF738F90028F8D02068007FFAF765FE2068E8
:202CC000077700F072FB012021688F7605B0F0BD16490A68907600E020BF0A68D07E00288A
:202CE00003D0D07E937E9842F6D0D07E002803D000200021917670470120FAE770B5114939
:202D00000024CA7E094D032A03D02831CA7E032A2ED12960002827D0012821D00C480549C0
:202D2000973003F080FB0020296813E0B4000020E2040000F0280100F70500009E670100E5
:202D4000A1030000F4130020C4F8FFFF3812000072020000086048622860002C08D070BD65
:202D60000320FFF7B5FF01E0FFF775FF0446DAE70C2070BDF8B5F94F04461F25E67E3300BD
:202D800003F042FC042920031B20F548844204D0FF20F449FC3003F046FB02203C60FFF730
:202DA00097FF002805D03968002008604862386011E00C25002038600AE00120FFF79EFF9D
:202DC000054603E0E749E84803F02DFB002D02D0E07EB042D2D1E07E002804D0E248E149AA
:202DE000801D03F020FBF8BD10B5DD48FFF7C2FFDB482830FFF7BEFFD94900205031087564
:202E0000D649C91F4870D64948610A462832506188769076D1494860086010BD70B5044666
:202E20000120FFF767FBC5B20B20FFF763FBC0B2854204D0FF20CB49C63003F0F4FA0120EB
:202E4000FFF758FBC5B21820FFF754FBC0B2854204D0FF20C349C73003F0E5FA0420C0430D
:202E6000FFF748FBC5B21920FFF744FBC0B2854204D0FF20BB49C83003F0D5FAB748B8494A
:202E8000083804700020C87688760A462832D0769076B24B012408331C711860486250626E
:202EA00008601060FFF7A0FF70BDAC49083108717047FEB5AA49CA7E08462830A74C002A69
:202EC00002D1C27E002A03D0C97E022903D005E0A648216006E0C17E002901D00C20FEBD43
:202EE0002060A348FAF7FCFC216808779B492068C91F0160C91C4162007F002804D1AD20F0
:202F00009849800003F08FFAFAF737FD9949884200D20846FF30C83086B220680325C57699
:202F2000FEF735FE21680861FEF758FE0027002827D0FEF753FE21684A6A10600968012061
:202F4000087001466846F9F7E3FF684600788A49000203F064F90191FAF731FD0199711813
:202F6000FAF7C7FF2168C8602068057245720771021D017F00F01FFA20680783002027605A
:202F8000FEBDFAF71CFD3146FAF7B3FF2168C86008680770096801204870E5E77047F8B540
:202FA0006F4EF17E002904D131462831C97E002901D00C20F8BD0221F176694C674F50347C
:202FC0000837776234600025386025753979C07E4A006A4940008A5A085A2B46101881B2AF
:202FE0002A462846FFF7FEFA002804D0CF205D49800003F018FA25610120A56020756586C3
:2030000025865748703085753968088E401E088635830020F8BD10B5504801244068817EF3
:2030200003290CD001684978002906D0006A5449884202D90024FFF706F8204610BD002444
:20304000FBE74648406802681178491C1170016A0068C26A914204D8007D012801D0012039
:2030600070470020704700207047F8B53B4C3C482060416A00680D68002634210E54A62187
:20308000495D00294BD1007D032848D1FAF797FC014620684069FBF7B8FE00283FDDFFF7A6
:2030A00047FC298E401C41182068026811860068018E9C22525B511A09B200292FDD0121F9
:2030C0002030817528464030C1898089081A298E401E401887B21BE0496A09794A002749C7
:2030E0008B5A028E007D9446EA7E5200895AC91889B201236246FFF775FA00280FD00128EA
:203100000FD002280BD01B481649193803F08BF921680868028EBA1A12B2002ADCDA2660BA
:20312000F8BD20680068018E491C0186F0E7F8B50A4D00266A680128516A0C6853D108799F
:203140000E4940000B5A1068077D032F1AD0027D022A24D0007D012834D044E0B40000201A
:20316000F4130020F0280100070200006D2B01000B2C0100F6050000102700009E670100FD
:20318000D98213000661106886609C20025BE07E4000085AC01881B2002303201BE022462F
:2031A0008032D78D0761E07E928B4000085AC01881B200230220FFF715FA6A6801211268B1
:2031C00011750AE09C20025BE07E4000085AC01881B200230120FFF705FA002803D09C4942
:2031E0009C4803F020F9FAF735FB9B480078EFF76FF8686806830268218E51860068203015
:203200008675F8BD38B5944C0021083460680D4600684278002A01D045701FE00078002848
:2032200009D001216846F9F773FE684600788B49000202F0F4FF6068426AC0681268511824
:20324000FAF757FE01466068C160057103214172021D017F00F0AFF860680583FAF7FAFA40
:203260007D480078EFF734F838BD7B4A10B50146083250680B0003F0C7F9060D150408173E
:203280000C31012100F0D1F807E00021106800F0CCF810BD0120FFF74AFF00210846FFF750
:2032A00043F910BD032116E0416A02680968D36993608A886A4B5A430368DA600A46C032EB
:2032C000D3890B83137B8B75138A8B80538ACB80928A0A8102210068017510BD5D485C49E7
:2032E000913003F0A0F810BD70B500280BD05A4C083401280ED002281ED056485449B4306D
:2033000003F091F870BDFFF77DFF00210846FFF70BF970BD6068002501684D7000F045F8BC
:203320000320F5F7B8FEFAF795FA4B4865600078EEF7CEFF656070BDFFF764FF606800F0C3
:2033400034F800210846FFF7EFF80420F5F7A3FE70BD414908314968CA7E022A08D10A68E4
:203360001378002B04D150600968CA6A1018C8627047394A10B50832526800290CD00129F9
:2033800007D0022907D033483149D93003F04BF810BD801E00E0401F106210BD2E48083089
:2033A0004068002800D0012070470021C176817601604162704710B50B46C17E847EA14251
:2033C00004D011461846FAF77AFF10BDFFF7EDFF10BD024610B50020002905D00846504372
:2033E000204902F01CFF401C10BD1B4810B508304068C07E030003F007F9041515030B15A1
:2034000001F05EF900280CD00F2017A1800106E0FEF7F0FD002804D0F12013A1800003F0FC
:2034200002F810BD10A11448F9E710B50446002903D00020FFF77BFE03E007480078EEF7AF
:2034400047FF2046FFF7B1FF0020F5F724FE10BDF028010092060000AC000020102700006B
:20346000E204000040420F007372635C6C6C5F6C6D2E73302E630000CB030000F8B5FEF74F
:20348000B0F90446FEF756FAF84E054670692030407D002809D0012827D002282AD003280D
:2034A00032D0FF20F2A19A3037E0F0481830FEF71EFA002801D003200FE0EC481830FEF76E
:2034C00049F9002804D070695B21095C002908D0E6481830FEF7D2F90120716920314875B4
:2034E0001DE002212030417519E0E0481830FEF7C5F914E0DD481830FEF72CF900280ED108
:20350000FF20DBA18C3008E0D8481830FEF7EFF9002804D1FF20D6A1943002F084FFB06942
:20352000F72201781140017072692032937DDB071B0F1943FB2319400170D37DDB075B0F0E
:2035400019430170577DEF23022F04D0012F07D0032F07D00CE0012C06D8002D04D007E0C4
:203560006D1E2C43002C03D019401023194300E019400170D17F002916D0517D012913D086
:20358000BF48FBF79DFFBE480021283001767269916ED26E42610161B949B269FCF7A3FAD4
:2035A0000020FCF7AFFA03E0FBF78AFFFCF7CDFAB0690078C00606D4F0690078C00602D499
:2035C000F079002806D0B079002803D101210846FCF79BF8032030703079002803D1FBF70F
:2035E000BDFF01203071F8BD70B5A0481C30FEF7B9F901259D4C002802D00020607002E0BD
:2036000065709F48E061606940300078002802D06078002805D0E069FBF752FFFCF795FA1F
:2036200070BD9748FBF74CFF9548283005766269116F526F42610161914AE169FCF753FA1B
:203640000120FCF75FFA70BD10B588490023486902462030C3768377012049239854A03250
:203660009279002A03D008700021022001E000210320FFF7FAFD10BD70B57C4C6079C2061A
:203680002046406901468031002A01DA002202E0CA8DCB8BD218CA850246C0321379002B43
:2036A00005D0034640331D8AC98B69181982617A002903D03D2001F051F94AE0034620332D
:2036C000D97E042945D0217A002913D0480701D4C80601D51E2030E0080701D53D202CE046
:2036E000C80705D1880703D461A1664802F09BFE2A2022E04030817D002905D0418A4D1C98
:203700004582858AA9420FD2517A062902D0117A062905D1018B4A1C0283828A914203D280
:20372000028AC1898A4201D3222006E09A7F8089002A0AD088420FD3082001F00FF960692F
:203740002030C07E042804D006E0062804D33E20F3E7FFF779FF70BD0120207000210846FD
:20376000FFF783FD70BD10B540484069014620318A7F002A29D0012A27D0022A06D0032A9B
:2037800004D03BA1404802F04EFE10BDC97E03290FD0082919D001464031CA898989511AF2
:2037A000891E89B2032900D303218030828B511809E0014640318A89032A06D3028EC98942
:2037C00080305118491C018310BD8030818BFAE700B5030002F018FF0604070B0F12121756
:2037E00000290ED00FE0891E02290AD90BE0891F012906D907E0082903D004E00B390C293A
:2038000001D8012000BD002000BDFEB5054617481830FEF740F8002804D11B4814A1D13824
:2038200002F001FE114CA069FDF702FC0321A069FDF721FCA069EF2201781140017029463D
:20384000FDF740FC002601272B0002F0DDFE0E5C5C085C2C6060255C4C5C603C375C6069BB
:203860006521095C002911D0062111E0C40000207372635C6C6C5F736C6176652E630000D0
:2038800090140020430200005C080000C0304179A069FDF797FC3AE060698030417CA06928
:2038A000FDF7D7FC33E06169A069B831FDF7ADFC6169A0698C31FDF7AEFC28E00621A0696F
:2038C000FDF7C5FC23E020690178A069FDF7A9FC20698188A069FDF7A6FC20694188A06900
:2038E000FDF7A5FC13E000960196606960300079002803D069460878384308706946A0696C
:20390000FDF7B1FC03E0F949F94802F08CFDFDF7D4FF002804D1F648F449801D02F083FDD7
:203920000C2D06D0072D03D06069403046828775FEBD606940300683FEBDF0B5ED4CC82076
:2039400061698DB0405C04280AD0052835D15C20405C00282AD0012060314871022026E0BE
:2039600010226846D63101F030F86169102204A8B03101F02AF8684601F0DFFB08AE8DCE21
:20398000616984250E4678360DC66F5000250D674D67012540267554D74D88318DC52846E1
:2039A0000822093002F0C1FB052000E00D20FFF72CFF61690020C03108720DB0F0BDF8B537
:2039C000CC481830FDF767FF002848D0C94C207A002844D16069C421095C002500290ED0C6
:2039E0002030C17E0120FFF7F3FE002807D160692030C17E0420FFF7EBFE002806D060690E
:203A0000C921095C0126062907D00DE0606950210D526030457102204EE02030C17E04205B
:203A2000FFF7D6FE002813D0616908462030C27E921E130002F0E8FD166262621D626262F0
:203A400060621F6262622843626262626262466260695E21095CC90702D0C0304572F8BD55
:203A60000C20FFF7D2FE60694030817F31438177F8BD072020E0FDF79AFF0028F8D060698D
:203A8000403005700B2017E0F9F741FA0C28EFD360690821B830F9F73BFA002806D0606938
:203AA00004218C30F9F734FA002804D1C72093A1C00002F0B8FC0420FFF7A7FEF8BDFFF71F
:203AC0003CFFF8BD00228A66CA66C6770A467831C8C9894878322838D26842632830C8C053
:203AE00008220D30091D02F020FB0620FFF78DFE606940308575F8BD0920DDE700F036FF8B
:203B0000F8BD70B57B4C3B216069095C08292FD10146028EC0314B89521C9A4228D1227ACE
:203B2000002A25D10A8A83889A4207D14B8AC588AB4203D18B8A0589AB4209D043884B852B
:203B40008A854A8ACA858A8A0A860122E6210A5401221146FDF747FC00210420FFF785FB9B
:203B600060690021C92211542030C1760321817770BD70B55F4C60692030C07E172803D002
:203B80005EA1624802F04FFC616900220B464033DA7608469A75E030867D0B240125002E4C
:203BA00006D0837C002B14D1C4740275857410E01E7F002E07D01A774C88FA235C5202763E
:203BC0000C23837505E04E88FA235E520276057784752031CA7670BD70B5464CA079800734
:203BE00036D5207A002833D160692030C17E0120FFF7EEFD00282BD1A0690126C0780025E9
:203C0000030002F001FD0E8585088537465F0A85168526625285032152E060692030C07EFA
:203C2000052804D0394835A1333802F0FCFB60690CE060692030C07E092804D033482FA17C
:203C40002D3802F0F0FB606956210D542030C57670BD60692030C07E0B2804D02B4827A130
:203C6000263802F0E0FB60695B210E540C212030C17670BD60692030C07E0F2804D02348C4
:203C80001EA11F3802F0CFFB60695B210E541021EDE760692030C07E102804D01B4817A128
:203CA000183802F0C0FB12210AE060692030C07E102804D0154811A1123802F0B4FB142158
:203CC0006069D4E7FFF755FF70BD60690146C030027A062A04D14031897F890700D5057213
:203CE000417A0629F0D1457270BD000070380100CD070000C4000020B81400207372635C44
:203D00006C6C5F736C6176652E6300004C050000FD49FE4802F087FBE6E710B5FC4C6069CC
:203D20002030C17E0020FFF753FD002803D1207A012108432072207A002808D1E069FDF721
:203D4000EBF961699122505405202031C87610BD10B5EF4C60690146C0314A7A002A06D018
:203D6000097A062903D0217A012211432172217A002928D14030807F800715D4E069FDF740
:203D80005AFA61694031C877E069FDF756FA616940310884E069FDF755FA61690222403116
:203DA0004884887F10438877606900220146C0310B7A062B00D10A724030837FDB0702D191
:203DC00006234B72028310BDF8B5D14C60692030C17E0020FFF7FCFC0125002807D160698C
:203DE0004030007F002802D1207A28432072207A002830D160690026014640304682857517
:203E0000B031E069FDF7EFF96169E0698831FDF7F3F960690146E030827D0827002A06D0A2
:203E2000817C002913D1C774067585740FE04A88F8204252FA31E069FDF7C8F96169E06920
:203E4000FF310331FDF7CAF96069E030877560690F212030C176F8BD10B5AD4C6069203066
:203E6000C17E0020FFF7B4FC002803D1207A012108432072207A002812D1E069FDF769F964
:203E800000280ED0E069FDF75FF96169CA225052098E00F0D6FD002806D0282000F05EFD44
:203EA00010BDFFF73AFF10BDE069FDF74BF96169C0310873E069FDF740F96169C031C88108
:203EC000E069FDF72BF96169C0310882E069FDF72AF96169C0314882E069FDF729F961692E
:203EE000D422505208202031C87610BDF8B5884CA079C00776D0207A002873D160692030E0
:203F0000C17E0120FFF764FC002863D1E0690025C178022701260B0002F076FB0D161308EC
:203F2000415A5A445C575A192F545A00FDF74CF96169C62250543B20475440314D828E757D
:203F400048E000F093FD45E0FFF786FF42E060692030C17E0020FFF73BFC002802D1207ABD
:203F600030432072207A002834D16069014640314D828E750B2120300FE060690146203057
:203F8000C27E0C2A02D0227A3A432272227A002A20D1C57740310E770D21C1761AE0FFF7EE
:203FA00013FF17E0606901462030C27E122A02D0227A3A432272227A002A0BD140318D7588
:203FC0001721EAE7FFF7C4FE04E000F00DFD01E0FFF7A3FE62690023106F516F401C5941A7
:203FE00051671067F8BDF8B5494C0546606920308079012801D1FBF7E9FA012D14D1606992
:204000004021095C002903D12030C07F002801D0FBF79BFDFBF7BDFAFBF7B0FAFBF708FA92
:20402000FBF72DFAFBF746FA60790225C1070126002901D180070ED560692030817F00299F
:2040400002D0032902D006E0867700E0857700210120FFF70AF960692030817F012903D17F
:204060006179090700D58577607A002803D100F027FDFFF7A4FC207900250028606902D084
:204080008030058403E08030018C491C01846079C00705D06069AC210D544030858104E017
:2040A000616940318889401C8881E079002806D06169A031087B022806D8401C0873606932
:2040C000A030007B022806D960690146803005844584A0310D7360692030C17E0020FFF7BB
:2040E00077FB002804D160692030C07E072855D160690146C0310A7A062A4FD0497A0629DF
:204100004CD03E21095C05E0FC3C0100BA050000C4000020022941D1A030007B00283DD140
:20412000FDF74FFB002839D0FDF704FC002835D061690A468032508B01282FD90846A030F9
:20414000844646716038C7898389B81E834201DB012002E0F81A401E80B2138CA789BB4202
:2041600001D3012302E0FB1A5B1C9BB2984200D91846012801D163465D71C0310B78002B6A
:2041800010D0528C49888A4201D3012102E0891A491C89B2884205D9084603E061690120E5
:2041A000A0314D7161690A8E803110188883FFF7DAFAFFF761FAFEF756FF002809D06069FB
:2041C0000146FF3001300279002A02D14988C18006716069A0308571F8BD70B5F84C6069C1
:2041E0002030407D00283ED0022810D1FDF7C2FA002804D17120F349000102F014F962692C
:204200000023916ED06E491C58419166D0666069002520304575017D012904D10575A1790A
:2042200010221143A171C17C012915D1C574A07908210843A071FDF76AFB002804D1E52067
:20424000E049C00002F0EFF860690023816EC26E491C5A41C266816660692030817D012941
:2042600002D0012181753FE585753DE570B5D44C0026E169012508788207920F0420012A40
:2042800015D0022A13D0032A03D0217A014321722AE560780028FBD1606920308574A179B1
:2042A0002943A17122E0C6751EE5C5751CE54978CA0624D06278002AEAD1C906C90E1B29D7
:2042C00018D8617901436171FDF75FFB002804D13B20BC49400102F0A6F860690023016F26
:2042E000426F491C5A41426701672030C17D0129DBD1D8E7207A102108432072F4E4606990
:20430000F3E77CB504460020C0436946888001A8FCF7B2FD00287AD169468888FCF790FD71
:20432000002803D0A749A84802F07DF800980146E030827C0025002A08D065701021217090
:20434000C17CA170017DE170857472E082799C4E002A13D065700720207008E07169E620AF
:204360008D8445540A22A01CE83101F0DEFE0098E03080790028F1D1A5705AE0827D002AC2
:2043800038D0827D130002F03FF90D2F2F2F2F2F2F2F2F112F2F24082F0065700C212170F7
:2043A000017EA17071694988A18010E06570082020707069082240886080201DFA3101F020
:2043C000B4FEFF2100980331095AA181E03085752FE065700B212170017EA17071694988D4
:2043E000A180017FA171F2E7774876495D3002F01AF81EE0C81DF9300279002A08D0112266
:2044000065702270811C89886180057111E012E0027A002A0FD012226570FF3122700331C9
:2044200004E005720A8962804A89A280027A002AF7D101207CBD00207CBD6148007801284C
:2044400001D00C2070470020704770B55C4C05462078002804D05C485A49933001F0E3FF48
:2044600000202561A07201202070FFF7E6FF002804D0554853499E3001F0D5FF34E4F8B56B
:204480004F4F3978012901D00C20F8BD0126A62178610E548030807CFDF752F900282FD0B6
:2044A00078698030807CFDF753FA002828D078698030807CFDF7E5F9002821D07869803005
:2044C000807CFDF70AFA00281AD0FAF7E6FF786900258030408B002827D039481830FDF7A3
:2044E000DAF9002821D07869C421095C00291CD02030C17E0120FFF76BF9002802D014E098
:204500001220F8BD78692030C17E0420FFF760F900280AD1786950210D52603045710220B5
:20452000FFF773F97869A03045717869E621095C002903D1818CC288914200D8C188B981E3
:2045400001468031CA8B521E93B20A8CD21892B20A8494460246A0321479002C02D04D84B7
:20456000157102E04C8CE4184C8404464034A789FF18A7814C8B012C01D8641C4C83002BAB
:2045800000D015732030C07E0D4C04281ED0507900281DD0A1898C451AD2FDF712F90028D6
:2045A00016D060690146C0310A78002A10D08030408C498888420BD3A570E6700AE000003E
:2045C000C4000020FC3C010081080000A67001E0A570E5706069A5210D543B21095C0629F4
:2045E00001D0072918D1CA21028E095A511A09B2002911DB01460522CC310A3001F095FD90
:20460000012202216069FCF7EEFE6069C9210D543B210D546030867160699E210A5A811CCB
:204620003030FCF71EFFA07800283DD16069C021095C002901D0803045840120FAF7A4FD87
:2046400060691330FAF713FF60690F30FAF753FE0120FAF71FFF61694020405C002803D10F
:204660003F20405C00280DD00A467831C8C9F9487832D26842632830C8C008220D30091D79
:2046800001F053FDFAF701FF01210846FAF758FE60698030806AFAF716FFFEF7A5FF606966
:2046A0004030007AFAF730FE6571E571A57125726572257102202070FAF7FCFE0020F8BD39
:2046C00010B5E54C2078022801D00C2010BDA078002803D00020FFF786FC17E0FAF7DDFEEA
:2046E00000F033F9606920308079012801D1FAF776FFA07A002809D0012807D0022807D00F
:20470000032805D0D549D64801F08DFE002010BDEEF77EFCFAE7D0498872704710B5CE4C0B
:204720002078032804D0CE48CC49293001F07BFE606901212030827C002A06D000228274A3
:204740000175A27904231A43A271A2691378DB439B0707D1C37C002B04D1C174A079022153
:204760000843A0711078C00606D4E0690078C00602D4E07900280CD06078002809D1A07908
:20478000002806D1FEF75DFC002802D0207A002803D00120FFF727FC03E0FEF725FF00F017
:2047A000D4F8207801280DD0A07A00280AD0012808D0022807D0032805D0A948A7496830F8
:2047C00001F031FE10BD0120FBF719F810BD10B5A14C606920308079012812D1FAF7F6FE46
:2047E0006169881C3031FCF7C5FE002809D06069C21D4388F93253812030007E107301204F
:20480000107210BD70B5944C05462078042804D093489249803001F006FE617910200143B8
:204820006171002D50D0FBF7A8F9617801250843002811D160694021095C00290CD0E16994
:204840004A78D20608D0097820300907C07DC90F814201D165724EE0E078002809D0E069B4
:204860004178C90605D10078C00602D4FFF7AFFF41E0FFF7ACFFE06900784007C10F6069BF
:204880002030807D814205D0FFF7A7FC6079082108436071E06900780007C10F60692030CB
:2048A000C07D814201D1FFF7E1FC6079284360710020E071A079000704D560692030C07E7D
:2048C000032818D0207A14E0022001436171E079401CC0B2E07101280DD8606940300078C8
:2048E00000280CD05B484078C106C90E052906D2C006002803D00120FFF775FB01E0FEF797
:20490000BDFD207801280DD0A07A00280AD0012809D0022806D0032805D051484F49E230DE
:2049200001F081FD9FE40120FAF769FF9BE410B549480078042804D049484849EA3001F091
:2049400072FD0120FFF74FFB10BD10B501210020FAF7DBFE40490420087010BD3E494A2204
:204960004969505404202031C876704710B53A4CC8206169405C00281CD0062806D0203175
:20498000C97E0020FEF724FF002813D060690146C0310A7A130001F037FE070D0D0D0D0D87
:2049A0000D050D004030807FC20704D0C043800700D1087210BD0C20FEF727FF60690122F7
:2049C0004030817F1143817710BD10B5002A0AD0002306E0D41A6418203CE47FC4545B1CC4
:2049E000DBB29342F6D310BD7CB51B4C60692030C17E0020FEF7ECFE0125002802D1207A15
:204A000028432072207A00281AD16946E069FCF722FC684600780022C107C90F68460170DC
:204A20006069002902D06030057101E0603002716069014640304282857509202031C876D2
:204A40007CBD401A074900B2884201DC00280BDC0120704790140020C4000020FC3C010052
:204A6000F4090000FE7F00000020F2E710B5534C60692030C17E0020FEF7AAFE0028207A88
:204A800010D000280DD1E069FCF797FB6169CA225052098EFFF7D5FF002807D02820FFF76C
:204AA0005DFF10BD01210843207210BD6169E069CC31FCF77AFB606906212030C17610BD45
:204AC00010B500F04EF83D4C607940070BD560692030C17E0520FEF77BFE002803D0207AD2
:204AE000082108432072FFF701FA00F018F8FFF773F8A079C0060FD5207A00280CD1606933
:204B00002030C17E0B0001F07FFD070707070707070507000721C176FEF7F3FF10BD10B579
:204B200026488179490715D5017A002912D140693B21095C891E0B0001F066FD07050C0CB8
:204B40000C0D0C0F0C00002256210A54C0308079FFF704FF10BD012100E00221C0304172A7
:204B600010BD10B515488179090720D5017A00291DD1406902462032D47EA41E230001F04A
:204B800043FD13160B161616161616161616161616161616161716005622115460304079EE
:204BA000002801D0062000E01620FFF7D7FE10BD4030C1768175D17610BD0000C400002093
:204BC00030B50346002002460DE09C5C2546303D0A2D02D30020C04330BD0A256843303824
:204BE0002018521CD2B28A42EFD330BD70B50D46144608E00A2101F012FB2A193031203A2F
:204C0000641ED177E4B2002CF4D170BD10B5002310E0040A00020443A0B2CC5C44402006C3
:204C2000000F60400407240C44402006C00C60405B1C9BB29342ECD310BD000010B572B662
:204C400000F0DCF800280BD0ECF72AFBF8F7EFFD00F0A5FD6E490020C86288626D4908600F
:204C600062B6002010BDF3B5002501200007C06A81B0C0430006000E04D167480068401C80
:204C800000D1012572B600F0B9F8002802D062B60820FEBDECF75AFAECF706FB5F4B604EEC
:204CA00000211A68CA40D2071FD00246CA40D20718D14AB2002A07DA1407240F083CA40826
:204CC000A400A419E46904E09408564FA400E41924689207D20ED4402206920F012A04D07F
:204CE000032A02D062B65048FEBD491C2029D8D30198030001F088FC1421232323232323D9
:204D000023230B0D0F11131F1517191B1D2E002416E0012414E0022412E0032410E00424AE
:204D20000EE008240CE009240AE00A2408E00B2406E00C2404E0052402E0072400E00624D7
:204D4000F06901210002000AC9070843F061002D04D009E062B601200003FEBD2C4D33488B
:204D6000E862ECF7A1FAA8622A4931480860314902980860ECF798FA214600F0F7FCF8F7E3
:204D80001AFD00F0FDFE00F073FD0198ECF756FA040062B603D0FFF751FF2046FEBD00206F
:204DA000FEBD10B5044600F029F8002800D001202070002010BD204908600020704710B515
:204DC0000C46102808D011280BD012280CD013280ED00120086010BD03CC083CFFF743FF8D
:204DE0000AE0FFF72BFF07E02068FFF7DAFF03E01149206808600020206010BD05480C492F
:204E00000068884201D10120704700207047000000050040780000200010001000E100E021
:204E200000ED00E000E400E00110000000190000BEBAFECAE40000200400002010B5203832
:204E40000C46030001F0E0FB33A6AAAEB2B8BCC0C5E0DBE41B1F23272C31373C41474D503D
:204E600054585C606D71656974787C8084888C9094989C9FA2CACFE9F0F3D3D7F800206876
:204E800000F0DDF8D6E0206800F0E1F8D2E0206800F0F5F8CEE0207840B200F0D7FAC9E08D
:204EA000207840B200F0F5FAC4E02078616840B200F008FBBEE0207840B200F018FBB9E0DB
:204EC000207840B200F023FBB4E02078217940B200F02EFBAEE02078616840B200F058FB45
:204EE000A8E000F064FBA5E0206800F068FBA1E0207800F07DFB9DE02068F8F72CF899E069
:204F00002068F8F72CF895E021792068F8F72EF890E0206800F0E6F98CE0206800F0E7F9BF
:204F200088E0207800F0E7F984E000F0F1F981E0207800F0F3F97DE0207800F005FA79E051
:204F4000206800F01EFA75E0206800F020FA71E0206800F022FA6DE0206800F023FA69E0CA
:204F6000206800F025FA65E0206800F027FA61E0206800F028FA5DE00846ECF7FFF859E043
:204F8000EDF719FA56E0EDF746FA53E02068EDF74EFA4FE0206800F0E1F84BE0206800F0B6
:204FA000E9F847E0206800F0F0F843E02078A268616800F0F5F83DE0207800F006F939E061
:204FC000207800F017F935E02078616800F027F930E02078616800F03AF92BE021792078E2
:204FE00000F016FC26E0206800F06BF822E02068F8F70CFB1EE02068F8F7F0FA1AE007CC22
:205000000C3C00F0FFFC15E0206800F052FD11E003CC083C00F07DFD0CE0206800F06EFF62
:2050200008E009E003E0FFE700F080FF02E0206800F0B8FF206010BD0120086010BD002192
:205040000170084670470146002008707047EFF31081C907C90F72B60278012A01D0012268
:2050600000E0002201230370002900D162B6002A01D000207047012040037047E7E7EFF3E8
:205080001081C907C90F72B600220270002900D162B600207047F2E710B52848FFF7CFFF60
:2050A000002803D026A11D2001F0BDF92348401CFFF7C5FF002803D021A1212001F0B3F92E
:2050C00010BDF1B5224D6F6801261C48FFF7BFFF1A4C002803D10026601CFFF7D0FF1D4AA8
:2050E0001D490120506000BF00BF00BF00BF00BF00230B604B60009B6B60106000BF00BF31
